{
  "_format": "hh-sol-artifact-1",
  "contractName": "Custody",
  "sourceName": "contracts/local/Custody.sol",
  "abi": [
    {
      "inputs": [
        {
          "internalType": "address",
          "name": "_usdt",
          "type": "address"
        },
        {
          "internalType": "address",
          "name": "_fiduciario",
          "type": "address"
        },
        {
          "internalType": "address",
          "name": "_auditor",
          "type": "address"
        },
        {
          "internalType": "address",
          "name": "_core",
          "type": "address"
        }
      ],
      "stateMutability": "nonpayable",
      "type": "constructor"
    },
    {
      "anonymous": false,
      "inputs": [
        {
          "indexed": true,
          "internalType": "uint256",
          "name": "campaignId",
          "type": "uint256"
        },
        {
          "indexed": true,
          "internalType": "uint256",
          "name": "milestoneIndex",
          "type": "uint256"
        },
        {
          "indexed": false,
          "internalType": "uint256",
          "name": "amount",
          "type": "uint256"
        },
        {
          "indexed": false,
          "internalType": "bytes32",
          "name": "ipfsHash",
          "type": "bytes32"
        }
      ],
      "name": "MilestoneAdded",
      "type": "event"
    },
    {
      "anonymous": false,
      "inputs": [
        {
          "indexed": true,
          "internalType": "uint256",
          "name": "campaignId",
          "type": "uint256"
        },
        {
          "indexed": true,
          "internalType": "uint256",
          "name": "milestoneIndex",
          "type": "uint256"
        }
      ],
      "name": "MilestoneAudited",
      "type": "event"
    },
    {
      "anonymous": false,
      "inputs": [
        {
          "indexed": true,
          "internalType": "uint256",
          "name": "campaignId",
          "type": "uint256"
        },
        {
          "indexed": true,
          "internalType": "uint256",
          "name": "milestoneIndex",
          "type": "uint256"
        },
        {
          "indexed": false,
          "internalType": "address",
          "name": "to",
          "type": "address"
        },
        {
          "indexed": false,
          "internalType": "uint256",
          "name": "amount",
          "type": "uint256"
        }
      ],
      "name": "MilestoneReleased",
      "type": "event"
    },
    {
      "anonymous": false,
      "inputs": [
        {
          "indexed": true,
          "internalType": "address",
          "name": "previousOwner",
          "type": "address"
        },
        {
          "indexed": true,
          "internalType": "address",
          "name": "newOwner",
          "type": "address"
        }
      ],
      "name": "OwnershipTransferred",
      "type": "event"
    },
    {
      "anonymous": false,
      "inputs": [
        {
          "indexed": true,
          "internalType": "uint256",
          "name": "campaignId",
          "type": "uint256"
        },
        {
          "indexed": false,
          "internalType": "address",
          "name": "to",
          "type": "address"
        },
        {
          "indexed": false,
          "internalType": "uint256",
          "name": "amount",
          "type": "uint256"
        }
      ],
      "name": "Refunded",
      "type": "event"
    },
    {
      "inputs": [
        {
          "internalType": "uint256",
          "name": "campaignId",
          "type": "uint256"
        },
        {
          "internalType": "uint256",
          "name": "amount",
          "type": "uint256"
        },
        {
          "internalType": "bytes32",
          "name": "ipfsHash",
          "type": "bytes32"
        }
      ],
      "name": "addMilestone",
      "outputs": [],
      "stateMutability": "nonpayable",
      "type": "function"
    },
    {
      "inputs": [],
      "name": "auditor",
      "outputs": [
        {
          "internalType": "address",
          "name": "",
          "type": "address"
        }
      ],
      "stateMutability": "view",
      "type": "function"
    },
    {
      "inputs": [],
      "name": "checkBalance",
      "outputs": [
        {
          "internalType": "uint256",
          "name": "",
          "type": "uint256"
        }
      ],
      "stateMutability": "view",
      "type": "function"
    },
    {
      "inputs": [],
      "name": "core",
      "outputs": [
        {
          "internalType": "address",
          "name": "",
          "type": "address"
        }
      ],
      "stateMutability": "view",
      "type": "function"
    },
    {
      "inputs": [],
      "name": "fiduciario",
      "outputs": [
        {
          "internalType": "address",
          "name": "",
          "type": "address"
        }
      ],
      "stateMutability": "view",
      "type": "function"
    },
    {
      "inputs": [
        {
          "internalType": "uint256",
          "name": "campaignId",
          "type": "uint256"
        }
      ],
      "name": "getMilestones",
      "outputs": [
        {
          "components": [
            {
              "internalType": "uint256",
              "name": "index",
              "type": "uint256"
            },
            {
              "internalType": "uint256",
              "name": "amount",
              "type": "uint256"
            },
            {
              "internalType": "bool",
              "name": "released",
              "type": "bool"
            },
            {
              "internalType": "bytes32",
              "name": "ipfsHash",
              "type": "bytes32"
            },
            {
              "internalType": "enum Custody.STATUS_m",
              "name": "status_m",
              "type": "uint8"
            }
          ],
          "internalType": "struct Custody.Milestone[]",
          "name": "",
          "type": "tuple[]"
        }
      ],
      "stateMutability": "view",
      "type": "function"
    },
    {
      "inputs": [
        {
          "internalType": "address",
          "name": "_addr",
          "type": "address"
        }
      ],
      "name": "isFiduciario",
      "outputs": [
        {
          "internalType": "bool",
          "name": "",
          "type": "bool"
        }
      ],
      "stateMutability": "view",
      "type": "function"
    },
    {
      "inputs": [
        {
          "internalType": "uint256",
          "name": "campaignId",
          "type": "uint256"
        },
        {
          "internalType": "uint256",
          "name": "milestoneIndex",
          "type": "uint256"
        }
      ],
      "name": "markAudited",
      "outputs": [],
      "stateMutability": "nonpayable",
      "type": "function"
    },
    {
      "inputs": [
        {
          "internalType": "uint256",
          "name": "campaignId",
          "type": "uint256"
        },
        {
          "internalType": "uint256",
          "name": "milestoneIndex",
          "type": "uint256"
        }
      ],
      "name": "markAuditedNO",
      "outputs": [],
      "stateMutability": "nonpayable",
      "type": "function"
    },
    {
      "inputs": [
        {
          "internalType": "uint256",
          "name": "",
          "type": "uint256"
        },
        {
          "internalType": "uint256",
          "name": "",
          "type": "uint256"
        }
      ],
      "name": "milestones",
      "outputs": [
        {
          "internalType": "uint256",
          "name": "index",
          "type": "uint256"
        },
        {
          "internalType": "uint256",
          "name": "amount",
          "type": "uint256"
        },
        {
          "internalType": "bool",
          "name": "released",
          "type": "bool"
        },
        {
          "internalType": "bytes32",
          "name": "ipfsHash",
          "type": "bytes32"
        },
        {
          "internalType": "enum Custody.STATUS_m",
          "name": "status_m",
          "type": "uint8"
        }
      ],
      "stateMutability": "view",
      "type": "function"
    },
    {
      "inputs": [],
      "name": "owner",
      "outputs": [
        {
          "internalType": "address",
          "name": "",
          "type": "address"
        }
      ],
      "stateMutability": "view",
      "type": "function"
    },
    {
      "inputs": [
        {
          "internalType": "uint256",
          "name": "campaignId",
          "type": "uint256"
        },
        {
          "internalType": "address",
          "name": "to",
          "type": "address"
        },
        {
          "internalType": "uint256",
          "name": "amount",
          "type": "uint256"
        }
      ],
      "name": "refund",
      "outputs": [],
      "stateMutability": "nonpayable",
      "type": "function"
    },
    {
      "inputs": [
        {
          "internalType": "uint256",
          "name": "campaignId",
          "type": "uint256"
        },
        {
          "internalType": "uint256",
          "name": "milestoneIndex",
          "type": "uint256"
        },
        {
          "internalType": "address",
          "name": "to",
          "type": "address"
        }
      ],
      "name": "releaseMilestone",
      "outputs": [],
      "stateMutability": "nonpayable",
      "type": "function"
    },
    {
      "inputs": [],
      "name": "renounceOwnership",
      "outputs": [],
      "stateMutability": "nonpayable",
      "type": "function"
    },
    {
      "inputs": [
        {
          "internalType": "address",
          "name": "newOwner",
          "type": "address"
        }
      ],
      "name": "transferOwnership",
      "outputs": [],
      "stateMutability": "nonpayable",
      "type": "function"
    },
    {
      "inputs": [],
      "name": "usdt",
      "outputs": [
        {
          "internalType": "contract IERC20",
          "name": "",
          "type": "address"
        }
      ],
      "stateMutability": "view",
      "type": "function"
    }
  ],
  "bytecode": "0x608060405234801561000f575f5ffd5b506040516111e33803806111e383398101604081905261002e916100f8565b6100373361008e565b60018055600280546001600160a01b039586166001600160a01b0319918216179091556003805494861694821694909417909355600480549285169284169290921790915560058054919093169116179055610149565b5f80546001600160a01b038381166001600160a01b0319831681178455604051919092169283917f8be0079c531659141344cd1fd0a4f28419497f9722a3daafe3b4186f6b6457e09190a35050565b80516001600160a01b03811681146100f3575f5ffd5b919050565b5f5f5f5f6080858703121561010b575f5ffd5b610114856100dd565b9350610122602086016100dd565b9250610130604086016100dd565b915061013e606086016100dd565b905092959194509250565b61108d806101565f395ff3fe608060405234801561000f575f5ffd5b50600436106100fb575f3560e01c80638324e55911610093578063e796a6eb11610063578063e796a6eb14610219578063f2f4eb261461022c578063f2fde38b1461023f578063fe39ae9d14610252575f5ffd5b80638324e559146101cd5780638da5cb5b146101e0578063ae5bd866146101f0578063c71daccb14610203575f5ffd5b80632f48ab7d116100ce5780632f48ab7d1461017f5780633ec045a61461019257806342c549c0146101a5578063715018a6146101c5575f5ffd5b8063125d045e146100ff5780631c376c631461011457806320e6ec49146101415780632240600c14610154575b5f5ffd5b61011261010d366004610dbd565b610284565b005b610127610122366004610de6565b610371565b604051610138959493929190610e3a565b60405180910390f35b61011261014f366004610de6565b6103c1565b600354610167906001600160a01b031681565b6040516001600160a01b039091168152602001610138565b600254610167906001600160a01b031681565b600454610167906001600160a01b031681565b6101b86101b3366004610e6e565b6104da565b6040516101389190610e85565b6101126105ce565b6101126101db366004610f18565b6105e1565b5f546001600160a01b0316610167565b6101126101fe366004610de6565b61079a565b61020b610870565b604051908152602001610138565b610112610227366004610f4a565b6108df565b600554610167906001600160a01b031681565b61011261024d366004610f7d565b6109ab565b610274610260366004610f7d565b6003546001600160a01b0391821691161490565b6040519015158152602001610138565b61028c610a24565b5f8381526006602090815260408083208054825160a081018452818152808501888152938101868152606082018881526080830188815260018086018755958952969097208251600585029091019081559451858501555160028501805491151560ff199283161790559551600380860191909155945160048501805493979296919490939092169190849081111561032757610327610e06565b021790555050604080518581526020810185905283925086917f5035736198336a9889457aea460781c666a92f922986918a2bbe64f6b60c4e28910160405180910390a350505050565b6006602052815f5260405f20818154811061038a575f80fd5b5f9182526020909120600590910201805460018201546002830154600384015460049094015492955090935060ff90811692911685565b6004546001600160a01b031633146103f45760405162461bcd60e51b81526004016103eb90610f9d565b60405180910390fd5b6103fc610a7d565b5f82815260066020526040812080548390811061041b5761041b610fc2565b5f918252602082206005909102019150600482015460ff16600381111561044457610444610e06565b1461048a5760405162461bcd60e51b81526020600482015260166024820152754d696c6573746f6e65206e6f2070656e6469656e746560501b60448201526064016103eb565b6004810180546001919060ff191682805b0217905550604051829084907fadcdfbfd9dbc8b07547936a54d348c5125d879063d978075737ac73fc267f0f6905f90a3506104d660018055565b5050565b6004546060906001600160a01b031633146105075760405162461bcd60e51b81526004016103eb90610f9d565b5f82815260066020908152604080832080548251818502810185019093528083529193909284015b828210156105c2575f8481526020908190206040805160a0810182526005860290920180548352600181015493830193909352600283015460ff908116151591830191909152600380840154606084015260048401549293926080850192169081111561059e5761059e610e06565b60038111156105af576105af610e06565b815250508152602001906001019061052f565b5050505090505b919050565b6105d6610a24565b6105df5f610ad6565b565b6003546001600160a01b0316331461062c5760405162461bcd60e51b815260206004820152600e60248201526d4e6f74206669647563696172696f60901b60448201526064016103eb565b610634610a7d565b5f83815260066020526040812080548490811061065357610653610fc2565b5f9182526020909120600590910201600281015490915060ff16156106a85760405162461bcd60e51b815260206004820152600b60248201526a5961206c6962657261646f60a81b60448201526064016103eb565b6001600482015460ff1660038111156106c3576106c3610e06565b146106fe5760405162461bcd60e51b815260206004820152600b60248201526a4e6f20617564697461646f60a81b60448201526064016103eb565b600181015460025461071d916001600160a01b03909116908490610b25565b6002818101805460ff199081166001908117909255600484018054909116909217909155810154604080516001600160a01b03851681526020810192909252849186917fb37915caa4a2c797e4d82b5b0c330c8c0a66fd621adf72cf62562e84bacb7d27910160405180910390a35061079560018055565b505050565b6004546001600160a01b031633146107c45760405162461bcd60e51b81526004016103eb90610f9d565b6107cc610a7d565b5f8281526006602052604081208054839081106107eb576107eb610fc2565b5f918252602082206005909102019150600482015460ff16600381111561081457610814610e06565b1461085a5760405162461bcd60e51b81526020600482015260166024820152754d696c6573746f6e65206e6f2070656e6469656e746560501b60448201526064016103eb565b6004810180546003919060ff191660018361049b565b6002546040516370a0823160e01b81523060048201525f916001600160a01b0316906370a0823190602401602060405180830381865afa1580156108b6573d5f5f3e3d5ffd5b505050506040513d601f19601f820116820180604052508101906108da9190610fd6565b905090565b6003546001600160a01b031633148061090257506005546001600160a01b031633145b61093f5760405162461bcd60e51b815260206004820152600e60248201526d139bdd08185d5d1a1bdc9a5e995960921b60448201526064016103eb565b610947610a7d565b60025461095e906001600160a01b03168383610b25565b604080516001600160a01b03841681526020810183905284917f7ca5472b7ea78c2c0141c5a12ee6d170cf4ce8ed06be3d22c8252ddfc7a6a2c4910160405180910390a261079560018055565b6109b3610a24565b6001600160a01b038116610a185760405162461bcd60e51b815260206004820152602660248201527f4f776e61626c653a206e6577206f776e657220697320746865207a65726f206160448201526564647265737360d01b60648201526084016103eb565b610a2181610ad6565b50565b5f546001600160a01b031633146105df5760405162461bcd60e51b815260206004820181905260248201527f4f776e61626c653a2063616c6c6572206973206e6f7420746865206f776e657260448201526064016103eb565b600260015403610acf5760405162461bcd60e51b815260206004820152601f60248201527f5265656e7472616e637947756172643a207265656e7472616e742063616c6c0060448201526064016103eb565b6002600155565b5f80546001600160a01b038381166001600160a01b0319831681178455604051919092169283917f8be0079c531659141344cd1fd0a4f28419497f9722a3daafe3b4186f6b6457e09190a35050565b604080516001600160a01b03848116602483015260448083018590528351808403909101815260649092018352602080830180516001600160e01b031663a9059cbb60e01b17905283518085019094528084527f5361666545524332303a206c6f772d6c6576656c2063616c6c206661696c656490840152610795928692915f91610bb4918516908490610c33565b905080515f1480610bd4575080806020019051810190610bd49190610fed565b6107955760405162461bcd60e51b815260206004820152602a60248201527f5361666545524332303a204552433230206f7065726174696f6e20646964206e6044820152691bdd081cdd58d8d9595960b21b60648201526084016103eb565b6060610c4184845f85610c49565b949350505050565b606082471015610caa5760405162461bcd60e51b815260206004820152602660248201527f416464726573733a20696e73756666696369656e742062616c616e636520666f6044820152651c8818d85b1b60d21b60648201526084016103eb565b5f5f866001600160a01b03168587604051610cc5919061100c565b5f6040518083038185875af1925050503d805f8114610cff576040519150601f19603f3d011682016040523d82523d5f602084013e610d04565b606091505b5091509150610d1587838387610d20565b979650505050505050565b60608315610d8e5782515f03610d87576001600160a01b0385163b610d875760405162461bcd60e51b815260206004820152601d60248201527f416464726573733a2063616c6c20746f206e6f6e2d636f6e747261637400000060448201526064016103eb565b5081610c41565b610c418383815115610da35781518083602001fd5b8060405162461bcd60e51b81526004016103eb9190611022565b5f5f5f60608486031215610dcf575f5ffd5b505081359360208301359350604090920135919050565b5f5f60408385031215610df7575f5ffd5b50508035926020909101359150565b634e487b7160e01b5f52602160045260245ffd5b60048110610e3657634e487b7160e01b5f52602160045260245ffd5b9052565b8581526020810185905283151560408201526060810183905260a08101610e646080830184610e1a565b9695505050505050565b5f60208284031215610e7e575f5ffd5b5035919050565b602080825282518282018190525f918401906040840190835b81811015610ef757835180518452602081015160208501526040810151151560408501526060810151606085015260808101519050610ee06080850182610e1a565b506020939093019260a09290920191600101610e9e565b509095945050505050565b80356001600160a01b03811681146105c9575f5ffd5b5f5f5f60608486031215610f2a575f5ffd5b8335925060208401359150610f4160408501610f02565b90509250925092565b5f5f5f60608486031215610f5c575f5ffd5b83359250610f6c60208501610f02565b929592945050506040919091013590565b5f60208284031215610f8d575f5ffd5b610f9682610f02565b9392505050565b6020808252600b908201526a2737ba1030bab234ba37b960a91b604082015260600190565b634e487b7160e01b5f52603260045260245ffd5b5f60208284031215610fe6575f5ffd5b5051919050565b5f60208284031215610ffd575f5ffd5b81518015158114610f96575f5ffd5b5f82518060208501845e5f920191825250919050565b602081525f82518060208401528060208501604085015e5f604082850101526040601f19601f8301168401019150509291505056fea2646970667358221220e229cff363d9bc4cd33036e8949a9467df903ec446187fcfc70bb8e70af62a8864736f6c634300081b0033",
  "linkReferences": {},
  "deployedLinkReferences": {}
}