{
  "_format": "hh-sol-artifact-1",
  "contractName": "GeneralCompliance",
  "sourceName": "contracts/local/GeneralCompliance.sol",
  "abi": [
    {
      "inputs": [
        {
          "internalType": "address",
          "name": "fiduciario_",
          "type": "address"
        }
      ],
      "stateMutability": "nonpayable",
      "type": "constructor"
    },
    {
      "anonymous": false,
      "inputs": [
        {
          "indexed": true,
          "internalType": "address",
          "name": "user",
          "type": "address"
        },
        {
          "indexed": false,
          "internalType": "bool",
          "name": "status",
          "type": "bool"
        }
      ],
      "name": "BlacklistUpdated",
      "type": "event"
    },
    {
      "anonymous": false,
      "inputs": [
        {
          "indexed": true,
          "internalType": "address",
          "name": "previousOwner",
          "type": "address"
        },
        {
          "indexed": true,
          "internalType": "address",
          "name": "newOwner",
          "type": "address"
        }
      ],
      "name": "OwnershipTransferred",
      "type": "event"
    },
    {
      "anonymous": false,
      "inputs": [
        {
          "indexed": true,
          "internalType": "address",
          "name": "user",
          "type": "address"
        },
        {
          "indexed": false,
          "internalType": "bool",
          "name": "status",
          "type": "bool"
        }
      ],
      "name": "WhitelistUpdated",
      "type": "event"
    },
    {
      "inputs": [
        {
          "internalType": "address",
          "name": "",
          "type": "address"
        }
      ],
      "name": "blacklistFiduciario",
      "outputs": [
        {
          "internalType": "bool",
          "name": "",
          "type": "bool"
        }
      ],
      "stateMutability": "view",
      "type": "function"
    },
    {
      "inputs": [
        {
          "internalType": "address",
          "name": "from",
          "type": "address"
        },
        {
          "internalType": "address",
          "name": "to",
          "type": "address"
        },
        {
          "internalType": "uint256",
          "name": "",
          "type": "uint256"
        }
      ],
      "name": "canTransfer",
      "outputs": [
        {
          "internalType": "bool",
          "name": "",
          "type": "bool"
        }
      ],
      "stateMutability": "view",
      "type": "function"
    },
    {
      "inputs": [],
      "name": "fiduciario",
      "outputs": [
        {
          "internalType": "address",
          "name": "",
          "type": "address"
        }
      ],
      "stateMutability": "view",
      "type": "function"
    },
    {
      "inputs": [],
      "name": "owner",
      "outputs": [
        {
          "internalType": "address",
          "name": "",
          "type": "address"
        }
      ],
      "stateMutability": "view",
      "type": "function"
    },
    {
      "inputs": [],
      "name": "renounceOwnership",
      "outputs": [],
      "stateMutability": "nonpayable",
      "type": "function"
    },
    {
      "inputs": [
        {
          "internalType": "address",
          "name": "user",
          "type": "address"
        },
        {
          "internalType": "bool",
          "name": "_status",
          "type": "bool"
        }
      ],
      "name": "setBlacklist",
      "outputs": [],
      "stateMutability": "nonpayable",
      "type": "function"
    },
    {
      "inputs": [
        {
          "internalType": "address",
          "name": "user",
          "type": "address"
        },
        {
          "internalType": "bool",
          "name": "_status",
          "type": "bool"
        }
      ],
      "name": "setWhitelist",
      "outputs": [],
      "stateMutability": "nonpayable",
      "type": "function"
    },
    {
      "inputs": [
        {
          "internalType": "address",
          "name": "newOwner",
          "type": "address"
        }
      ],
      "name": "transferOwnership",
      "outputs": [],
      "stateMutability": "nonpayable",
      "type": "function"
    },
    {
      "inputs": [
        {
          "internalType": "address",
          "name": "",
          "type": "address"
        }
      ],
      "name": "whitelistFiduciario",
      "outputs": [
        {
          "internalType": "bool",
          "name": "",
          "type": "bool"
        }
      ],
      "stateMutability": "view",
      "type": "function"
    }
  ],
  "bytecode": "0x608060405234801561000f575f5ffd5b506040516106b83803806106b883398101604081905261002e916100f7565b610037336100a8565b6001600160a01b0381166100835760405162461bcd60e51b815260206004820152600f60248201526e6669647563696172696f207a65726f60881b604482015260640160405180910390fd5b600380546001600160a01b0319166001600160a01b0392909216919091179055610124565b5f80546001600160a01b038381166001600160a01b0319831681178455604051919092169283917f8be0079c531659141344cd1fd0a4f28419497f9722a3daafe3b4186f6b6457e09190a35050565b5f60208284031215610107575f5ffd5b81516001600160a01b038116811461011d575f5ffd5b9392505050565b610587806101315f395ff3fe608060405234801561000f575f5ffd5b5060043610610090575f3560e01c8063715018a611610063578063715018a61461011e5780638da5cb5b14610126578063ac9b1c6114610136578063e46638e614610158578063f2fde38b1461016b575f5ffd5b8063153b0d1e146100945780632240600c146100a957806353d6fd59146100d957806358722570146100ec575b5f5ffd5b6100a76100a23660046104c6565b61017e565b005b6003546100bc906001600160a01b031681565b6040516001600160a01b0390911681526020015b60405180910390f35b6100a76100e73660046104c6565b61022c565b61010e6100fa3660046104ff565b60026020525f908152604090205460ff1681565b60405190151581526020016100d0565b6100a76102cd565b5f546001600160a01b03166100bc565b61010e6101443660046104ff565b60016020525f908152604090205460ff1681565b61010e610166366004610518565b6102e0565b6100a76101793660046104ff565b61038a565b6003546001600160a01b031633146101cd5760405162461bcd60e51b815260206004820152600d60248201526c4e6f206175746f72697a61646f60981b60448201526064015b60405180910390fd5b6001600160a01b0382165f81815260016020908152604091829020805460ff191685151590811790915591519182527f6a12b3df6cba4203bd7fd06b816789f87de8c594299aed5717ae070fac781bac91015b60405180910390a25050565b6003546001600160a01b031633146102765760405162461bcd60e51b815260206004820152600d60248201526c4e6f206175746f72697a61646f60981b60448201526064016101c4565b6001600160a01b0382165f81815260026020908152604091829020805460ff191685151590811790915591519182527ff93f9a76c1bf3444d22400a00cb9fe990e6abe9dbb333fda48859cfee864543d9101610220565b6102d5610403565b6102de5f61045c565b565b5f6001600160a01b03841615801561030257506003546001600160a01b031633145b1561030f57506001610383565b6001600160a01b0384165f9081526001602052604090205460ff168061034c57506001600160a01b0383165f9081526001602052604090205460ff165b1561035857505f610383565b6001600160a01b0383165f9081526002602052604090205460ff161561038057506001610383565b505f5b9392505050565b610392610403565b6001600160a01b0381166103f75760405162461bcd60e51b815260206004820152602660248201527f4f776e61626c653a206e6577206f776e657220697320746865207a65726f206160448201526564647265737360d01b60648201526084016101c4565b6104008161045c565b50565b5f546001600160a01b031633146102de5760405162461bcd60e51b815260206004820181905260248201527f4f776e61626c653a2063616c6c6572206973206e6f7420746865206f776e657260448201526064016101c4565b5f80546001600160a01b038381166001600160a01b0319831681178455604051919092169283917f8be0079c531659141344cd1fd0a4f28419497f9722a3daafe3b4186f6b6457e09190a35050565b80356001600160a01b03811681146104c1575f5ffd5b919050565b5f5f604083850312156104d7575f5ffd5b6104e0836104ab565b9150602083013580151581146104f4575f5ffd5b809150509250929050565b5f6020828403121561050f575f5ffd5b610383826104ab565b5f5f5f6060848603121561052a575f5ffd5b610533846104ab565b9250610541602085016104ab565b915060408401359050925092509256fea264697066735822122053f8f7e3101f69dc10c35f14f756c0660392ad8e6b11e69ea6b1537d96f335a964736f6c634300081b0033",
  "linkReferences": {},
  "deployedLinkReferences": {}
}