{
  "_format": "hh-sol-artifact-1",
  "contractName": "CampaignModulesFactory",
  "sourceName": "contracts/global/CampaignModulesFactory.sol",
  "abi": [
    {
      "anonymous": false,
      "inputs": [
        {
          "indexed": true,
          "internalType": "uint256",
          "name": "campaignId",
          "type": "uint256"
        },
        {
          "indexed": false,
          "internalType": "address",
          "name": "custody",
          "type": "address"
        }
      ],
      "name": "CustodyDeployed",
      "type": "event"
    },
    {
      "anonymous": false,
      "inputs": [
        {
          "indexed": false,
          "internalType": "uint8",
          "name": "version",
          "type": "uint8"
        }
      ],
      "name": "Initialized",
      "type": "event"
    },
    {
      "anonymous": false,
      "inputs": [
        {
          "indexed": true,
          "internalType": "uint256",
          "name": "campaignId",
          "type": "uint256"
        },
        {
          "indexed": false,
          "internalType": "address",
          "name": "tokenMinter",
          "type": "address"
        },
        {
          "indexed": false,
          "internalType": "address",
          "name": "fideiToken",
          "type": "address"
        },
        {
          "indexed": false,
          "internalType": "address",
          "name": "generalCompliance",
          "type": "address"
        }
      ],
      "name": "ModulesDeployed",
      "type": "event"
    },
    {
      "anonymous": false,
      "inputs": [
        {
          "indexed": true,
          "internalType": "address",
          "name": "previousOwner",
          "type": "address"
        },
        {
          "indexed": true,
          "internalType": "address",
          "name": "newOwner",
          "type": "address"
        }
      ],
      "name": "OwnershipTransferred",
      "type": "event"
    },
    {
      "inputs": [
        {
          "internalType": "uint256",
          "name": "",
          "type": "uint256"
        }
      ],
      "name": "campaignModules",
      "outputs": [
        {
          "internalType": "address",
          "name": "custody",
          "type": "address"
        },
        {
          "internalType": "address",
          "name": "tokenMinter",
          "type": "address"
        },
        {
          "internalType": "address",
          "name": "fideiToken",
          "type": "address"
        },
        {
          "internalType": "address",
          "name": "generalCompliance",
          "type": "address"
        },
        {
          "internalType": "bool",
          "name": "modulesDeployed",
          "type": "bool"
        }
      ],
      "stateMutability": "view",
      "type": "function"
    },
    {
      "inputs": [],
      "name": "certificateRegistry",
      "outputs": [
        {
          "internalType": "contract ICertificateRegistry",
          "name": "",
          "type": "address"
        }
      ],
      "stateMutability": "view",
      "type": "function"
    },
    {
      "inputs": [],
      "name": "core",
      "outputs": [
        {
          "internalType": "contract ICore",
          "name": "",
          "type": "address"
        }
      ],
      "stateMutability": "view",
      "type": "function"
    },
    {
      "inputs": [
        {
          "internalType": "uint256",
          "name": "campaignId",
          "type": "uint256"
        },
        {
          "internalType": "address",
          "name": "fiduciario",
          "type": "address"
        },
        {
          "internalType": "address",
          "name": "auditor",
          "type": "address"
        },
        {
          "internalType": "address",
          "name": "tokenAddress",
          "type": "address"
        }
      ],
      "name": "deployCustody",
      "outputs": [],
      "stateMutability": "nonpayable",
      "type": "function"
    },
    {
      "inputs": [
        {
          "internalType": "uint256",
          "name": "campaignId",
          "type": "uint256"
        },
        {
          "internalType": "address",
          "name": "fiduciario",
          "type": "address"
        },
        {
          "internalType": "string",
          "name": "tokenName",
          "type": "string"
        },
        {
          "internalType": "string",
          "name": "tokenSymbol",
          "type": "string"
        }
      ],
      "name": "deployModules",
      "outputs": [],
      "stateMutability": "nonpayable",
      "type": "function"
    },
    {
      "inputs": [],
      "name": "fiduciaryManager",
      "outputs": [
        {
          "internalType": "contract IFiduciaryManager",
          "name": "",
          "type": "address"
        }
      ],
      "stateMutability": "view",
      "type": "function"
    },
    {
      "inputs": [
        {
          "internalType": "uint256",
          "name": "campaignId",
          "type": "uint256"
        }
      ],
      "name": "finalizeDeployment",
      "outputs": [],
      "stateMutability": "nonpayable",
      "type": "function"
    },
    {
      "inputs": [
        {
          "internalType": "uint256",
          "name": "campaignId",
          "type": "uint256"
        }
      ],
      "name": "getModules",
      "outputs": [
        {
          "components": [
            {
              "internalType": "address",
              "name": "custody",
              "type": "address"
            },
            {
              "internalType": "address",
              "name": "tokenMinter",
              "type": "address"
            },
            {
              "internalType": "address",
              "name": "fideiToken",
              "type": "address"
            },
            {
              "internalType": "address",
              "name": "generalCompliance",
              "type": "address"
            },
            {
              "internalType": "bool",
              "name": "modulesDeployed",
              "type": "bool"
            }
          ],
          "internalType": "struct CampaignModulesFactory.Modules",
          "name": "",
          "type": "tuple"
        }
      ],
      "stateMutability": "view",
      "type": "function"
    },
    {
      "inputs": [],
      "name": "identityRegistry",
      "outputs": [
        {
          "internalType": "address",
          "name": "",
          "type": "address"
        }
      ],
      "stateMutability": "view",
      "type": "function"
    },
    {
      "inputs": [
        {
          "internalType": "address",
          "name": "_core",
          "type": "address"
        },
        {
          "internalType": "address",
          "name": "_identityRegistry",
          "type": "address"
        },
        {
          "internalType": "address",
          "name": "_certificateRegistry",
          "type": "address"
        },
        {
          "internalType": "address",
          "name": "_fiduciaryManager",
          "type": "address"
        }
      ],
      "name": "initialize",
      "outputs": [],
      "stateMutability": "nonpayable",
      "type": "function"
    },
    {
      "inputs": [],
      "name": "owner",
      "outputs": [
        {
          "internalType": "address",
          "name": "",
          "type": "address"
        }
      ],
      "stateMutability": "view",
      "type": "function"
    },
    {
      "inputs": [],
      "name": "renounceOwnership",
      "outputs": [],
      "stateMutability": "nonpayable",
      "type": "function"
    },
    {
      "inputs": [
        {
          "internalType": "address",
          "name": "newOwner",
          "type": "address"
        }
      ],
      "name": "transferOwnership",
      "outputs": [],
      "stateMutability": "nonpayable",
      "type": "function"
    }
  ],
  "bytecode": "0x6080604052348015600e575f5ffd5b50615cb08061001c5f395ff3fe608060405234801561000f575f5ffd5b50600436106100cb575f3560e01c8063946f0b1d11610088578063f2f4eb2611610063578063f2f4eb26146102e0578063f2fde38b146102f3578063f8c8765e14610306578063fa5285a414610319575f5ffd5b8063946f0b1d146102a7578063bae3a7de146102ba578063ced7f449146102cd575f5ffd5b8063134e18f4146100cf5780635a678c05146100ff578063715018a6146101ed578063833eb46c146101f75780638da5cb5b146102835780639155b58714610294575b5f5ffd5b6068546100e2906001600160a01b031681565b6040516001600160a01b0390911681526020015b60405180910390f35b61019c61010d3660046111df565b6040805160a0810182525f80825260208201819052918101829052606081018290526080810191909152505f90815260696020908152604091829020825160a08101845281546001600160a01b03908116825260018301548116938201939093526002820154831693810193909352600301549081166060830152600160a01b900460ff161515608082015290565b6040516100f6919081516001600160a01b0390811682526020808401518216908301526040808401518216908301526060808401519091169082015260809182015115159181019190915260a00190565b6101f561032c565b005b6102486102053660046111df565b60696020525f908152604090208054600182015460028301546003909301546001600160a01b03928316939183169291821691811690600160a01b900460ff1685565b604080516001600160a01b0396871681529486166020860152928516928401929092529092166060820152901515608082015260a0016100f6565b6033546001600160a01b03166100e2565b6101f56102a236600461120a565b61033f565b6101f56102b5366004611323565b6106d2565b6065546100e2906001600160a01b031681565b6066546100e2906001600160a01b031681565b6067546100e2906001600160a01b031681565b6101f56103013660046113a3565b610b30565b6101f56103143660046113c5565b610ba9565b6101f56103273660046111df565b610e4e565b6103346110b5565b61033d5f61110f565b565b6067546040516370399a3360e11b81526004810186905285915f916001600160a01b039091169063e07334669060240161016060405180830381865afa15801561038b573d5f5f3e3d5ffd5b505050506040513d601f19601f820116820180604052508101906103af9190611411565b905060018160c0015160088111156103c9576103c96114be565b146104135760405162461bcd60e51b815260206004820152601560248201527410d85b5c185a59db881b9bdd08185c1c1c9bdd9959605a1b60448201526064015b60405180910390fd5b60655460405163fe39ae9d60e01b81523360048201526001600160a01b039091169063fe39ae9d90602401602060405180830381865afa158015610459573d5f5f3e3d5ffd5b505050506040513d601f19601f8201168201806040525081019061047d91906114d2565b8061049257506033546001600160a01b031633145b6104ae5760405162461bcd60e51b815260040161040a906114f1565b5f868152606960205260409020546001600160a01b0316156105125760405162461bcd60e51b815260206004820152601860248201527f437573746f647920616c7265616479206465706c6f7965640000000000000000604482015260640161040a565b6001600160a01b0385166105685760405162461bcd60e51b815260206004820152601760248201527f4669647563696172696f207a65726f2061646472657373000000000000000000604482015260640161040a565b6001600160a01b0384166105b55760405162461bcd60e51b815260206004820152601460248201527341756469746f72207a65726f206164647265737360601b604482015260640161040a565b6001600160a01b0383166106005760405162461bcd60e51b8152602060048201526012602482015271546f6b656e207a65726f206164647265737360701b604482015260640161040a565b5f83868660675f9054906101000a90046001600160a01b0316604051610625906111b8565b6001600160a01b039485168152928416602084015290831660408301529091166060820152608001604051809103905ff080158015610666573d5f5f3e3d5ffd5b505f8881526069602090815260409182902080546001600160a01b0319166001600160a01b038516908117909155915191825291925088917f46198e397268b3188d1643b35a24dd2907c94204b373f4418ce7528012c691c4910160405180910390a250505050505050565b6067546040516370399a3360e11b81526004810186905285915f916001600160a01b039091169063e07334669060240161016060405180830381865afa15801561071e573d5f5f3e3d5ffd5b505050506040513d601f19601f820116820180604052508101906107429190611411565b905060018160c00151600881111561075c5761075c6114be565b146107a15760405162461bcd60e51b815260206004820152601560248201527410d85b5c185a59db881b9bdd08185c1c1c9bdd9959605a1b604482015260640161040a565b5f868152606960205260409020600301548690600160a01b900460ff161561080b5760405162461bcd60e51b815260206004820152601860248201527f4d6f64756c657320616c7265616479206465706c6f7965640000000000000000604482015260640161040a565b60655460405163fe39ae9d60e01b81523360048201526001600160a01b039091169063fe39ae9d90602401602060405180830381865afa158015610851573d5f5f3e3d5ffd5b505050506040513d601f19601f8201168201806040525081019061087591906114d2565b8061088a57506033546001600160a01b031633145b6108a65760405162461bcd60e51b815260040161040a906114f1565b5f87815260696020526040902080546001600160a01b031661090a5760405162461bcd60e51b815260206004820152601860248201527f437573746f6479206e6f74206465706c6f796564207965740000000000000000604482015260640161040a565b86604051610917906111c5565b6001600160a01b039091168152602001604051809103905ff080158015610940573d5f5f3e3d5ffd5b506003820180546001600160a01b0319166001600160a01b0392831690811790915582546068546066546067546040518c968c96958116959481169493811693921691908e9061098f906111d2565b6109a0989796959493929190611547565b604051809103905ff0801580156109b9573d5f5f3e3d5ffd5b506001820180546001600160a01b0319166001600160a01b039290921691821790556040805163590bd99960e11b8152905163b217b332916004808201926020929091908290030181865afa158015610a14573d5f5f3e3d5ffd5b505050506040513d601f19601f82011682018060405250810190610a3891906115b0565b6002820180546001600160a01b0319166001600160a01b0392831617905560665460018084015460405163797d39c960e11b81529084166004820152602481019190915291169063f2fa7392906044015f604051808303815f87803b158015610a9f575f5ffd5b505af1158015610ab1573d5f5f3e3d5ffd5b50505050600381018054600160a01b60ff60a01b1982161790915560018201546002830154604080516001600160a01b0393841681529183166020830152919092169082015288907f609a5611c6852689ea68f1565685ea800319687ff2d3c4d0c623cf076055c7bf9060600160405180910390a25050505050505050565b610b386110b5565b6001600160a01b038116610b9d5760405162461bcd60e51b815260206004820152602660248201527f4f776e61626c653a206e6577206f776e657220697320746865207a65726f206160448201526564647265737360d01b606482015260840161040a565b610ba68161110f565b50565b5f54610100900460ff1615808015610bc757505f54600160ff909116105b80610be05750303b158015610be057505f5460ff166001145b610c435760405162461bcd60e51b815260206004820152602e60248201527f496e697469616c697a61626c653a20636f6e747261637420697320616c72656160448201526d191e481a5b9a5d1a585b1a5e995960921b606482015260840161040a565b5f805460ff191660011790558015610c64575f805461ff0019166101001790555b610c6c611160565b6001600160a01b038516610cb65760405162461bcd60e51b8152602060048201526011602482015270436f7265207a65726f206164647265737360781b604482015260640161040a565b6001600160a01b038416610d0c5760405162461bcd60e51b815260206004820152601d60248201527f4964656e746974795265676973747279207a65726f2061646472657373000000604482015260640161040a565b6001600160a01b038316610d625760405162461bcd60e51b815260206004820181905260248201527f43657274696669636174655265676973747279207a65726f2061646472657373604482015260640161040a565b6001600160a01b038216610db85760405162461bcd60e51b815260206004820152601d60248201527f4669647563696172794d616e61676572207a65726f2061646472657373000000604482015260640161040a565b606780546001600160a01b038088166001600160a01b031992831617909255606880548784169083161790556066805486841690831617905560658054928516929091169190911790558015610e47575f805461ff0019169055604051600181527f7f26b83ff96e1f2b6a682f133852f6798a09c465da95921460cefb38474024989060200160405180910390a15b5050505050565b60655460405163fe39ae9d60e01b81523360048201526001600160a01b039091169063fe39ae9d90602401602060405180830381865afa158015610e94573d5f5f3e3d5ffd5b505050506040513d601f19601f82011682018060405250810190610eb891906114d2565b80610ecd57506033546001600160a01b031633145b610ee95760405162461bcd60e51b815260040161040a906114f1565b5f8181526069602052604090206003810154600160a01b900460ff16610f515760405162461bcd60e51b815260206004820152601860248201527f4d6f64756c6573206e6f74206465706c6f796564207965740000000000000000604482015260640161040a565b80546001600160a01b0316610f9a5760405162461bcd60e51b815260206004820152600f60248201526e437573746f6479206d697373696e6760881b604482015260640161040a565b60018101546001600160a01b0316610fea5760405162461bcd60e51b8152602060048201526013602482015272546f6b656e4d696e746572206d697373696e6760681b604482015260640161040a565b60038101546001600160a01b03166110445760405162461bcd60e51b815260206004820152601960248201527f47656e6572616c436f6d706c69616e6365206d697373696e6700000000000000604482015260640161040a565b60675481546001830154604051634452ac3960e01b81526001600160a01b0393841693634452ac39936110849388939183169216906002906004016115cb565b5f604051808303815f87803b15801561109b575f5ffd5b505af11580156110ad573d5f5f3e3d5ffd5b505050505050565b6033546001600160a01b0316331461033d5760405162461bcd60e51b815260206004820181905260248201527f4f776e61626c653a2063616c6c6572206973206e6f7420746865206f776e6572604482015260640161040a565b603380546001600160a01b038381166001600160a01b0319831681179093556040519116919082907f8be0079c531659141344cd1fd0a4f28419497f9722a3daafe3b4186f6b6457e0905f90a35050565b5f54610100900460ff166111865760405162461bcd60e51b815260040161040a90611614565b61033d5f54610100900460ff166111af5760405162461bcd60e51b815260040161040a90611614565b61033d3361110f565b6111e38061166083390190565b6106b88061284383390190565b612d8080612efb83390190565b5f602082840312156111ef575f5ffd5b5035919050565b6001600160a01b0381168114610ba6575f5ffd5b5f5f5f5f6080858703121561121d575f5ffd5b84359350602085013561122f816111f6565b9250604085013561123f816111f6565b9150606085013561124f816111f6565b939692955090935050565b634e487b7160e01b5f52604160045260245ffd5b604051610160810167ffffffffffffffff811182821017156112925761129261125a565b60405290565b5f82601f8301126112a7575f5ffd5b813567ffffffffffffffff8111156112c1576112c161125a565b604051601f8201601f19908116603f0116810167ffffffffffffffff811182821017156112f0576112f061125a565b604052818152838201602001851015611307575f5ffd5b816020850160208301375f918101602001919091529392505050565b5f5f5f5f60808587031215611336575f5ffd5b843593506020850135611348816111f6565b9250604085013567ffffffffffffffff811115611363575f5ffd5b61136f87828801611298565b925050606085013567ffffffffffffffff81111561138b575f5ffd5b61139787828801611298565b91505092959194509250565b5f602082840312156113b3575f5ffd5b81356113be816111f6565b9392505050565b5f5f5f5f608085870312156113d8575f5ffd5b84356113e3816111f6565b9350602085013561122f816111f6565b80516113fe816111f6565b919050565b8051600981106113fe575f5ffd5b5f610160828403128015611423575f5ffd5b5061142c61126e565b8251815261143c602084016113f3565b602082015260408381015190820152606080840151908201526080808401519082015260a0808401519082015261147560c08401611403565b60c082015260e0838101519082015261149161010084016113f3565b6101008201526114a461012084016113f3565b610120820152610140928301519281019290925250919050565b634e487b7160e01b5f52602160045260245ffd5b5f602082840312156114e2575f5ffd5b815180151581146113be575f5ffd5b6020808252600e908201526d139bdd08185d5d1a1bdc9a5e995960921b604082015260600190565b5f81518084528060208401602086015e5f602082860101526020601f19601f83011685010191505092915050565b61010081525f61155b61010083018b611519565b828103602084015261156d818b611519565b6001600160a01b03998a16604085015297891660608401525050938616608085015291851660a0840152841660c083015290921660e09092019190915292915050565b5f602082840312156115c0575f5ffd5b81516113be816111f6565b8481526001600160a01b03848116602083015283166040820152608081016009831061160557634e487b7160e01b5f52602160045260245ffd5b82606083015295945050505050565b6020808252602b908201527f496e697469616c697a61626c653a20636f6e7472616374206973206e6f74206960408201526a6e697469616c697a696e6760a81b60608201526080019056fe608060405234801561000f575f5ffd5b506040516111e33803806111e383398101604081905261002e916100f8565b6100373361008e565b60018055600280546001600160a01b039586166001600160a01b0319918216179091556003805494861694821694909417909355600480549285169284169290921790915560058054919093169116179055610149565b5f80546001600160a01b038381166001600160a01b0319831681178455604051919092169283917f8be0079c531659141344cd1fd0a4f28419497f9722a3daafe3b4186f6b6457e09190a35050565b80516001600160a01b03811681146100f3575f5ffd5b919050565b5f5f5f5f6080858703121561010b575f5ffd5b610114856100dd565b9350610122602086016100dd565b9250610130604086016100dd565b915061013e606086016100dd565b905092959194509250565b61108d806101565f395ff3fe608060405234801561000f575f5ffd5b50600436106100fb575f3560e01c80638324e55911610093578063e796a6eb11610063578063e796a6eb14610219578063f2f4eb261461022c578063f2fde38b1461023f578063fe39ae9d14610252575f5ffd5b80638324e559146101cd5780638da5cb5b146101e0578063ae5bd866146101f0578063c71daccb14610203575f5ffd5b80632f48ab7d116100ce5780632f48ab7d1461017f5780633ec045a61461019257806342c549c0146101a5578063715018a6146101c5575f5ffd5b8063125d045e146100ff5780631c376c631461011457806320e6ec49146101415780632240600c14610154575b5f5ffd5b61011261010d366004610dbd565b610284565b005b610127610122366004610de6565b610371565b604051610138959493929190610e3a565b60405180910390f35b61011261014f366004610de6565b6103c1565b600354610167906001600160a01b031681565b6040516001600160a01b039091168152602001610138565b600254610167906001600160a01b031681565b600454610167906001600160a01b031681565b6101b86101b3366004610e6e565b6104da565b6040516101389190610e85565b6101126105ce565b6101126101db366004610f18565b6105e1565b5f546001600160a01b0316610167565b6101126101fe366004610de6565b61079a565b61020b610870565b604051908152602001610138565b610112610227366004610f4a565b6108df565b600554610167906001600160a01b031681565b61011261024d366004610f7d565b6109ab565b610274610260366004610f7d565b6003546001600160a01b0391821691161490565b6040519015158152602001610138565b61028c610a24565b5f8381526006602090815260408083208054825160a081018452818152808501888152938101868152606082018881526080830188815260018086018755958952969097208251600585029091019081559451858501555160028501805491151560ff199283161790559551600380860191909155945160048501805493979296919490939092169190849081111561032757610327610e06565b021790555050604080518581526020810185905283925086917f5035736198336a9889457aea460781c666a92f922986918a2bbe64f6b60c4e28910160405180910390a350505050565b6006602052815f5260405f20818154811061038a575f80fd5b5f9182526020909120600590910201805460018201546002830154600384015460049094015492955090935060ff90811692911685565b6004546001600160a01b031633146103f45760405162461bcd60e51b81526004016103eb90610f9d565b60405180910390fd5b6103fc610a7d565b5f82815260066020526040812080548390811061041b5761041b610fc2565b5f918252602082206005909102019150600482015460ff16600381111561044457610444610e06565b1461048a5760405162461bcd60e51b81526020600482015260166024820152754d696c6573746f6e65206e6f2070656e6469656e746560501b60448201526064016103eb565b6004810180546001919060ff191682805b0217905550604051829084907fadcdfbfd9dbc8b07547936a54d348c5125d879063d978075737ac73fc267f0f6905f90a3506104d660018055565b5050565b6004546060906001600160a01b031633146105075760405162461bcd60e51b81526004016103eb90610f9d565b5f82815260066020908152604080832080548251818502810185019093528083529193909284015b828210156105c2575f8481526020908190206040805160a0810182526005860290920180548352600181015493830193909352600283015460ff908116151591830191909152600380840154606084015260048401549293926080850192169081111561059e5761059e610e06565b60038111156105af576105af610e06565b815250508152602001906001019061052f565b5050505090505b919050565b6105d6610a24565b6105df5f610ad6565b565b6003546001600160a01b0316331461062c5760405162461bcd60e51b815260206004820152600e60248201526d4e6f74206669647563696172696f60901b60448201526064016103eb565b610634610a7d565b5f83815260066020526040812080548490811061065357610653610fc2565b5f9182526020909120600590910201600281015490915060ff16156106a85760405162461bcd60e51b815260206004820152600b60248201526a5961206c6962657261646f60a81b60448201526064016103eb565b6001600482015460ff1660038111156106c3576106c3610e06565b146106fe5760405162461bcd60e51b815260206004820152600b60248201526a4e6f20617564697461646f60a81b60448201526064016103eb565b600181015460025461071d916001600160a01b03909116908490610b25565b6002818101805460ff199081166001908117909255600484018054909116909217909155810154604080516001600160a01b03851681526020810192909252849186917fb37915caa4a2c797e4d82b5b0c330c8c0a66fd621adf72cf62562e84bacb7d27910160405180910390a35061079560018055565b505050565b6004546001600160a01b031633146107c45760405162461bcd60e51b81526004016103eb90610f9d565b6107cc610a7d565b5f8281526006602052604081208054839081106107eb576107eb610fc2565b5f918252602082206005909102019150600482015460ff16600381111561081457610814610e06565b1461085a5760405162461bcd60e51b81526020600482015260166024820152754d696c6573746f6e65206e6f2070656e6469656e746560501b60448201526064016103eb565b6004810180546003919060ff191660018361049b565b6002546040516370a0823160e01b81523060048201525f916001600160a01b0316906370a0823190602401602060405180830381865afa1580156108b6573d5f5f3e3d5ffd5b505050506040513d601f19601f820116820180604052508101906108da9190610fd6565b905090565b6003546001600160a01b031633148061090257506005546001600160a01b031633145b61093f5760405162461bcd60e51b815260206004820152600e60248201526d139bdd08185d5d1a1bdc9a5e995960921b60448201526064016103eb565b610947610a7d565b60025461095e906001600160a01b03168383610b25565b604080516001600160a01b03841681526020810183905284917f7ca5472b7ea78c2c0141c5a12ee6d170cf4ce8ed06be3d22c8252ddfc7a6a2c4910160405180910390a261079560018055565b6109b3610a24565b6001600160a01b038116610a185760405162461bcd60e51b815260206004820152602660248201527f4f776e61626c653a206e6577206f776e657220697320746865207a65726f206160448201526564647265737360d01b60648201526084016103eb565b610a2181610ad6565b50565b5f546001600160a01b031633146105df5760405162461bcd60e51b815260206004820181905260248201527f4f776e61626c653a2063616c6c6572206973206e6f7420746865206f776e657260448201526064016103eb565b600260015403610acf5760405162461bcd60e51b815260206004820152601f60248201527f5265656e7472616e637947756172643a207265656e7472616e742063616c6c0060448201526064016103eb565b6002600155565b5f80546001600160a01b038381166001600160a01b0319831681178455604051919092169283917f8be0079c531659141344cd1fd0a4f28419497f9722a3daafe3b4186f6b6457e09190a35050565b604080516001600160a01b03848116602483015260448083018590528351808403909101815260649092018352602080830180516001600160e01b031663a9059cbb60e01b17905283518085019094528084527f5361666545524332303a206c6f772d6c6576656c2063616c6c206661696c656490840152610795928692915f91610bb4918516908490610c33565b905080515f1480610bd4575080806020019051810190610bd49190610fed565b6107955760405162461bcd60e51b815260206004820152602a60248201527f5361666545524332303a204552433230206f7065726174696f6e20646964206e6044820152691bdd081cdd58d8d9595960b21b60648201526084016103eb565b6060610c4184845f85610c49565b949350505050565b606082471015610caa5760405162461bcd60e51b815260206004820152602660248201527f416464726573733a20696e73756666696369656e742062616c616e636520666f6044820152651c8818d85b1b60d21b60648201526084016103eb565b5f5f866001600160a01b03168587604051610cc5919061100c565b5f6040518083038185875af1925050503d805f8114610cff576040519150601f19603f3d011682016040523d82523d5f602084013e610d04565b606091505b5091509150610d1587838387610d20565b979650505050505050565b60608315610d8e5782515f03610d87576001600160a01b0385163b610d875760405162461bcd60e51b815260206004820152601d60248201527f416464726573733a2063616c6c20746f206e6f6e2d636f6e747261637400000060448201526064016103eb565b5081610c41565b610c418383815115610da35781518083602001fd5b8060405162461bcd60e51b81526004016103eb9190611022565b5f5f5f60608486031215610dcf575f5ffd5b505081359360208301359350604090920135919050565b5f5f60408385031215610df7575f5ffd5b50508035926020909101359150565b634e487b7160e01b5f52602160045260245ffd5b60048110610e3657634e487b7160e01b5f52602160045260245ffd5b9052565b8581526020810185905283151560408201526060810183905260a08101610e646080830184610e1a565b9695505050505050565b5f60208284031215610e7e575f5ffd5b5035919050565b602080825282518282018190525f918401906040840190835b81811015610ef757835180518452602081015160208501526040810151151560408501526060810151606085015260808101519050610ee06080850182610e1a565b506020939093019260a09290920191600101610e9e565b509095945050505050565b80356001600160a01b03811681146105c9575f5ffd5b5f5f5f60608486031215610f2a575f5ffd5b8335925060208401359150610f4160408501610f02565b90509250925092565b5f5f5f60608486031215610f5c575f5ffd5b83359250610f6c60208501610f02565b929592945050506040919091013590565b5f60208284031215610f8d575f5ffd5b610f9682610f02565b9392505050565b6020808252600b908201526a2737ba1030bab234ba37b960a91b604082015260600190565b634e487b7160e01b5f52603260045260245ffd5b5f60208284031215610fe6575f5ffd5b5051919050565b5f60208284031215610ffd575f5ffd5b81518015158114610f96575f5ffd5b5f82518060208501845e5f920191825250919050565b602081525f82518060208401528060208501604085015e5f604082850101526040601f19601f8301168401019150509291505056fea2646970667358221220e229cff363d9bc4cd33036e8949a9467df903ec446187fcfc70bb8e70af62a8864736f6c634300081b0033608060405234801561000f575f5ffd5b506040516106b83803806106b883398101604081905261002e916100f7565b610037336100a8565b6001600160a01b0381166100835760405162461bcd60e51b815260206004820152600f60248201526e6669647563696172696f207a65726f60881b604482015260640160405180910390fd5b600380546001600160a01b0319166001600160a01b0392909216919091179055610124565b5f80546001600160a01b038381166001600160a01b0319831681178455604051919092169283917f8be0079c531659141344cd1fd0a4f28419497f9722a3daafe3b4186f6b6457e09190a35050565b5f60208284031215610107575f5ffd5b81516001600160a01b038116811461011d575f5ffd5b9392505050565b610587806101315f395ff3fe608060405234801561000f575f5ffd5b5060043610610090575f3560e01c8063715018a611610063578063715018a61461011e5780638da5cb5b14610126578063ac9b1c6114610136578063e46638e614610158578063f2fde38b1461016b575f5ffd5b8063153b0d1e146100945780632240600c146100a957806353d6fd59146100d957806358722570146100ec575b5f5ffd5b6100a76100a23660046104c6565b61017e565b005b6003546100bc906001600160a01b031681565b6040516001600160a01b0390911681526020015b60405180910390f35b6100a76100e73660046104c6565b61022c565b61010e6100fa3660046104ff565b60026020525f908152604090205460ff1681565b60405190151581526020016100d0565b6100a76102cd565b5f546001600160a01b03166100bc565b61010e6101443660046104ff565b60016020525f908152604090205460ff1681565b61010e610166366004610518565b6102e0565b6100a76101793660046104ff565b61038a565b6003546001600160a01b031633146101cd5760405162461bcd60e51b815260206004820152600d60248201526c4e6f206175746f72697a61646f60981b60448201526064015b60405180910390fd5b6001600160a01b0382165f81815260016020908152604091829020805460ff191685151590811790915591519182527f6a12b3df6cba4203bd7fd06b816789f87de8c594299aed5717ae070fac781bac91015b60405180910390a25050565b6003546001600160a01b031633146102765760405162461bcd60e51b815260206004820152600d60248201526c4e6f206175746f72697a61646f60981b60448201526064016101c4565b6001600160a01b0382165f81815260026020908152604091829020805460ff191685151590811790915591519182527ff93f9a76c1bf3444d22400a00cb9fe990e6abe9dbb333fda48859cfee864543d9101610220565b6102d5610403565b6102de5f61045c565b565b5f6001600160a01b03841615801561030257506003546001600160a01b031633145b1561030f57506001610383565b6001600160a01b0384165f9081526001602052604090205460ff168061034c57506001600160a01b0383165f9081526001602052604090205460ff165b1561035857505f610383565b6001600160a01b0383165f9081526002602052604090205460ff161561038057506001610383565b505f5b9392505050565b610392610403565b6001600160a01b0381166103f75760405162461bcd60e51b815260206004820152602660248201527f4f776e61626c653a206e6577206f776e657220697320746865207a65726f206160448201526564647265737360d01b60648201526084016101c4565b6104008161045c565b50565b5f546001600160a01b031633146102de5760405162461bcd60e51b815260206004820181905260248201527f4f776e61626c653a2063616c6c6572206973206e6f7420746865206f776e657260448201526064016101c4565b5f80546001600160a01b038381166001600160a01b0319831681178455604051919092169283917f8be0079c531659141344cd1fd0a4f28419497f9722a3daafe3b4186f6b6457e09190a35050565b80356001600160a01b03811681146104c1575f5ffd5b919050565b5f5f604083850312156104d7575f5ffd5b6104e0836104ab565b9150602083013580151581146104f4575f5ffd5b809150509250929050565b5f6020828403121561050f575f5ffd5b610383826104ab565b5f5f5f6060848603121561052a575f5ffd5b610533846104ab565b9250610541602085016104ab565b915060408401359050925092509256fea264697066735822122053f8f7e3101f69dc10c35f14f756c0660392ad8e6b11e69ea6b1537d96f335a964736f6c634300081b0033608060405234801561000f575f5ffd5b50604051612d80380380612d8083398101604081905261002e91610248565b61003733610134565b60018081905550878786848460405161004f90610183565b61005d95949392919061033c565b604051809103905ff080158015610076573d5f5f3e3d5ffd5b50600280546001600160a01b03199081166001600160a01b039384169081179092556009805482168585169081179091556008805483168b86161790556005805483168a86161790556006805483168986161790556007805490921693871693909317905560405163f2fde38b60e01b815260048101929092529063f2fde38b906024015f604051808303815f87803b158015610111575f5ffd5b505af1158015610123573d5f5f3e3d5ffd5b50505050505050505050505061038b565b5f80546001600160a01b038381166001600160a01b0319831681178455604051919092169283917f8be0079c531659141344cd1fd0a4f28419497f9722a3daafe3b4186f6b6457e09190a35050565b61208180610cff83390190565b634e487b7160e01b5f52604160045260245ffd5b5f82601f8301126101b3575f5ffd5b81516001600160401b038111156101cc576101cc610190565b604051601f8201601f19908116603f011681016001600160401b03811182821017156101fa576101fa610190565b604052818152838201602001851015610211575f5ffd5b8160208501602083015e5f918101602001919091529392505050565b80516001600160a01b0381168114610243575f5ffd5b919050565b5f5f5f5f5f5f5f5f610100898b031215610260575f5ffd5b88516001600160401b03811115610275575f5ffd5b6102818b828c016101a4565b60208b015190995090506001600160401b0381111561029e575f5ffd5b6102aa8b828c016101a4565b9750506102b960408a0161022d565b95506102c760608a0161022d565b94506102d560808a0161022d565b93506102e360a08a0161022d565b92506102f160c08a0161022d565b91506102ff60e08a0161022d565b90509295985092959890939650565b5f81518084528060208401602086015e5f602082860101526020601f19601f83011685010191505092915050565b60a081525f61034e60a083018861030e565b8281036020840152610360818861030e565b6001600160a01b03968716604085015294861660608401525050921660809092019190915292915050565b610967806103985f395ff3fe608060405234801561000f575f5ffd5b50600436106100b1575f3560e01c8063bae3a7de1161006e578063bae3a7de14610137578063ced7f4491461014a578063dda79b751461015d578063e1b5655b14610170578063f2f4eb2614610183578063f2fde38b14610196575f5ffd5b80630d0d006a146100b5578063134e18f4146100ca5780632240600c146100f9578063715018a61461010c5780638da5cb5b14610114578063b217b33214610124575b5f5ffd5b6100c86100c33660046107e7565b6101a9565b005b6005546100dd906001600160a01b031681565b6040516001600160a01b03909116815260200160405180910390f35b6009546100dd906001600160a01b031681565b6100c8610646565b5f546001600160a01b03166100dd565b6002546100dd906001600160a01b031681565b6003546100dd906001600160a01b031681565b6006546100dd906001600160a01b031681565b6004546100dd906001600160a01b031681565b6008546100dd906001600160a01b031681565b6007546100dd906001600160a01b031681565b6100c86101a436600461081c565b610659565b6008546001600160a01b03163314806101cc57506007546001600160a01b031633145b8061023c575060085460405163fe39ae9d60e01b81523360048201526001600160a01b039091169063fe39ae9d90602401602060405180830381865afa158015610218573d5f5f3e3d5ffd5b505050506040513d601f19601f8201168201806040525081019061023c9190610852565b61027e5760405162461bcd60e51b815260206004820152600e60248201526d139bdd08185d5d1a1bdc9a5e995960921b60448201526064015b60405180910390fd5b6102866106d2565b60055460405163b9209e3360e01b81526001600160a01b0380851660048301528492169063b9209e3390602401602060405180830381865afa1580156102ce573d5f5f3e3d5ffd5b505050506040513d601f19601f820116820180604052508101906102f29190610852565b6103365760405162461bcd60e51b8152602060048201526015602482015274125b9d995cdd1bdc881b9bdd081d995c9a599a5959605a1b6044820152606401610275565b6006546040516328b207f760e11b8152600481018690525f918291829182916001600160a01b03909116906351640fee9060240160e060405180830381865afa158015610385573d5f5f3e3d5ffd5b505050506040513d601f19601f820116820180604052508101906103a9919061086b565b9650509550955095505050806103f85760405162461bcd60e51b8152602060048201526014602482015273436572746966696361746520696e61637469766560601b6044820152606401610275565b5f831161043d5760405162461bcd60e51b8152602060048201526013602482015272496e76616c696420636572746966696361746560681b6044820152606401610275565b838610156104995760405162461bcd60e51b815260206004820152602360248201527f4465706f73697420746f6f206c6f7720666f72206f6e6520636572746966696360448201526261746560e81b6064820152608401610275565b5f6104a485886108e2565b9050836104b18285610901565b11156104ff5760405162461bcd60e51b815260206004820152601e60248201527f4578636565647320617661696c61626c652063657274696669636174657300006044820152606401610275565b5f61050a868361091a565b61051c90670de0b6b3a764000061091a565b6002546040516340c10f1960e01b81526001600160a01b038c81166004830152602482018490529293509116906340c10f19906044015f604051808303815f87803b158015610569575f5ffd5b505af115801561057b573d5f5f3e3d5ffd5b50506006546001600160a01b03169150635b4b9d3f90508b61059d8588610901565b6040516001600160e01b031960e085901b168152600481019290925260248201526044015f604051808303815f87803b1580156105d8575f5ffd5b505af11580156105ea573d5f5f3e3d5ffd5b50505050886001600160a01b03167fb9144c96c86541f6fa89c9f2f02495cccf4b08cd6643e26d34ee00aa586558a88260405161062991815260200190565b60405180910390a25050505050505061064160018055565b505050565b61064e61072b565b6106575f610784565b565b61066161072b565b6001600160a01b0381166106c65760405162461bcd60e51b815260206004820152602660248201527f4f776e61626c653a206e6577206f776e657220697320746865207a65726f206160448201526564647265737360d01b6064820152608401610275565b6106cf81610784565b50565b6002600154036107245760405162461bcd60e51b815260206004820152601f60248201527f5265656e7472616e637947756172643a207265656e7472616e742063616c6c006044820152606401610275565b6002600155565b5f546001600160a01b031633146106575760405162461bcd60e51b815260206004820181905260248201527f4f776e61626c653a2063616c6c6572206973206e6f7420746865206f776e65726044820152606401610275565b5f80546001600160a01b038381166001600160a01b0319831681178455604051919092169283917f8be0079c531659141344cd1fd0a4f28419497f9722a3daafe3b4186f6b6457e09190a35050565b6001600160a01b03811681146106cf575f5ffd5b5f5f5f606084860312156107f9575f5ffd5b83359250602084013561080b816107d3565b929592945050506040919091013590565b5f6020828403121561082c575f5ffd5b8135610837816107d3565b9392505050565b8051801515811461084d575f5ffd5b919050565b5f60208284031215610862575f5ffd5b6108378261083e565b5f5f5f5f5f5f5f60e0888a031215610881575f5ffd5b8751602089015160408a015160608b015160808c015160a08d0151949b50929950909750955093506108b2816107d3565b91506108c060c0890161083e565b905092959891949750929550565b634e487b7160e01b5f52601160045260245ffd5b5f826108fc57634e487b7160e01b5f52601260045260245ffd5b500490565b80820180821115610914576109146108ce565b92915050565b8082028115828204841417610914576109146108ce56fea2646970667358221220353db6f78326fc5db52b6398fbc5eda325dd9cfd9da768888eb209a3a15724ec64736f6c634300081b0033608060405234801561000f575f5ffd5b5060405161208138038061208183398101604081905261002e9161022c565b8484600361003c8382610345565b5060046100498282610345565b50505061006261005d61011f60201b60201c565b610123565b6009805460ff60a01b191690556001600160a01b0383161580159061008f57506001600160a01b03821615155b6100ce5760405162461bcd60e51b815260206004820152600c60248201526b5a65726f206164647265737360a01b604482015260640160405180910390fd5b600a80546001600160a01b03199081166001600160a01b0395861617909155600b805490911692841692909217909155165f908152600e60205260409020805460ff19166001179055506103ff9050565b3390565b600980546001600160a01b038381166001600160a01b0319831681179093556040519116919082907f8be0079c531659141344cd1fd0a4f28419497f9722a3daafe3b4186f6b6457e0905f90a35050565b634e487b7160e01b5f52604160045260245ffd5b5f82601f830112610197575f5ffd5b81516001600160401b038111156101b0576101b0610174565b604051601f8201601f19908116603f011681016001600160401b03811182821017156101de576101de610174565b6040528181528382016020018510156101f5575f5ffd5b8160208501602083015e5f918101602001919091529392505050565b80516001600160a01b0381168114610227575f5ffd5b919050565b5f5f5f5f5f60a08688031215610240575f5ffd5b85516001600160401b03811115610255575f5ffd5b61026188828901610188565b602088015190965090506001600160401b0381111561027e575f5ffd5b61028a88828901610188565b94505061029960408701610211565b92506102a760608701610211565b91506102b560808701610211565b90509295509295909350565b600181811c908216806102d557607f821691505b6020821081036102f357634e487b7160e01b5f52602260045260245ffd5b50919050565b601f82111561034057805f5260205f20601f840160051c8101602085101561031e5750805b601f840160051c820191505b8181101561033d575f815560010161032a565b50505b505050565b81516001600160401b0381111561035e5761035e610174565b6103728161036c84546102c1565b846102f9565b6020601f8211600181146103a4575f831561038d5750848201515b5f19600385901b1c1916600184901b17845561033d565b5f84815260208120601f198516915b828110156103d357878501518255602094850194600190920191016103b3565b50848210156103f057868401515f19600387901b60f8161c191681555b50505050600190811b01905550565b611c758061040c5f395ff3fe608060405234801561000f575f5ffd5b50600436106101c6575f3560e01c806370a08231116100fe578063981b24d01161009e578063bf120ae51161006e578063bf120ae5146103d5578063cfb3647b146103e8578063dd62ed3e146103fb578063f2fde38b1461040e575f5ffd5b8063981b24d014610394578063a457c2d7146103a7578063a9059cbb146103ba578063b3d3d37e146103cd575f5ffd5b80637aaa7024116100d95780637aaa70241461034657806389021456146103685780638da5cb5b1461037b57806395d89b411461038c575f5ffd5b806370a0823114610303578063715018a61461032b57806378533e9014610333575f5ffd5b8063313ce567116101695780634ee2cd7e116101445780634ee2cd7e146102b857806358609754146102cb5780635c975abb146102de5780636290865d146102f0575f5ffd5b8063313ce56714610283578063395093511461029257806340c10f19146102a5575f5ffd5b8063179fe952116101a4578063179fe9521461023657806318160ddd1461024b5780631e9a69501461025d57806323b872dd14610270575f5ffd5b806306fdde03146101ca578063095ea7b3146101e8578063134e18f41461020b575b5f5ffd5b6101d2610421565b6040516101df9190611965565b60405180910390f35b6101fb6101f63660046119b0565b6104b1565b60405190151581526020016101df565b600a5461021e906001600160a01b031681565b6040516001600160a01b0390911681526020016101df565b6102496102443660046119e5565b6104ca565b005b6002545b6040519081526020016101df565b61024961026b3660046119b0565b610531565b6101fb61027e366004611a1a565b6105a9565b604051601281526020016101df565b6101fb6102a03660046119b0565b6105cc565b6102496102b33660046119b0565b6105ed565b61024f6102c63660046119b0565b6107cd565b6102496102d93660046119b0565b610824565b600954600160a01b900460ff166101fb565b600b5461021e906001600160a01b031681565b61024f610311366004611a54565b6001600160a01b03165f9081526020819052604090205490565b6102496108e2565b610249610341366004611a54565b6108f5565b6101fb610354366004611a54565b600e6020525f908152604090205460ff1681565b610249610376366004611a6d565b610964565b6009546001600160a01b031661021e565b6101d26109e1565b61024f6103a2366004611b02565b6109f0565b6101fb6103b53660046119b0565b610a19565b6101fb6103c83660046119b0565b610a93565b61024f610aa0565b6102496103e33660046119e5565b610ab6565b600c5461021e906001600160a01b031681565b61024f610409366004611b19565b610b15565b61024961041c366004611a54565b610b3f565b60606003805461043090611b4a565b80601f016020809104026020016040519081016040528092919081815260200182805461045c90611b4a565b80156104a75780601f1061047e576101008083540402835291602001916104a7565b820191905f5260205f20905b81548152906001019060200180831161048a57829003601f168201915b5050505050905090565b5f336104be818585610bb8565b60019150505b92915050565b6104d2610cdc565b6001600160a01b0382165f818152600e6020908152604091829020805460ff191685151590811790915591519182527f4629abb9bd05549eb320f0c5770e4baa4dbe57f4efc06d1efb10fdea3bf7c2c891015b60405180910390a25050565b610539610cdc565b610541610d36565b600f805460ff191660011790556105588282610d83565b600f805460ff19169055604080516001600160a01b0384168152602081018390527f796df9b82865aa9d1ce0215cea14c206df7c5a77d036ffbbf858964e2457817691015b60405180910390a15050565b5f336105b6858285610ebb565b6105c1858585610f33565b506001949350505050565b5f336104be8185856105de8383610b15565b6105e89190611b96565b610bb8565b6009546001600160a01b03163314806106105750600c546001600160a01b031633145b6106525760405162461bcd60e51b815260206004820152600e60248201526d139bdd08185d5d1a1bdc9a5e995960921b60448201526064015b60405180910390fd5b61065a610d36565b600a5460405163b9209e3360e01b81526001600160a01b0384811660048301529091169063b9209e3390602401602060405180830381865afa1580156106a2573d5f5f3e3d5ffd5b505050506040513d601f19601f820116820180604052508101906106c69190611ba9565b6107045760405162461bcd60e51b815260206004820152600f60248201526e4b5943206e6f206170726f6261646f60881b6044820152606401610649565b600b546040516372331c7360e11b81525f60048201526001600160a01b038481166024830152604482018490529091169063e46638e690606401602060405180830381865afa158015610759573d5f5f3e3d5ffd5b505050506040513d601f19601f8201168201806040525081019061077d9190611ba9565b6107bf5760405162461bcd60e51b8152602060048201526013602482015272436f6d706c69616e636520696e76616c69646f60681b6044820152606401610649565b6107c982826110e0565b5050565b6001600160a01b0382165f908152600560205260408120819081906107f39085906111a8565b9150915081610819576001600160a01b0385165f9081526020819052604090205461081b565b805b95945050505050565b335f908152600e602052604090205460ff166108825760405162461bcd60e51b815260206004820152601b60248201527f4e6f206175746f72697a61646f2070617261207265636f7665727900000000006044820152606401610649565b600f805460ff191660011790556108998282610d83565b600f805460ff19169055604080516001600160a01b0384168152602081018390527f36bc4af31446add1a5548a0d9a923613fec78c19bde6343a41450a27b574584d910161059d565b6108ea610cdc565b6108f35f611298565b565b6108fd610cdc565b6001600160a01b0381166109425760405162461bcd60e51b815260206004820152600c60248201526b5a65726f206164647265737360a01b6044820152606401610649565b600c80546001600160a01b0319166001600160a01b0392909216919091179055565b61096c610cdc565b600f805460ff19166001179055610984858585610f33565b600f805460ff191690556040516001600160a01b0380861691908716907f2eaee783069d2f4cc557477a5af4ed6420985b57c0f64b600e0601415b580ba0906109d290879087908790611bc4565b60405180910390a35050505050565b60606004805461043090611b4a565b5f5f5f6109fe8460066111a8565b9150915081610a0f57600254610a11565b805b949350505050565b5f3381610a268286610b15565b905083811015610a865760405162461bcd60e51b815260206004820152602560248201527f45524332303a2064656372656173656420616c6c6f77616e63652062656c6f77604482015264207a65726f60d81b6064820152608401610649565b6105c18286868403610bb8565b5f336104be818585610f33565b5f610aa9610cdc565b610ab16112e9565b905090565b610abe610cdc565b6001600160a01b0382165f818152600d6020908152604091829020805460ff191685151590811790915591519182527fa33e6b076d391e96626483b30e365719f79f1d6594aff6587649ffd6c82ed7fa9101610525565b6001600160a01b039182165f90815260016020908152604080832093909416825291909152205490565b610b47610cdc565b6001600160a01b038116610bac5760405162461bcd60e51b815260206004820152602660248201527f4f776e61626c653a206e6577206f776e657220697320746865207a65726f206160448201526564647265737360d01b6064820152608401610649565b610bb581611298565b50565b6001600160a01b038316610c1a5760405162461bcd60e51b8152602060048201526024808201527f45524332303a20617070726f76652066726f6d20746865207a65726f206164646044820152637265737360e01b6064820152608401610649565b6001600160a01b038216610c7b5760405162461bcd60e51b815260206004820152602260248201527f45524332303a20617070726f766520746f20746865207a65726f206164647265604482015261737360f01b6064820152608401610649565b6001600160a01b038381165f8181526001602090815260408083209487168084529482529182902085905590518481527f8c5be1e5ebec7d5bd14f71427d1e84f3dd0314c0f7b2291e5b200ac8c7c3b92591015b60405180910390a3505050565b6009546001600160a01b031633146108f35760405162461bcd60e51b815260206004820181905260248201527f4f776e61626c653a2063616c6c6572206973206e6f7420746865206f776e65726044820152606401610649565b600954600160a01b900460ff16156108f35760405162461bcd60e51b815260206004820152601060248201526f14185d5cd8589b194e881c185d5cd95960821b6044820152606401610649565b6001600160a01b038216610de35760405162461bcd60e51b815260206004820152602160248201527f45524332303a206275726e2066726f6d20746865207a65726f206164647265736044820152607360f81b6064820152608401610649565b610dee825f83611341565b6001600160a01b0382165f9081526020819052604090205481811015610e615760405162461bcd60e51b815260206004820152602260248201527f45524332303a206275726e20616d6f756e7420657863656564732062616c616e604482015261636560f01b6064820152608401610649565b6001600160a01b0383165f818152602081815260408083208686039055600280548790039055518581529192917fddf252ad1be2c89b69c2b068fc378daa952ba7f163c4a11628f55a4df523b3ef9101610ccf565b505050565b5f610ec68484610b15565b90505f198114610f2d5781811015610f205760405162461bcd60e51b815260206004820152601d60248201527f45524332303a20696e73756666696369656e7420616c6c6f77616e63650000006044820152606401610649565b610f2d8484848403610bb8565b50505050565b6001600160a01b038316610f975760405162461bcd60e51b815260206004820152602560248201527f45524332303a207472616e736665722066726f6d20746865207a65726f206164604482015264647265737360d81b6064820152608401610649565b6001600160a01b038216610ff95760405162461bcd60e51b815260206004820152602360248201527f45524332303a207472616e7366657220746f20746865207a65726f206164647260448201526265737360e81b6064820152608401610649565b611004838383611341565b6001600160a01b0383165f908152602081905260409020548181101561107b5760405162461bcd60e51b815260206004820152602660248201527f45524332303a207472616e7366657220616d6f756e7420657863656564732062604482015265616c616e636560d01b6064820152608401610649565b6001600160a01b038481165f81815260208181526040808320878703905593871680835291849020805487019055925185815290927fddf252ad1be2c89b69c2b068fc378daa952ba7f163c4a11628f55a4df523b3ef910160405180910390a3610f2d565b6001600160a01b0382166111365760405162461bcd60e51b815260206004820152601f60248201527f45524332303a206d696e7420746f20746865207a65726f2061646472657373006044820152606401610649565b6111415f8383611341565b8060025f8282546111529190611b96565b90915550506001600160a01b0382165f81815260208181526040808320805486019055518481527fddf252ad1be2c89b69c2b068fc378daa952ba7f163c4a11628f55a4df523b3ef910160405180910390a35050565b5f5f5f84116111f25760405162461bcd60e51b815260206004820152601660248201527504552433230536e617073686f743a20696420697320360541b6044820152606401610649565b6111fa61177f565b8411156112495760405162461bcd60e51b815260206004820152601d60248201527f4552433230536e617073686f743a206e6f6e6578697374656e742069640000006044820152606401610649565b5f6112548486611789565b8454909150810361126b575f5f9250925050611291565b600184600101828154811061128257611282611bf9565b905f5260205f20015492509250505b9250929050565b600980546001600160a01b038381166001600160a01b0319831681179093556040519116919082907f8be0079c531659141344cd1fd0a4f28419497f9722a3daafe3b4186f6b6457e0905f90a35050565b5f6112f8600880546001019055565b5f61130161177f565b90507f8030e83b04d87bef53480e26263266d6ca66863aa8506aca6f2559d18aa1cb678160405161133491815260200190565b60405180910390a1919050565b600954600160a01b900460ff161561138f5760405162461bcd60e51b8152602060048201526011602482015270436f6e747261746f20656e20706175736160781b6044820152606401610649565b61139a83838361182f565b6001600160a01b03831615806113b757506001600160a01b038216155b156113c157505050565b600f5460ff16156113d157505050565b6009546001600160a01b03848116911614806113fb5750335f908152600e602052604090205460ff165b8061141357506009546001600160a01b038381169116145b8061142c5750335f908152600e602052604090205460ff165b6114955760405162461bcd60e51b815260206004820152603460248201527f5472616e73666572656e6369617320646972656374617320656e747265207573604482015273756172696f73206e6f207065726d69746964617360601b6064820152608401610649565b6001600160a01b0383165f908152600d602052604090205460ff16156114fd5760405162461bcd60e51b815260206004820152601760248201527f4375656e7461206f726967656e20636f6e67656c6164610000000000000000006044820152606401610649565b600a5460405163b9209e3360e01b81526001600160a01b0385811660048301529091169063b9209e3390602401602060405180830381865afa158015611545573d5f5f3e3d5ffd5b505050506040513d601f19601f820116820180604052508101906115699190611ba9565b6115a65760405162461bcd60e51b815260206004820152600e60248201526d4f726967656e2073696e204b594360901b6044820152606401610649565b6001600160a01b0382165f908152600d602052604090205460ff161561160e5760405162461bcd60e51b815260206004820152601860248201527f4375656e74612064657374696e6f20636f6e67656c61646100000000000000006044820152606401610649565b600a5460405163b9209e3360e01b81526001600160a01b0384811660048301529091169063b9209e3390602401602060405180830381865afa158015611656573d5f5f3e3d5ffd5b505050506040513d601f19601f8201168201806040525081019061167a9190611ba9565b6116b85760405162461bcd60e51b815260206004820152600f60248201526e44657374696e6f2073696e204b594360881b6044820152606401610649565b600b546040516372331c7360e11b81526001600160a01b0385811660048301528481166024830152604482018490529091169063e46638e690606401602060405180830381865afa15801561170f573d5f5f3e3d5ffd5b505050506040513d601f19601f820116820180604052508101906117339190611ba9565b610eb65760405162461bcd60e51b815260206004820181905260248201527f436f6d706c69616e636520626c6f7175656f207472616e73666572656e6369616044820152606401610649565b5f610ab160085490565b81545f90810361179a57505f6104c4565b82545f905b808210156117e4575f6117b28383611877565b5f87815260209020909150859082015411156117d0578091506117de565b6117db816001611b96565b92505b5061179f565b5f8211801561180e57508361180b866117fe600186611c0d565b5f91825260209091200190565b54145b156118275761181e600183611c0d565b925050506104c4565b5090506104c4565b6001600160a01b03831661184e5761184682611898565b610eb66118c9565b6001600160a01b0382166118655761184683611898565b61186e83611898565b610eb682611898565b5f6118856002848418611c20565b61189190848416611b96565b9392505050565b6001600160a01b0381165f9081526005602090815260408083209183905290912054610bb591906118d7565b6118d7565b6108f360066118c460025490565b5f6118e061177f565b9050806118ec8461191f565b1015610eb6578254600180820185555f858152602080822090930193909355938401805494850181558252902090910155565b80545f90810361193057505f919050565b8154829061194090600190611c0d565b8154811061195057611950611bf9565b905f5260205f2001549050919050565b919050565b602081525f82518060208401528060208501604085015e5f604082850101526040601f19601f83011684010191505092915050565b80356001600160a01b0381168114611960575f5ffd5b5f5f604083850312156119c1575f5ffd5b6119ca8361199a565b946020939093013593505050565b8015158114610bb5575f5ffd5b5f5f604083850312156119f6575f5ffd5b6119ff8361199a565b91506020830135611a0f816119d8565b809150509250929050565b5f5f5f60608486031215611a2c575f5ffd5b611a358461199a565b9250611a436020850161199a565b929592945050506040919091013590565b5f60208284031215611a64575f5ffd5b6118918261199a565b5f5f5f5f5f60808688031215611a81575f5ffd5b611a8a8661199a565b9450611a986020870161199a565b935060408601359250606086013567ffffffffffffffff811115611aba575f5ffd5b8601601f81018813611aca575f5ffd5b803567ffffffffffffffff811115611ae0575f5ffd5b886020828401011115611af1575f5ffd5b959894975092955050506020019190565b5f60208284031215611b12575f5ffd5b5035919050565b5f5f60408385031215611b2a575f5ffd5b611b338361199a565b9150611b416020840161199a565b90509250929050565b600181811c90821680611b5e57607f821691505b602082108103611b7c57634e487b7160e01b5f52602260045260245ffd5b50919050565b634e487b7160e01b5f52601160045260245ffd5b808201808211156104c4576104c4611b82565b5f60208284031215611bb9575f5ffd5b8151611891816119d8565b83815260406020820152816040820152818360608301375f818301606090810191909152601f909201601f1916010192915050565b634e487b7160e01b5f52603260045260245ffd5b818103818111156104c4576104c4611b82565b5f82611c3a57634e487b7160e01b5f52601260045260245ffd5b50049056fea264697066735822122038d2b24718d5e1fda1beb9bdd3b2f8242738439814e425377787d597b18aba6064736f6c634300081b0033a26469706673582212204add5912d230820131e2d40c522c766bb8ebaaedb5e925d564ced65651f7049164736f6c634300081b0033",
  "linkReferences": {},
  "deployedLinkReferences": {}
}