{
  "_format": "hh-sol-artifact-1",
  "contractName": "CertificateRegistry",
  "sourceName": "contracts/global/CertificateRegistry.sol",
  "abi": [
    {
      "anonymous": false,
      "inputs": [
        {
          "indexed": true,
          "internalType": "uint256",
          "name": "id",
          "type": "uint256"
        },
        {
          "indexed": true,
          "internalType": "uint256",
          "name": "campaignId",
          "type": "uint256"
        },
        {
          "indexed": false,
          "internalType": "uint256",
          "name": "totalCertificates",
          "type": "uint256"
        },
        {
          "indexed": true,
          "internalType": "address",
          "name": "fiduciary",
          "type": "address"
        }
      ],
      "name": "CertificateCreated",
      "type": "event"
    },
    {
      "anonymous": false,
      "inputs": [
        {
          "indexed": true,
          "internalType": "uint256",
          "name": "id",
          "type": "uint256"
        },
        {
          "indexed": false,
          "internalType": "uint256",
          "name": "issuedTokens",
          "type": "uint256"
        },
        {
          "indexed": false,
          "internalType": "bool",
          "name": "active",
          "type": "bool"
        }
      ],
      "name": "CertificateUpdated",
      "type": "event"
    },
    {
      "anonymous": false,
      "inputs": [
        {
          "indexed": true,
          "internalType": "address",
          "name": "factory",
          "type": "address"
        },
        {
          "indexed": false,
          "internalType": "bool",
          "name": "allowed",
          "type": "bool"
        }
      ],
      "name": "FactoryAuthorized",
      "type": "event"
    },
    {
      "anonymous": false,
      "inputs": [
        {
          "indexed": false,
          "internalType": "uint8",
          "name": "version",
          "type": "uint8"
        }
      ],
      "name": "Initialized",
      "type": "event"
    },
    {
      "anonymous": false,
      "inputs": [
        {
          "indexed": true,
          "internalType": "address",
          "name": "previousOwner",
          "type": "address"
        },
        {
          "indexed": true,
          "internalType": "address",
          "name": "newOwner",
          "type": "address"
        }
      ],
      "name": "OwnershipTransferred",
      "type": "event"
    },
    {
      "inputs": [
        {
          "internalType": "address",
          "name": "",
          "type": "address"
        }
      ],
      "name": "authorizedContracts",
      "outputs": [
        {
          "internalType": "bool",
          "name": "",
          "type": "bool"
        }
      ],
      "stateMutability": "view",
      "type": "function"
    },
    {
      "inputs": [
        {
          "internalType": "address",
          "name": "",
          "type": "address"
        }
      ],
      "name": "authorizedFactories",
      "outputs": [
        {
          "internalType": "bool",
          "name": "",
          "type": "bool"
        }
      ],
      "stateMutability": "view",
      "type": "function"
    },
    {
      "inputs": [
        {
          "internalType": "uint256",
          "name": "",
          "type": "uint256"
        }
      ],
      "name": "certificates",
      "outputs": [
        {
          "internalType": "uint256",
          "name": "id",
          "type": "uint256"
        },
        {
          "internalType": "uint256",
          "name": "campaignId",
          "type": "uint256"
        },
        {
          "internalType": "uint256",
          "name": "nominalValue",
          "type": "uint256"
        },
        {
          "internalType": "uint256",
          "name": "maxCertificates",
          "type": "uint256"
        },
        {
          "internalType": "uint256",
          "name": "issuedCertificates",
          "type": "uint256"
        },
        {
          "internalType": "address",
          "name": "fiduciary",
          "type": "address"
        },
        {
          "internalType": "bool",
          "name": "active",
          "type": "bool"
        }
      ],
      "stateMutability": "view",
      "type": "function"
    },
    {
      "inputs": [
        {
          "internalType": "uint256",
          "name": "campaignId",
          "type": "uint256"
        },
        {
          "internalType": "uint256",
          "name": "maxCertificates",
          "type": "uint256"
        },
        {
          "internalType": "uint256",
          "name": "nominalValue",
          "type": "uint256"
        },
        {
          "internalType": "address",
          "name": "fiduciary",
          "type": "address"
        }
      ],
      "name": "createCertificate",
      "outputs": [],
      "stateMutability": "nonpayable",
      "type": "function"
    },
    {
      "inputs": [
        {
          "internalType": "uint256",
          "name": "certId",
          "type": "uint256"
        }
      ],
      "name": "deactivateCertificate",
      "outputs": [],
      "stateMutability": "nonpayable",
      "type": "function"
    },
    {
      "inputs": [],
      "name": "fiduciaryManager",
      "outputs": [
        {
          "internalType": "contract IFiduciaryManager",
          "name": "",
          "type": "address"
        }
      ],
      "stateMutability": "view",
      "type": "function"
    },
    {
      "inputs": [
        {
          "internalType": "uint256",
          "name": "id",
          "type": "uint256"
        }
      ],
      "name": "getCertificate",
      "outputs": [
        {
          "internalType": "uint256",
          "name": "",
          "type": "uint256"
        },
        {
          "internalType": "uint256",
          "name": "",
          "type": "uint256"
        },
        {
          "internalType": "uint256",
          "name": "",
          "type": "uint256"
        },
        {
          "internalType": "uint256",
          "name": "",
          "type": "uint256"
        },
        {
          "internalType": "uint256",
          "name": "",
          "type": "uint256"
        },
        {
          "internalType": "address",
          "name": "",
          "type": "address"
        },
        {
          "internalType": "bool",
          "name": "",
          "type": "bool"
        }
      ],
      "stateMutability": "view",
      "type": "function"
    },
    {
      "inputs": [
        {
          "internalType": "address",
          "name": "_fiduciaryManager",
          "type": "address"
        }
      ],
      "name": "initialize",
      "outputs": [],
      "stateMutability": "nonpayable",
      "type": "function"
    },
    {
      "inputs": [],
      "name": "nextCertificateId",
      "outputs": [
        {
          "internalType": "uint256",
          "name": "",
          "type": "uint256"
        }
      ],
      "stateMutability": "view",
      "type": "function"
    },
    {
      "inputs": [],
      "name": "owner",
      "outputs": [
        {
          "internalType": "address",
          "name": "",
          "type": "address"
        }
      ],
      "stateMutability": "view",
      "type": "function"
    },
    {
      "inputs": [],
      "name": "renounceOwnership",
      "outputs": [],
      "stateMutability": "nonpayable",
      "type": "function"
    },
    {
      "inputs": [
        {
          "internalType": "address",
          "name": "_contract",
          "type": "address"
        },
        {
          "internalType": "bool",
          "name": "status",
          "type": "bool"
        }
      ],
      "name": "setAuthorizedContract",
      "outputs": [],
      "stateMutability": "nonpayable",
      "type": "function"
    },
    {
      "inputs": [
        {
          "internalType": "address",
          "name": "factory",
          "type": "address"
        },
        {
          "internalType": "bool",
          "name": "allowed",
          "type": "bool"
        }
      ],
      "name": "setAuthorizedFactory",
      "outputs": [],
      "stateMutability": "nonpayable",
      "type": "function"
    },
    {
      "inputs": [
        {
          "internalType": "address",
          "name": "newOwner",
          "type": "address"
        }
      ],
      "name": "transferOwnership",
      "outputs": [],
      "stateMutability": "nonpayable",
      "type": "function"
    },
    {
      "inputs": [
        {
          "internalType": "uint256",
          "name": "certId",
          "type": "uint256"
        },
        {
          "internalType": "uint256",
          "name": "newIssuedTokens",
          "type": "uint256"
        }
      ],
      "name": "updateIssuedTokens",
      "outputs": [],
      "stateMutability": "nonpayable",
      "type": "function"
    }
  ],
  "bytecode": "0x6080604052348015600e575f5ffd5b50610d368061001c5f395ff3fe608060405234801561000f575f5ffd5b50600436106100f0575f3560e01c80638da5cb5b11610093578063d5b9221b11610063578063d5b9221b1461029f578063ecd24a82146102d1578063f2fa7392146102f3578063f2fde38b14610306575f5ffd5b80638da5cb5b1461023d578063a0bdb00314610262578063bae3a7de14610279578063c4d66de81461028c575f5ffd5b80635b4b9d3f116100ce5780635b4b9d3f146101b85780635c85c588146101cb578063663b3e22146101de578063715018a614610235575f5ffd5b806320d52cef146100f457806336ba7e011461010957806351640fee1461011c575b5f5ffd5b610107610102366004610b5a565b610319565b005b610107610117366004610b96565b6104bc565b61017361012a366004610b96565b5f9081526068602052604090208054600182015460028301546003840154600485015460059095015493959294919390926001600160a01b03821691600160a01b900460ff1690565b60408051978852602088019690965294860193909352606085019190915260808401526001600160a01b031660a0830152151560c082015260e0015b60405180910390f35b6101076101c6366004610bad565b6105d5565b6101076101d9366004610bda565b61077e565b6101736101ec366004610b96565b60686020525f908152604090208054600182015460028301546003840154600485015460059095015493949293919290916001600160a01b03811690600160a01b900460ff1687565b6101076107dd565b6033546001600160a01b03165b6040516001600160a01b0390911681526020016101af565b61026b60695481565b6040519081526020016101af565b60655461024a906001600160a01b031681565b61010761029a366004610c0f565b6107f0565b6102c16102ad366004610c0f565b60666020525f908152604090205460ff1681565b60405190151581526020016101af565b6102c16102df366004610c0f565b60676020525f908152604090205460ff1681565b610107610301366004610bda565b610917565b610107610314366004610c0f565b6109c3565b60655460405163fe39ae9d60e01b81523360048201526001600160a01b039091169063fe39ae9d90602401602060405180830381865afa15801561035f573d5f5f3e3d5ffd5b505050506040513d601f19601f820116820180604052508101906103839190610c2f565b8061039c5750335f9081526066602052604090205460ff165b6103c15760405162461bcd60e51b81526004016103b890610c4a565b60405180910390fd5b6040805160e081018252606980548083526020808401898152848601888152606086018a81525f608088018181526001600160a01b03808c1660a08b01818152600160c08d018181529a86526068909952938c90209a518b559551968a0196909655925160028901559051600388015590516004870155516005909501805493511515600160a01b026001600160a81b03199094169590921694909417919091179055549151909186917f23651dc489caf46a5acfe66053c0acd2f59fc981483f78440a4b66cc1bfd07a79061049a9088815260200190565b60405180910390a460698054905f6104b183610c91565b919050555050505050565b60655460405163fe39ae9d60e01b81523360048201526001600160a01b039091169063fe39ae9d90602401602060405180830381865afa158015610502573d5f5f3e3d5ffd5b505050506040513d601f19601f820116820180604052508101906105269190610c2f565b8061053f5750335f9081526066602052604090205460ff165b61055b5760405162461bcd60e51b81526004016103b890610c4a565b5f818152606860205260409081902060058101805460ff60a01b19169081905560048201549251919284927f9eb29ad1e5b944d3837f2e7c7b7fbf8db05373e8638b4472c505294ebf0cd1e3926105c99291600160a01b90910460ff16909182521515602082015260400190565b60405180910390a25050565b60655460405163fe39ae9d60e01b81523360048201526001600160a01b039091169063fe39ae9d90602401602060405180830381865afa15801561061b573d5f5f3e3d5ffd5b505050506040513d601f19601f8201168201806040525081019061063f9190610c2f565b806106585750335f9081526066602052604090205460ff165b6106745760405162461bcd60e51b81526004016103b890610c4a565b5f8281526068602052604090206005810154600160a01b900460ff166106d35760405162461bcd60e51b8152602060048201526014602482015273496e61637469766520636572746966696361746560601b60448201526064016103b8565b80600301548211156107275760405162461bcd60e51b815260206004820152601a60248201527f4578636565647320746f74616c2063657274696669636174657300000000000060448201526064016103b8565b60048101829055600581015460408051848152600160a01b90920460ff161515602083015284917f9eb29ad1e5b944d3837f2e7c7b7fbf8db05373e8638b4472c505294ebf0cd1e3910160405180910390a2505050565b610786610a3c565b6001600160a01b0382165f81815260676020908152604091829020805460ff191685151590811790915591519182527f6b489c12f59a99312ab950fddabe529a090208050382df653584944ea5f78b3591016105c9565b6107e5610a3c565b6107ee5f610a96565b565b5f54610100900460ff161580801561080e57505f54600160ff909116105b806108275750303b15801561082757505f5460ff166001145b61088a5760405162461bcd60e51b815260206004820152602e60248201527f496e697469616c697a61626c653a20636f6e747261637420697320616c72656160448201526d191e481a5b9a5d1a585b1a5e995960921b60648201526084016103b8565b5f805460ff1916600117905580156108ab575f805461ff0019166101001790555b6108b3610ae7565b606580546001600160a01b0319166001600160a01b0384161790558015610913575f805461ff0019169055604051600181527f7f26b83ff96e1f2b6a682f133852f6798a09c465da95921460cefb38474024989060200160405180910390a15b5050565b3361092a6033546001600160a01b031690565b6001600160a01b0316148061094d5750335f9081526067602052604090205460ff165b6109995760405162461bcd60e51b815260206004820152601f60248201527f4e6f74206f776e6572206f7220617574686f72697a656420666163746f72790060448201526064016103b8565b6001600160a01b03919091165f908152606660205260409020805460ff1916911515919091179055565b6109cb610a3c565b6001600160a01b038116610a305760405162461bcd60e51b815260206004820152602660248201527f4f776e61626c653a206e6577206f776e657220697320746865207a65726f206160448201526564647265737360d01b60648201526084016103b8565b610a3981610a96565b50565b6033546001600160a01b031633146107ee5760405162461bcd60e51b815260206004820181905260248201527f4f776e61626c653a2063616c6c6572206973206e6f7420746865206f776e657260448201526064016103b8565b603380546001600160a01b038381166001600160a01b0319831681179093556040519116919082907f8be0079c531659141344cd1fd0a4f28419497f9722a3daafe3b4186f6b6457e0905f90a35050565b5f54610100900460ff16610b0d5760405162461bcd60e51b81526004016103b890610cb5565b6107ee5f54610100900460ff16610b365760405162461bcd60e51b81526004016103b890610cb5565b6107ee33610a96565b80356001600160a01b0381168114610b55575f5ffd5b919050565b5f5f5f5f60808587031215610b6d575f5ffd5b843593506020850135925060408501359150610b8b60608601610b3f565b905092959194509250565b5f60208284031215610ba6575f5ffd5b5035919050565b5f5f60408385031215610bbe575f5ffd5b50508035926020909101359150565b8015158114610a39575f5ffd5b5f5f60408385031215610beb575f5ffd5b610bf483610b3f565b91506020830135610c0481610bcd565b809150509250929050565b5f60208284031215610c1f575f5ffd5b610c2882610b3f565b9392505050565b5f60208284031215610c3f575f5ffd5b8151610c2881610bcd565b60208082526027908201527f4e6f7420616e20617574686f72697a656420666964756369617279206f7220636040820152661bdb9d1c9858dd60ca1b606082015260800190565b5f60018201610cae57634e487b7160e01b5f52601160045260245ffd5b5060010190565b6020808252602b908201527f496e697469616c697a61626c653a20636f6e7472616374206973206e6f74206960408201526a6e697469616c697a696e6760a81b60608201526080019056fea2646970667358221220849406d0abc3971d393b957ef79aed428322b5bf6170664059ea7662fd08699364736f6c634300081b0033",
  "linkReferences": {},
  "deployedLinkReferences": {}
}