{
  "_format": "hh-sol-artifact-1",
  "contractName": "Core",
  "sourceName": "contracts/global/Core.sol",
  "abi": [
    {
      "anonymous": false,
      "inputs": [
        {
          "indexed": true,
          "internalType": "uint256",
          "name": "campaignId",
          "type": "uint256"
        },
        {
          "indexed": false,
          "internalType": "address",
          "name": "approvedBy",
          "type": "address"
        }
      ],
      "name": "CampaignApproved",
      "type": "event"
    },
    {
      "anonymous": false,
      "inputs": [
        {
          "indexed": true,
          "internalType": "uint256",
          "name": "campaignId",
          "type": "uint256"
        },
        {
          "indexed": false,
          "internalType": "uint256",
          "name": "totalContributions",
          "type": "uint256"
        },
        {
          "indexed": false,
          "internalType": "uint256",
          "name": "timestamp",
          "type": "uint256"
        }
      ],
      "name": "CampaignCompleted",
      "type": "event"
    },
    {
      "anonymous": false,
      "inputs": [
        {
          "indexed": true,
          "internalType": "uint256",
          "name": "campaignId",
          "type": "uint256"
        },
        {
          "indexed": false,
          "internalType": "address",
          "name": "campaignCreator",
          "type": "address"
        },
        {
          "indexed": false,
          "internalType": "bytes32",
          "name": "ipfsHash",
          "type": "bytes32"
        },
        {
          "indexed": false,
          "internalType": "enum Core.STATUS",
          "name": "status",
          "type": "uint8"
        }
      ],
      "name": "CampaignCreated",
      "type": "event"
    },
    {
      "anonymous": false,
      "inputs": [
        {
          "indexed": true,
          "internalType": "uint256",
          "name": "campaignId",
          "type": "uint256"
        },
        {
          "indexed": false,
          "internalType": "address",
          "name": "rejectedBy",
          "type": "address"
        },
        {
          "indexed": false,
          "internalType": "bytes32",
          "name": "reason",
          "type": "bytes32"
        }
      ],
      "name": "CampaignRejected",
      "type": "event"
    },
    {
      "anonymous": false,
      "inputs": [
        {
          "indexed": true,
          "internalType": "uint256",
          "name": "campaignId",
          "type": "uint256"
        },
        {
          "indexed": false,
          "internalType": "address",
          "name": "startedBy",
          "type": "address"
        }
      ],
      "name": "CollectingStarted",
      "type": "event"
    },
    {
      "anonymous": false,
      "inputs": [
        {
          "indexed": true,
          "internalType": "uint256",
          "name": "campaignId",
          "type": "uint256"
        },
        {
          "indexed": false,
          "internalType": "address",
          "name": "contributor",
          "type": "address"
        },
        {
          "indexed": false,
          "internalType": "uint256",
          "name": "amount",
          "type": "uint256"
        }
      ],
      "name": "ContributionMade",
      "type": "event"
    },
    {
      "anonymous": false,
      "inputs": [
        {
          "indexed": true,
          "internalType": "uint256",
          "name": "campaignId",
          "type": "uint256"
        },
        {
          "indexed": false,
          "internalType": "address",
          "name": "startedBy",
          "type": "address"
        },
        {
          "indexed": false,
          "internalType": "uint256",
          "name": "timestamp",
          "type": "uint256"
        }
      ],
      "name": "DistributionStarted",
      "type": "event"
    },
    {
      "anonymous": false,
      "inputs": [
        {
          "indexed": true,
          "internalType": "uint256",
          "name": "campaignId",
          "type": "uint256"
        },
        {
          "indexed": false,
          "internalType": "address",
          "name": "campaignCreator",
          "type": "address"
        },
        {
          "indexed": false,
          "internalType": "bytes32",
          "name": "ipfsHash",
          "type": "bytes32"
        },
        {
          "indexed": false,
          "internalType": "enum Core.STATUS",
          "name": "status",
          "type": "uint8"
        }
      ],
      "name": "FinalizeCampaign",
      "type": "event"
    },
    {
      "anonymous": false,
      "inputs": [
        {
          "indexed": false,
          "internalType": "uint8",
          "name": "version",
          "type": "uint8"
        }
      ],
      "name": "Initialized",
      "type": "event"
    },
    {
      "anonymous": false,
      "inputs": [
        {
          "indexed": true,
          "internalType": "address",
          "name": "previousOwner",
          "type": "address"
        },
        {
          "indexed": true,
          "internalType": "address",
          "name": "newOwner",
          "type": "address"
        }
      ],
      "name": "OwnershipTransferred",
      "type": "event"
    },
    {
      "anonymous": false,
      "inputs": [
        {
          "indexed": true,
          "internalType": "uint256",
          "name": "campaignId",
          "type": "uint256"
        },
        {
          "indexed": false,
          "internalType": "address",
          "name": "contributor",
          "type": "address"
        },
        {
          "indexed": false,
          "internalType": "uint256",
          "name": "amount",
          "type": "uint256"
        }
      ],
      "name": "RefundMade",
      "type": "event"
    },
    {
      "inputs": [
        {
          "internalType": "uint256",
          "name": "_certificateId",
          "type": "uint256"
        },
        {
          "internalType": "uint256",
          "name": "_campaignId",
          "type": "uint256"
        }
      ],
      "name": "AsignarCertificado",
      "outputs": [],
      "stateMutability": "nonpayable",
      "type": "function"
    },
    {
      "inputs": [
        {
          "internalType": "uint256",
          "name": "_campaignId",
          "type": "uint256"
        }
      ],
      "name": "approveCampaign",
      "outputs": [],
      "stateMutability": "nonpayable",
      "type": "function"
    },
    {
      "inputs": [
        {
          "internalType": "address",
          "name": "",
          "type": "address"
        }
      ],
      "name": "authorizedContracts",
      "outputs": [
        {
          "internalType": "bool",
          "name": "",
          "type": "bool"
        }
      ],
      "stateMutability": "view",
      "type": "function"
    },
    {
      "inputs": [
        {
          "internalType": "uint256",
          "name": "",
          "type": "uint256"
        }
      ],
      "name": "campaignIds",
      "outputs": [
        {
          "internalType": "uint256",
          "name": "",
          "type": "uint256"
        }
      ],
      "stateMutability": "view",
      "type": "function"
    },
    {
      "inputs": [],
      "name": "certificateRegistry",
      "outputs": [
        {
          "internalType": "contract ICertificateRegistry",
          "name": "",
          "type": "address"
        }
      ],
      "stateMutability": "view",
      "type": "function"
    },
    {
      "inputs": [
        {
          "internalType": "uint256",
          "name": "_campaignId",
          "type": "uint256"
        }
      ],
      "name": "claimRefund",
      "outputs": [],
      "stateMutability": "nonpayable",
      "type": "function"
    },
    {
      "inputs": [
        {
          "internalType": "uint256",
          "name": "_campaignId",
          "type": "uint256"
        }
      ],
      "name": "completeCampaign",
      "outputs": [],
      "stateMutability": "nonpayable",
      "type": "function"
    },
    {
      "inputs": [
        {
          "internalType": "uint256",
          "name": "_campaignId",
          "type": "uint256"
        },
        {
          "internalType": "address",
          "name": "_custody",
          "type": "address"
        },
        {
          "internalType": "address",
          "name": "_tokenMinter",
          "type": "address"
        },
        {
          "internalType": "enum Core.STATUS",
          "name": "_status",
          "type": "uint8"
        }
      ],
      "name": "configureCampaign",
      "outputs": [],
      "stateMutability": "nonpayable",
      "type": "function"
    },
    {
      "inputs": [
        {
          "internalType": "uint256",
          "name": "_campaignId",
          "type": "uint256"
        },
        {
          "internalType": "uint256",
          "name": "_amount",
          "type": "uint256"
        }
      ],
      "name": "contribute",
      "outputs": [],
      "stateMutability": "nonpayable",
      "type": "function"
    },
    {
      "inputs": [
        {
          "internalType": "bytes32",
          "name": "_ipfsHash",
          "type": "bytes32"
        },
        {
          "internalType": "uint256",
          "name": "_goal",
          "type": "uint256"
        },
        {
          "internalType": "uint256",
          "name": "_startsAt",
          "type": "uint256"
        },
        {
          "internalType": "uint256",
          "name": "_endsAt",
          "type": "uint256"
        }
      ],
      "name": "createCampaign",
      "outputs": [],
      "stateMutability": "nonpayable",
      "type": "function"
    },
    {
      "inputs": [],
      "name": "custody",
      "outputs": [
        {
          "internalType": "contract ICustody",
          "name": "",
          "type": "address"
        }
      ],
      "stateMutability": "view",
      "type": "function"
    },
    {
      "inputs": [],
      "name": "fiduciaryManager",
      "outputs": [
        {
          "internalType": "contract IFiduciaryManager",
          "name": "",
          "type": "address"
        }
      ],
      "stateMutability": "view",
      "type": "function"
    },
    {
      "inputs": [
        {
          "internalType": "uint256",
          "name": "_campaignId",
          "type": "uint256"
        }
      ],
      "name": "finalizeCampaign",
      "outputs": [],
      "stateMutability": "nonpayable",
      "type": "function"
    },
    {
      "inputs": [],
      "name": "identityRegistry",
      "outputs": [
        {
          "internalType": "contract IIdentityRegistry",
          "name": "",
          "type": "address"
        }
      ],
      "stateMutability": "view",
      "type": "function"
    },
    {
      "inputs": [
        {
          "internalType": "address",
          "name": "_usdtAddress",
          "type": "address"
        },
        {
          "internalType": "address",
          "name": "_fiduciaryManager",
          "type": "address"
        },
        {
          "internalType": "address",
          "name": "_identityRegistry",
          "type": "address"
        },
        {
          "internalType": "address",
          "name": "_smartDeployer",
          "type": "address"
        },
        {
          "internalType": "address",
          "name": "_certificateRegistry",
          "type": "address"
        }
      ],
      "name": "initialize",
      "outputs": [],
      "stateMutability": "nonpayable",
      "type": "function"
    },
    {
      "inputs": [],
      "name": "owner",
      "outputs": [
        {
          "internalType": "address",
          "name": "",
          "type": "address"
        }
      ],
      "stateMutability": "view",
      "type": "function"
    },
    {
      "inputs": [
        {
          "internalType": "uint256",
          "name": "_campaignId",
          "type": "uint256"
        },
        {
          "internalType": "bytes32",
          "name": "reason",
          "type": "bytes32"
        }
      ],
      "name": "rejectCampaign",
      "outputs": [],
      "stateMutability": "nonpayable",
      "type": "function"
    },
    {
      "inputs": [],
      "name": "renounceOwnership",
      "outputs": [],
      "stateMutability": "nonpayable",
      "type": "function"
    },
    {
      "inputs": [
        {
          "internalType": "address",
          "name": "_contract",
          "type": "address"
        },
        {
          "internalType": "bool",
          "name": "status",
          "type": "bool"
        }
      ],
      "name": "setAuthorizedContract",
      "outputs": [],
      "stateMutability": "nonpayable",
      "type": "function"
    },
    {
      "inputs": [
        {
          "internalType": "uint256",
          "name": "_campaignId",
          "type": "uint256"
        }
      ],
      "name": "startCollecting",
      "outputs": [],
      "stateMutability": "nonpayable",
      "type": "function"
    },
    {
      "inputs": [
        {
          "internalType": "uint256",
          "name": "_campaignId",
          "type": "uint256"
        }
      ],
      "name": "startDistribution",
      "outputs": [],
      "stateMutability": "nonpayable",
      "type": "function"
    },
    {
      "inputs": [
        {
          "internalType": "address",
          "name": "newOwner",
          "type": "address"
        }
      ],
      "name": "transferOwnership",
      "outputs": [],
      "stateMutability": "nonpayable",
      "type": "function"
    },
    {
      "inputs": [],
      "name": "usdtToken",
      "outputs": [
        {
          "internalType": "contract IERC20Upgradeable",
          "name": "",
          "type": "address"
        }
      ],
      "stateMutability": "view",
      "type": "function"
    },
    {
      "inputs": [
        {
          "internalType": "uint256",
          "name": "_campaignId",
          "type": "uint256"
        }
      ],
      "name": "viewCampaign",
      "outputs": [
        {
          "components": [
            {
              "internalType": "uint256",
              "name": "id",
              "type": "uint256"
            },
            {
              "internalType": "address",
              "name": "campaignCreator",
              "type": "address"
            },
            {
              "internalType": "bytes32",
              "name": "ipfsHash",
              "type": "bytes32"
            },
            {
              "internalType": "uint256",
              "name": "goal",
              "type": "uint256"
            },
            {
              "internalType": "uint256",
              "name": "startsAt",
              "type": "uint256"
            },
            {
              "internalType": "uint256",
              "name": "endsAt",
              "type": "uint256"
            },
            {
              "internalType": "enum Core.STATUS",
              "name": "status",
              "type": "uint8"
            },
            {
              "internalType": "uint256",
              "name": "totalContributions",
              "type": "uint256"
            },
            {
              "internalType": "address",
              "name": "custody",
              "type": "address"
            },
            {
              "internalType": "address",
              "name": "tokenMinter",
              "type": "address"
            },
            {
              "internalType": "uint256",
              "name": "CertificateID",
              "type": "uint256"
            }
          ],
          "internalType": "struct Core.Campaign",
          "name": "",
          "type": "tuple"
        }
      ],
      "stateMutability": "view",
      "type": "function"
    }
  ],
  "bytecode": "0x6080604052348015600e575f5ffd5b506125768061001c5f395ff3fe608060405234801561000f575f5ffd5b5060043610610153575f3560e01c8063b369359d116100bf578063dda79b7511610079578063dda79b75146102ec578063e0733466146102ff578063e79796891461031f578063ee4e1b5314610332578063f2fa739214610345578063f2fde38b14610358575f5ffd5b8063b369359d1461024d578063b437d9cb1461026e578063bae3a7de14610281578063ced7f44914610294578063cff2eadb146102a7578063d5b9221b146102ba575f5ffd5b8063715018a611610110578063715018a6146101e85780638c590917146101f05780638da5cb5b146102035780638fe50cc2146102145780639553f18014610227578063a98ad46c1461023a575f5ffd5b8063134e18f4146101575780631459457a146101875780633feaec0a1461019c5780634452ac39146101af5780635b7baf64146101c25780636b5ca27d146101d5575b5f5ffd5b60985461016a906001600160a01b031681565b6040516001600160a01b0390911681526020015b60405180910390f35b61019a6101953660046120f0565b61036b565b005b61019a6101aa36600461215d565b6104e3565b61019a6101bd36600461217d565b61061c565b61019a6101d03660046121d0565b610746565b61019a6101e33660046121d0565b61088a565b61019a610aa7565b61019a6101fe36600461215d565b610aba565b6033546001600160a01b031661016a565b61019a6102223660046121e7565b610e82565b61019a6102353660046121d0565b61116f565b60975461016a906001600160a01b031681565b61026061025b3660046121d0565b6112f3565b60405190815260200161017e565b61019a61027c3660046121d0565b611312565b60995461016a906001600160a01b031681565b609a5461016a906001600160a01b031681565b61019a6102b536600461215d565b611560565b6102dc6102c8366004612216565b609f6020525f908152604090205460ff1681565b604051901515815260200161017e565b609b5461016a906001600160a01b031681565b61031261030d3660046121d0565b6116a0565b60405161017e919061226c565b61019a61032d3660046121d0565b6117de565b61019a6103403660046121d0565b61195d565b61019a61035336600461232c565b611a32565b61019a610366366004612216565b611a64565b5f54610100900460ff161580801561038957505f54600160ff909116105b806103a25750303b1580156103a257505f5460ff166001145b61040a5760405162461bcd60e51b815260206004820152602e60248201527f496e697469616c697a61626c653a20636f6e747261637420697320616c72656160448201526d191e481a5b9a5d1a585b1a5e995960921b60648201526084015b60405180910390fd5b5f805460ff19166001179055801561042b575f805461ff0019166101001790555b610433611ada565b61043b611b08565b609780546001600160a01b03199081166001600160a01b0389811691909117909255609980548216888416179055609880548216878416179055609a80548216858416179055609c80549091169185169190911790556001609d5580156104db575f805461ff0019169055604051600181527f7f26b83ff96e1f2b6a682f133852f6798a09c465da95921460cefb38474024989060200160405180910390a15b505050505050565b6104eb611b36565b5f82815260a06020526040812080549091036105195760405162461bcd60e51b815260040161040190612363565b6005600682015460ff16600881111561053457610534612238565b1415801561055b57506004600682015460ff16600881111561055857610558612238565b14155b801561058057506008600682015460ff16600881111561057d5761057d612238565b14155b6105cc5760405162461bcd60e51b815260206004820152601b60248201527f43616e6e6f742063616e63656c20746869732063616d706169676e00000000006044820152606401610401565b6006818101805460ff19169091179055604080513381526020810184905284917fa1407d639c249ccbafde9ab8a2fecc1d9a2852357738cd0d6ee2c04db1cbaae8910160405180910390a2505050565b609c546001600160a01b03163314806106435750335f908152609f602052604090205460ff165b61068f5760405162461bcd60e51b815260206004820152601760248201527f4e6f7420617574686f72697a6564206465706c6f7965720000000000000000006044820152606401610401565b5f84815260a06020526040812080549091036106e25760405162461bcd60e51b815260206004820152601260248201527110d85b5c185a59db881b9bdd08195e1a5cdd60721b6044820152606401610401565b600880820180546001600160a01b038088166001600160a01b03199283161790925560098401805492871692909116919091179055600682018054849260ff1990911690600190849081111561073a5761073a612238565b02179055505050505050565b61074e611b90565b5f81815260a06020526040902060068082015460ff16600881111561077557610775612238565b146107bb5760405162461bcd60e51b815260206004820152601660248201527510d85b5c185a59db881b9bdd0818d85b98d95b1b195960521b6044820152606401610401565b5f82815260a16020908152604080832033808552925280832080549390556008840154905163e796a6eb60e01b8152600481018690526024810192909252604482018390526001600160a01b03169063e796a6eb906064015f604051808303815f87803b15801561082a575f5ffd5b505af115801561083c573d5f5f3e3d5ffd5b505060408051338152602081018590528693507fd8e3c6fa99e763470c20c330c3264b60d68113ff301d4bde289d32ae0b08a30392500160405180910390a250506108876001606555565b50565b60995460405163fe39ae9d60e01b81523360048201526001600160a01b039091169063fe39ae9d90602401602060405180830381865afa1580156108d0573d5f5f3e3d5ffd5b505050506040513d601f19601f820116820180604052508101906108f4919061239a565b8061090957506033546001600160a01b031633145b6109255760405162461bcd60e51b8152600401610401906123b5565b61092d611b90565b5f81815260a060205260408120805490910361095b5760405162461bcd60e51b815260040161040190612363565b806005015442116109ae5760405162461bcd60e51b815260206004820152601a60248201527f43616d706169676e20686173206e6f7420656e646564207965740000000000006044820152606401610401565b6003600682015460ff1660088111156109c9576109c9612238565b14610a0f5760405162461bcd60e51b815260206004820152601660248201527543616d706169676e206973206e6f742061637469766560501b6044820152606401610401565b8060030154816007015410610a325760068101805460ff19166004179055610a43565b6006818101805460ff191690911790555b60018101546002820154600683015460405185937f7a1acbb18fd316cbab80a9704536b60ce79d7e755ee444ed8684c94e12ee59a793610a94936001600160a01b0390921692909160ff16906123df565b60405180910390a2506108876001606555565b610aaf611b36565b610ab85f611bf0565b565b60985460405163b9209e3360e01b81523360048201526001600160a01b039091169063b9209e3390602401602060405180830381865afa158015610b00573d5f5f3e3d5ffd5b505050506040513d601f19601f82011682018060405250810190610b24919061239a565b610b615760405162461bcd60e51b815260206004820152600e60248201526d2737ba10309034b73b32b9ba37b960911b6044820152606401610401565b5f82815260a0602052604081208054909103610bb25760405162461bcd60e51b815260206004820152601060248201526f24b73b30b634b21031b0b6b830b4b3b760811b6044820152606401610401565b6003600682015460ff166008811115610bcd57610bcd612238565b14610c105760405162461bcd60e51b815260206004820152601360248201527243616d706169676e206e6f742061637469766560681b6044820152606401610401565b80600401544210158015610c28575080600501544211155b610c6a5760405162461bcd60e51b815260206004820152601360248201527243616d706169676e206e6f742061637469766560681b6044820152606401610401565b5f8211610cb95760405162461bcd60e51b815260206004820152601860248201527f436f6e747269627574696f6e206d757374206265203e203000000000000000006044820152606401610401565b60098101546001600160a01b031680610d0a5760405162461bcd60e51b8152602060048201526013602482015272151bdad95b935a5b9d195c881b9bdd081cd95d606a1b6044820152606401610401565b600a8201545f610d1982611c41565b9050858114610d755760405162461bcd60e51b815260206004820152602260248201527f4365727469666963617465206e6f74206c696e6b656420746f2063616d70616960448201526133b760f11b6064820152608401610401565b6008840154609754610d96916001600160a01b039182169133911688611d59565b5f86815260a16020908152604080832033845290915281208054879290610dbe908490612417565b9250508190555084846007015f828254610dd89190612417565b9091555050604051630686803560e11b815260048101839052336024820152604481018690526001600160a01b03841690630d0d006a906064015f604051808303815f87803b158015610e29575f5ffd5b505af1158015610e3b573d5f5f3e3d5ffd5b505060408051338152602081018990528993507f0a4a91237423e0a1766a761c7cb029311d8b95d6b1b81db1b949a70c98b4e08e92500160405180910390a2505050505050565b60995460405163fe39ae9d60e01b81523360048201526001600160a01b039091169063fe39ae9d90602401602060405180830381865afa158015610ec8573d5f5f3e3d5ffd5b505050506040513d601f19601f82011682018060405250810190610eec919061239a565b80610f0157506033546001600160a01b031633145b610f1d5760405162461bcd60e51b8152600401610401906123b5565b5f8311610f5f5760405162461bcd60e51b815260206004820152601060248201526f0476f616c206d757374206265203e20360841b6044820152606401610401565b818111610f9e5760405162461bcd60e51b815260206004820152600d60248201526c496e76616c696420646174657360981b6044820152606401610401565b42821015610fee5760405162461bcd60e51b815260206004820152601b60248201527f5374617274206d75737420626520696e207468652066757475726500000000006044820152606401610401565b610ff6612070565b609d548082523360208084019182526040808501898152606086018981526080870189815260a08089018a81525f60c08b0181815260e08c018290526101008c018290526101208c018290526101408c018290529981529190965293909320875181559451600180870180546001600160a01b0319166001600160a01b03909316929092179091559151600286015551600385015590516004840155905160058301559151600682018054859460ff1991909116908360088111156110bd576110bd612238565b021790555060e082015160078201556101008201516008820180546001600160a01b039283166001600160a01b03199182161790915561012084015160098401805491909316911617905561014090910151600a90910155609d546040517fc4d8e2507e740f9b2b87df5601babc76e0a2b6ef522344d53c01d1e5c68557769061114c90339089905f906123df565b60405180910390a2609d8054905f6111638361242a565b91905055505050505050565b60995460405163fe39ae9d60e01b81523360048201526001600160a01b039091169063fe39ae9d90602401602060405180830381865afa1580156111b5573d5f5f3e3d5ffd5b505050506040513d601f19601f820116820180604052508101906111d9919061239a565b806111ee57506033546001600160a01b031633145b61120a5760405162461bcd60e51b8152600401610401906123b5565b611212611b90565b5f81815260a06020526040812080549091036112405760405162461bcd60e51b815260040161040190612363565b6005600682015460ff16600881111561125b5761125b612238565b146112a85760405162461bcd60e51b815260206004820152601c60248201527f43616d706169676e206e6f7420696e20646973747269627574696f6e000000006044820152606401610401565b60068101805460ff1916600817905560078101546040805191825242602083015283917f94e2f58e481106e499927da81e4a3596dbde3767d95990a9928a5df2fcb27c959101610a94565b609e8181548110611302575f80fd5b5f91825260209091200154905081565b609c546001600160a01b0316331480611390575060995460405163fe39ae9d60e01b81523360048201526001600160a01b039091169063fe39ae9d90602401602060405180830381865afa15801561136c573d5f5f3e3d5ffd5b505050506040513d601f19601f82011682018060405250810190611390919061239a565b806113a557506033546001600160a01b031633145b6113e25760405162461bcd60e51b815260206004820152600e60248201526d139bdd08185d5d1a1bdc9a5e995960921b6044820152606401610401565b5f81815260a06020526040812080549091036114105760405162461bcd60e51b815260040161040190612363565b6002600682015460ff16600881111561142b5761142b612238565b146114705760405162461bcd60e51b815260206004820152601560248201527410d85b5c185a59db881b9bdd0819195c1b1bde5959605a1b6044820152606401610401565b60088101546001600160a01b03166114c35760405162461bcd60e51b815260206004820152601660248201527510dd5cdd1bd91e481b9bdd0818dbdb999a59dd5c995960521b6044820152606401610401565b80600401544210156115175760405162461bcd60e51b815260206004820152601860248201527f43616d706169676e206e6f7420737461727465642079657400000000000000006044820152606401610401565b60068101805460ff1916600317905560405133815282907f1c96c5c9776d5e7a3c00644916e16d80ecd3fb6dc116e6339e380ec9c187c4b1906020015b60405180910390a25050565b60995460405163fe39ae9d60e01b81523360048201526001600160a01b039091169063fe39ae9d90602401602060405180830381865afa1580156115a6573d5f5f3e3d5ffd5b505050506040513d601f19601f820116820180604052508101906115ca919061239a565b806115df57506033546001600160a01b031633145b6115fb5760405162461bcd60e51b8152600401610401906123b5565b5f61160583611c41565b5f83815260a06020526040812080549293509190036116365760405162461bcd60e51b815260040161040190612363565b8282146116955760405162461bcd60e51b815260206004820152602760248201527f4365727469666963617465206e6f74206c696e6b656420746f2074686973206360448201526630b6b830b4b3b760c91b6064820152608401610401565b600a01929092555050565b6116a8612070565b5f82116116ed5760405162461bcd60e51b8152602060048201526013602482015272125b9d985b1a590818d85b5c185a59db881251606a1b6044820152606401610401565b5f82815260a0602081815260408084208151610160810183528154815260018201546001600160a01b0316938101939093526002810154918301919091526003810154606083015260048101546080830152600581015492820192909252600682015490919060c083019060ff16600881111561176c5761176c612238565b600881111561177d5761177d612238565b81526007820154602082015260088201546001600160a01b0390811660408301526009830154166060820152600a9091015460809091015280519091505f036117d85760405162461bcd60e51b815260040161040190612363565b92915050565b60995460405163fe39ae9d60e01b81523360048201526001600160a01b039091169063fe39ae9d90602401602060405180830381865afa158015611824573d5f5f3e3d5ffd5b505050506040513d601f19601f82011682018060405250810190611848919061239a565b8061185d57506033546001600160a01b031633145b6118795760405162461bcd60e51b8152600401610401906123b5565b611881611b90565b5f81815260a06020526040812080549091036118af5760405162461bcd60e51b815260040161040190612363565b6004600682015460ff1660088111156118ca576118ca612238565b146119175760405162461bcd60e51b815260206004820152601960248201527f43616d706169676e206e6f7420696e20657865637574696f6e000000000000006044820152606401610401565b60068101805460ff191660051790556040805133815242602082015283917fcffa58035ff912e8c49cc11ff9238afae7f38e408573cd21e462f0fcf3615f129101610a94565b611965611b36565b5f81815260a06020526040812080549091036119935760405162461bcd60e51b815260040161040190612363565b5f600682015460ff1660088111156119ad576119ad612238565b146119f15760405162461bcd60e51b815260206004820152601460248201527343616d706169676e206e6f742070656e64696e6760601b6044820152606401610401565b60068101805460ff1916600117905560405133815282907f7e557e854a32c7c52283fd31db4981ae1b56041564d935953060da478429d5fa90602001611554565b611a3a611b36565b6001600160a01b03919091165f908152609f60205260409020805460ff1916911515919091179055565b611a6c611b36565b6001600160a01b038116611ad15760405162461bcd60e51b815260206004820152602660248201527f4f776e61626c653a206e6577206f776e657220697320746865207a65726f206160448201526564647265737360d01b6064820152608401610401565b61088781611bf0565b5f54610100900460ff16611b005760405162461bcd60e51b815260040161040190612442565b610ab8611db9565b5f54610100900460ff16611b2e5760405162461bcd60e51b815260040161040190612442565b610ab8611de8565b6033546001600160a01b03163314610ab85760405162461bcd60e51b815260206004820181905260248201527f4f776e61626c653a2063616c6c6572206973206e6f7420746865206f776e65726044820152606401610401565b600260655403611be25760405162461bcd60e51b815260206004820152601f60248201527f5265656e7472616e637947756172643a207265656e7472616e742063616c6c006044820152606401610401565b6002606555565b6001606555565b603380546001600160a01b038381166001600160a01b0319831681179093556040519116919082907f8be0079c531659141344cd1fd0a4f28419497f9722a3daafe3b4186f6b6457e0905f90a35050565b609a546040516328b207f760e11b8152600481018390525f918291829182916001600160a01b03909116906351640fee9060240160e060405180830381865afa158015611c90573d5f5f3e3d5ffd5b505050506040513d601f19601f82011682018060405250810190611cb4919061248d565b96505050505092509250848314611d0d5760405162461bcd60e51b815260206004820152601a60248201527f436572746966696361746520646f6573206e6f742065786973740000000000006044820152606401610401565b80611d515760405162461bcd60e51b8152602060048201526014602482015273436572746966696361746520696e61637469766560601b6044820152606401610401565b509392505050565b604080516001600160a01b0385811660248301528416604482015260648082018490528251808303909101815260849091019091526020810180516001600160e01b03166323b872dd60e01b179052611db3908590611e0e565b50505050565b5f54610100900460ff16611ddf5760405162461bcd60e51b815260040161040190612442565b610ab833611bf0565b5f54610100900460ff16611be95760405162461bcd60e51b815260040161040190612442565b5f611e62826040518060400160405280602081526020017f5361666545524332303a206c6f772d6c6576656c2063616c6c206661696c6564815250856001600160a01b0316611ee69092919063ffffffff16565b905080515f1480611e82575080806020019051810190611e82919061239a565b611ee15760405162461bcd60e51b815260206004820152602a60248201527f5361666545524332303a204552433230206f7065726174696f6e20646964206e6044820152691bdd081cdd58d8d9595960b21b6064820152608401610401565b505050565b6060611ef484845f85611efc565b949350505050565b606082471015611f5d5760405162461bcd60e51b815260206004820152602660248201527f416464726573733a20696e73756666696369656e742062616c616e636520666f6044820152651c8818d85b1b60d21b6064820152608401610401565b5f5f866001600160a01b03168587604051611f7891906124f5565b5f6040518083038185875af1925050503d805f8114611fb2576040519150601f19603f3d011682016040523d82523d5f602084013e611fb7565b606091505b5091509150611fc887838387611fd3565b979650505050505050565b606083156120415782515f0361203a576001600160a01b0385163b61203a5760405162461bcd60e51b815260206004820152601d60248201527f416464726573733a2063616c6c20746f206e6f6e2d636f6e74726163740000006044820152606401610401565b5081611ef4565b611ef483838151156120565781518083602001fd5b8060405162461bcd60e51b8152600401610401919061250b565b6040518061016001604052805f81526020015f6001600160a01b031681526020015f81526020015f81526020015f81526020015f81526020015f60088111156120bb576120bb612238565b81525f60208201819052604082018190526060820181905260809091015290565b6001600160a01b0381168114610887575f5ffd5b5f5f5f5f5f60a08688031215612104575f5ffd5b853561210f816120dc565b9450602086013561211f816120dc565b9350604086013561212f816120dc565b9250606086013561213f816120dc565b9150608086013561214f816120dc565b809150509295509295909350565b5f5f6040838503121561216e575f5ffd5b50508035926020909101359150565b5f5f5f5f60808587031215612190575f5ffd5b8435935060208501356121a2816120dc565b925060408501356121b2816120dc565b91506060850135600981106121c5575f5ffd5b939692955090935050565b5f602082840312156121e0575f5ffd5b5035919050565b5f5f5f5f608085870312156121fa575f5ffd5b5050823594602084013594506040840135936060013592509050565b5f60208284031215612226575f5ffd5b8135612231816120dc565b9392505050565b634e487b7160e01b5f52602160045260245ffd5b6009811061226857634e487b7160e01b5f52602160045260245ffd5b9052565b81518152602080830151610160830191612290908401826001600160a01b03169052565b5060408301516040830152606083015160608301526080830151608083015260a083015160a083015260c08301516122cb60c084018261224c565b5060e083015160e08301526101008301516122f26101008401826001600160a01b03169052565b5061012083015161230f6101208401826001600160a01b03169052565b5061014092830151919092015290565b8015158114610887575f5ffd5b5f5f6040838503121561233d575f5ffd5b8235612348816120dc565b915060208301356123588161231f565b809150509250929050565b60208082526017908201527f43616d706169676e20646f6573206e6f74206578697374000000000000000000604082015260600190565b5f602082840312156123aa575f5ffd5b81516122318161231f565b60208082526010908201526f4e6f742061206669647563696172696f60801b604082015260600190565b6001600160a01b03841681526020810183905260608101611ef4604083018461224c565b634e487b7160e01b5f52601160045260245ffd5b808201808211156117d8576117d8612403565b5f6001820161243b5761243b612403565b5060010190565b6020808252602b908201527f496e697469616c697a61626c653a20636f6e7472616374206973206e6f74206960408201526a6e697469616c697a696e6760a81b606082015260800190565b5f5f5f5f5f5f5f60e0888a0312156124a3575f5ffd5b8751602089015160408a015160608b015160808c015160a08d0151949b50929950909750955093506124d4816120dc565b60c08901519092506124e58161231f565b8091505092959891949750929550565b5f82518060208501845e5f920191825250919050565b602081525f82518060208401528060208501604085015e5f604082850101526040601f19601f8301168401019150509291505056fea26469706673582212204914795759d47d3f54e8d7b40f3af3c01bde6d124bbc0fb92e2901945d12c95464736f6c634300081b0033",
  "linkReferences": {},
  "deployedLinkReferences": {}
}