{
  "_format": "hh-sol-artifact-1",
  "contractName": "FideiToken",
  "sourceName": "contracts/local/FideiToken.sol",
  "abi": [
    {
      "inputs": [
        {
          "internalType": "string",
          "name": "name_",
          "type": "string"
        },
        {
          "internalType": "string",
          "name": "symbol_",
          "type": "string"
        },
        {
          "internalType": "address",
          "name": "identityRegistry_",
          "type": "address"
        },
        {
          "internalType": "address",
          "name": "compliance_",
          "type": "address"
        },
        {
          "internalType": "address",
          "name": "fiduciario_",
          "type": "address"
        }
      ],
      "stateMutability": "nonpayable",
      "type": "constructor"
    },
    {
      "anonymous": false,
      "inputs": [
        {
          "indexed": true,
          "internalType": "address",
          "name": "account",
          "type": "address"
        },
        {
          "indexed": false,
          "internalType": "bool",
          "name": "status",
          "type": "bool"
        }
      ],
      "name": "AccountFrozen",
      "type": "event"
    },
    {
      "anonymous": false,
      "inputs": [
        {
          "indexed": true,
          "internalType": "address",
          "name": "owner",
          "type": "address"
        },
        {
          "indexed": true,
          "internalType": "address",
          "name": "spender",
          "type": "address"
        },
        {
          "indexed": false,
          "internalType": "uint256",
          "name": "value",
          "type": "uint256"
        }
      ],
      "name": "Approval",
      "type": "event"
    },
    {
      "anonymous": false,
      "inputs": [
        {
          "indexed": true,
          "internalType": "address",
          "name": "from",
          "type": "address"
        },
        {
          "indexed": true,
          "internalType": "address",
          "name": "to",
          "type": "address"
        },
        {
          "indexed": false,
          "internalType": "uint256",
          "name": "amount",
          "type": "uint256"
        },
        {
          "indexed": false,
          "internalType": "string",
          "name": "reason",
          "type": "string"
        }
      ],
      "name": "ForceTransfer",
      "type": "event"
    },
    {
      "anonymous": false,
      "inputs": [
        {
          "indexed": true,
          "internalType": "address",
          "name": "previousOwner",
          "type": "address"
        },
        {
          "indexed": true,
          "internalType": "address",
          "name": "newOwner",
          "type": "address"
        }
      ],
      "name": "OwnershipTransferred",
      "type": "event"
    },
    {
      "anonymous": false,
      "inputs": [
        {
          "indexed": false,
          "internalType": "address",
          "name": "account",
          "type": "address"
        }
      ],
      "name": "Paused",
      "type": "event"
    },
    {
      "anonymous": false,
      "inputs": [
        {
          "indexed": false,
          "internalType": "address",
          "name": "from",
          "type": "address"
        },
        {
          "indexed": false,
          "internalType": "uint256",
          "name": "amount",
          "type": "uint256"
        }
      ],
      "name": "RecoverFundsInvestor",
      "type": "event"
    },
    {
      "anonymous": false,
      "inputs": [
        {
          "indexed": true,
          "internalType": "address",
          "name": "owner",
          "type": "address"
        },
        {
          "indexed": false,
          "internalType": "bool",
          "name": "status",
          "type": "bool"
        }
      ],
      "name": "RecoveryOwnerUpdated",
      "type": "event"
    },
    {
      "anonymous": false,
      "inputs": [
        {
          "indexed": false,
          "internalType": "address",
          "name": "from",
          "type": "address"
        },
        {
          "indexed": false,
          "internalType": "uint256",
          "name": "amount",
          "type": "uint256"
        }
      ],
      "name": "RedeemFundsInvestor",
      "type": "event"
    },
    {
      "anonymous": false,
      "inputs": [
        {
          "indexed": false,
          "internalType": "uint256",
          "name": "id",
          "type": "uint256"
        }
      ],
      "name": "Snapshot",
      "type": "event"
    },
    {
      "anonymous": false,
      "inputs": [
        {
          "indexed": true,
          "internalType": "address",
          "name": "from",
          "type": "address"
        },
        {
          "indexed": true,
          "internalType": "address",
          "name": "to",
          "type": "address"
        },
        {
          "indexed": false,
          "internalType": "uint256",
          "name": "value",
          "type": "uint256"
        }
      ],
      "name": "Transfer",
      "type": "event"
    },
    {
      "anonymous": false,
      "inputs": [
        {
          "indexed": false,
          "internalType": "address",
          "name": "account",
          "type": "address"
        }
      ],
      "name": "Unpaused",
      "type": "event"
    },
    {
      "inputs": [
        {
          "internalType": "address",
          "name": "owner",
          "type": "address"
        },
        {
          "internalType": "address",
          "name": "spender",
          "type": "address"
        }
      ],
      "name": "allowance",
      "outputs": [
        {
          "internalType": "uint256",
          "name": "",
          "type": "uint256"
        }
      ],
      "stateMutability": "view",
      "type": "function"
    },
    {
      "inputs": [
        {
          "internalType": "address",
          "name": "spender",
          "type": "address"
        },
        {
          "internalType": "uint256",
          "name": "amount",
          "type": "uint256"
        }
      ],
      "name": "approve",
      "outputs": [
        {
          "internalType": "bool",
          "name": "",
          "type": "bool"
        }
      ],
      "stateMutability": "nonpayable",
      "type": "function"
    },
    {
      "inputs": [
        {
          "internalType": "address",
          "name": "account",
          "type": "address"
        }
      ],
      "name": "balanceOf",
      "outputs": [
        {
          "internalType": "uint256",
          "name": "",
          "type": "uint256"
        }
      ],
      "stateMutability": "view",
      "type": "function"
    },
    {
      "inputs": [
        {
          "internalType": "address",
          "name": "account",
          "type": "address"
        },
        {
          "internalType": "uint256",
          "name": "snapshotId",
          "type": "uint256"
        }
      ],
      "name": "balanceOfAt",
      "outputs": [
        {
          "internalType": "uint256",
          "name": "",
          "type": "uint256"
        }
      ],
      "stateMutability": "view",
      "type": "function"
    },
    {
      "inputs": [],
      "name": "compliance",
      "outputs": [
        {
          "internalType": "contract ICompliance",
          "name": "",
          "type": "address"
        }
      ],
      "stateMutability": "view",
      "type": "function"
    },
    {
      "inputs": [],
      "name": "decimals",
      "outputs": [
        {
          "internalType": "uint8",
          "name": "",
          "type": "uint8"
        }
      ],
      "stateMutability": "view",
      "type": "function"
    },
    {
      "inputs": [
        {
          "internalType": "address",
          "name": "spender",
          "type": "address"
        },
        {
          "internalType": "uint256",
          "name": "subtractedValue",
          "type": "uint256"
        }
      ],
      "name": "decreaseAllowance",
      "outputs": [
        {
          "internalType": "bool",
          "name": "",
          "type": "bool"
        }
      ],
      "stateMutability": "nonpayable",
      "type": "function"
    },
    {
      "inputs": [
        {
          "internalType": "address",
          "name": "from",
          "type": "address"
        },
        {
          "internalType": "address",
          "name": "to",
          "type": "address"
        },
        {
          "internalType": "uint256",
          "name": "amount",
          "type": "uint256"
        },
        {
          "internalType": "string",
          "name": "reason",
          "type": "string"
        }
      ],
      "name": "forceTransfer",
      "outputs": [],
      "stateMutability": "nonpayable",
      "type": "function"
    },
    {
      "inputs": [
        {
          "internalType": "address",
          "name": "account",
          "type": "address"
        },
        {
          "internalType": "bool",
          "name": "status",
          "type": "bool"
        }
      ],
      "name": "freeze",
      "outputs": [],
      "stateMutability": "nonpayable",
      "type": "function"
    },
    {
      "inputs": [],
      "name": "identityRegistry",
      "outputs": [
        {
          "internalType": "contract IIdentityRegistry",
          "name": "",
          "type": "address"
        }
      ],
      "stateMutability": "view",
      "type": "function"
    },
    {
      "inputs": [
        {
          "internalType": "address",
          "name": "spender",
          "type": "address"
        },
        {
          "internalType": "uint256",
          "name": "addedValue",
          "type": "uint256"
        }
      ],
      "name": "increaseAllowance",
      "outputs": [
        {
          "internalType": "bool",
          "name": "",
          "type": "bool"
        }
      ],
      "stateMutability": "nonpayable",
      "type": "function"
    },
    {
      "inputs": [
        {
          "internalType": "address",
          "name": "",
          "type": "address"
        }
      ],
      "name": "isRecoveryOwner",
      "outputs": [
        {
          "internalType": "bool",
          "name": "",
          "type": "bool"
        }
      ],
      "stateMutability": "view",
      "type": "function"
    },
    {
      "inputs": [
        {
          "internalType": "address",
          "name": "to",
          "type": "address"
        },
        {
          "internalType": "uint256",
          "name": "amount",
          "type": "uint256"
        }
      ],
      "name": "mint",
      "outputs": [],
      "stateMutability": "nonpayable",
      "type": "function"
    },
    {
      "inputs": [],
      "name": "name",
      "outputs": [
        {
          "internalType": "string",
          "name": "",
          "type": "string"
        }
      ],
      "stateMutability": "view",
      "type": "function"
    },
    {
      "inputs": [],
      "name": "owner",
      "outputs": [
        {
          "internalType": "address",
          "name": "",
          "type": "address"
        }
      ],
      "stateMutability": "view",
      "type": "function"
    },
    {
      "inputs": [],
      "name": "paused",
      "outputs": [
        {
          "internalType": "bool",
          "name": "",
          "type": "bool"
        }
      ],
      "stateMutability": "view",
      "type": "function"
    },
    {
      "inputs": [
        {
          "internalType": "address",
          "name": "from",
          "type": "address"
        },
        {
          "internalType": "uint256",
          "name": "amount",
          "type": "uint256"
        }
      ],
      "name": "recoverFunds",
      "outputs": [],
      "stateMutability": "nonpayable",
      "type": "function"
    },
    {
      "inputs": [
        {
          "internalType": "address",
          "name": "from",
          "type": "address"
        },
        {
          "internalType": "uint256",
          "name": "amount",
          "type": "uint256"
        }
      ],
      "name": "redeem",
      "outputs": [],
      "stateMutability": "nonpayable",
      "type": "function"
    },
    {
      "inputs": [],
      "name": "renounceOwnership",
      "outputs": [],
      "stateMutability": "nonpayable",
      "type": "function"
    },
    {
      "inputs": [
        {
          "internalType": "address",
          "name": "owner",
          "type": "address"
        },
        {
          "internalType": "bool",
          "name": "status",
          "type": "bool"
        }
      ],
      "name": "setRecoveryOwner",
      "outputs": [],
      "stateMutability": "nonpayable",
      "type": "function"
    },
    {
      "inputs": [
        {
          "internalType": "address",
          "name": "_tokenMinter",
          "type": "address"
        }
      ],
      "name": "setTokenMinter",
      "outputs": [],
      "stateMutability": "nonpayable",
      "type": "function"
    },
    {
      "inputs": [],
      "name": "symbol",
      "outputs": [
        {
          "internalType": "string",
          "name": "",
          "type": "string"
        }
      ],
      "stateMutability": "view",
      "type": "function"
    },
    {
      "inputs": [],
      "name": "takeSnapshot",
      "outputs": [
        {
          "internalType": "uint256",
          "name": "",
          "type": "uint256"
        }
      ],
      "stateMutability": "nonpayable",
      "type": "function"
    },
    {
      "inputs": [],
      "name": "tokenMinter",
      "outputs": [
        {
          "internalType": "address",
          "name": "",
          "type": "address"
        }
      ],
      "stateMutability": "view",
      "type": "function"
    },
    {
      "inputs": [],
      "name": "totalSupply",
      "outputs": [
        {
          "internalType": "uint256",
          "name": "",
          "type": "uint256"
        }
      ],
      "stateMutability": "view",
      "type": "function"
    },
    {
      "inputs": [
        {
          "internalType": "uint256",
          "name": "snapshotId",
          "type": "uint256"
        }
      ],
      "name": "totalSupplyAt",
      "outputs": [
        {
          "internalType": "uint256",
          "name": "",
          "type": "uint256"
        }
      ],
      "stateMutability": "view",
      "type": "function"
    },
    {
      "inputs": [
        {
          "internalType": "address",
          "name": "to",
          "type": "address"
        },
        {
          "internalType": "uint256",
          "name": "amount",
          "type": "uint256"
        }
      ],
      "name": "transfer",
      "outputs": [
        {
          "internalType": "bool",
          "name": "",
          "type": "bool"
        }
      ],
      "stateMutability": "nonpayable",
      "type": "function"
    },
    {
      "inputs": [
        {
          "internalType": "address",
          "name": "from",
          "type": "address"
        },
        {
          "internalType": "address",
          "name": "to",
          "type": "address"
        },
        {
          "internalType": "uint256",
          "name": "amount",
          "type": "uint256"
        }
      ],
      "name": "transferFrom",
      "outputs": [
        {
          "internalType": "bool",
          "name": "",
          "type": "bool"
        }
      ],
      "stateMutability": "nonpayable",
      "type": "function"
    },
    {
      "inputs": [
        {
          "internalType": "address",
          "name": "newOwner",
          "type": "address"
        }
      ],
      "name": "transferOwnership",
      "outputs": [],
      "stateMutability": "nonpayable",
      "type": "function"
    }
  ],
  "bytecode": "0x608060405234801561000f575f5ffd5b5060405161208138038061208183398101604081905261002e9161022c565b8484600361003c8382610345565b5060046100498282610345565b50505061006261005d61011f60201b60201c565b610123565b6009805460ff60a01b191690556001600160a01b0383161580159061008f57506001600160a01b03821615155b6100ce5760405162461bcd60e51b815260206004820152600c60248201526b5a65726f206164647265737360a01b604482015260640160405180910390fd5b600a80546001600160a01b03199081166001600160a01b0395861617909155600b805490911692841692909217909155165f908152600e60205260409020805460ff19166001179055506103ff9050565b3390565b600980546001600160a01b038381166001600160a01b0319831681179093556040519116919082907f8be0079c531659141344cd1fd0a4f28419497f9722a3daafe3b4186f6b6457e0905f90a35050565b634e487b7160e01b5f52604160045260245ffd5b5f82601f830112610197575f5ffd5b81516001600160401b038111156101b0576101b0610174565b604051601f8201601f19908116603f011681016001600160401b03811182821017156101de576101de610174565b6040528181528382016020018510156101f5575f5ffd5b8160208501602083015e5f918101602001919091529392505050565b80516001600160a01b0381168114610227575f5ffd5b919050565b5f5f5f5f5f60a08688031215610240575f5ffd5b85516001600160401b03811115610255575f5ffd5b61026188828901610188565b602088015190965090506001600160401b0381111561027e575f5ffd5b61028a88828901610188565b94505061029960408701610211565b92506102a760608701610211565b91506102b560808701610211565b90509295509295909350565b600181811c908216806102d557607f821691505b6020821081036102f357634e487b7160e01b5f52602260045260245ffd5b50919050565b601f82111561034057805f5260205f20601f840160051c8101602085101561031e5750805b601f840160051c820191505b8181101561033d575f815560010161032a565b50505b505050565b81516001600160401b0381111561035e5761035e610174565b6103728161036c84546102c1565b846102f9565b6020601f8211600181146103a4575f831561038d5750848201515b5f19600385901b1c1916600184901b17845561033d565b5f84815260208120601f198516915b828110156103d357878501518255602094850194600190920191016103b3565b50848210156103f057868401515f19600387901b60f8161c191681555b50505050600190811b01905550565b611c758061040c5f395ff3fe608060405234801561000f575f5ffd5b50600436106101c6575f3560e01c806370a08231116100fe578063981b24d01161009e578063bf120ae51161006e578063bf120ae5146103d5578063cfb3647b146103e8578063dd62ed3e146103fb578063f2fde38b1461040e575f5ffd5b8063981b24d014610394578063a457c2d7146103a7578063a9059cbb146103ba578063b3d3d37e146103cd575f5ffd5b80637aaa7024116100d95780637aaa70241461034657806389021456146103685780638da5cb5b1461037b57806395d89b411461038c575f5ffd5b806370a0823114610303578063715018a61461032b57806378533e9014610333575f5ffd5b8063313ce567116101695780634ee2cd7e116101445780634ee2cd7e146102b857806358609754146102cb5780635c975abb146102de5780636290865d146102f0575f5ffd5b8063313ce56714610283578063395093511461029257806340c10f19146102a5575f5ffd5b8063179fe952116101a4578063179fe9521461023657806318160ddd1461024b5780631e9a69501461025d57806323b872dd14610270575f5ffd5b806306fdde03146101ca578063095ea7b3146101e8578063134e18f41461020b575b5f5ffd5b6101d2610421565b6040516101df9190611965565b60405180910390f35b6101fb6101f63660046119b0565b6104b1565b60405190151581526020016101df565b600a5461021e906001600160a01b031681565b6040516001600160a01b0390911681526020016101df565b6102496102443660046119e5565b6104ca565b005b6002545b6040519081526020016101df565b61024961026b3660046119b0565b610531565b6101fb61027e366004611a1a565b6105a9565b604051601281526020016101df565b6101fb6102a03660046119b0565b6105cc565b6102496102b33660046119b0565b6105ed565b61024f6102c63660046119b0565b6107cd565b6102496102d93660046119b0565b610824565b600954600160a01b900460ff166101fb565b600b5461021e906001600160a01b031681565b61024f610311366004611a54565b6001600160a01b03165f9081526020819052604090205490565b6102496108e2565b610249610341366004611a54565b6108f5565b6101fb610354366004611a54565b600e6020525f908152604090205460ff1681565b610249610376366004611a6d565b610964565b6009546001600160a01b031661021e565b6101d26109e1565b61024f6103a2366004611b02565b6109f0565b6101fb6103b53660046119b0565b610a19565b6101fb6103c83660046119b0565b610a93565b61024f610aa0565b6102496103e33660046119e5565b610ab6565b600c5461021e906001600160a01b031681565b61024f610409366004611b19565b610b15565b61024961041c366004611a54565b610b3f565b60606003805461043090611b4a565b80601f016020809104026020016040519081016040528092919081815260200182805461045c90611b4a565b80156104a75780601f1061047e576101008083540402835291602001916104a7565b820191905f5260205f20905b81548152906001019060200180831161048a57829003601f168201915b5050505050905090565b5f336104be818585610bb8565b60019150505b92915050565b6104d2610cdc565b6001600160a01b0382165f818152600e6020908152604091829020805460ff191685151590811790915591519182527f4629abb9bd05549eb320f0c5770e4baa4dbe57f4efc06d1efb10fdea3bf7c2c891015b60405180910390a25050565b610539610cdc565b610541610d36565b600f805460ff191660011790556105588282610d83565b600f805460ff19169055604080516001600160a01b0384168152602081018390527f796df9b82865aa9d1ce0215cea14c206df7c5a77d036ffbbf858964e2457817691015b60405180910390a15050565b5f336105b6858285610ebb565b6105c1858585610f33565b506001949350505050565b5f336104be8185856105de8383610b15565b6105e89190611b96565b610bb8565b6009546001600160a01b03163314806106105750600c546001600160a01b031633145b6106525760405162461bcd60e51b815260206004820152600e60248201526d139bdd08185d5d1a1bdc9a5e995960921b60448201526064015b60405180910390fd5b61065a610d36565b600a5460405163b9209e3360e01b81526001600160a01b0384811660048301529091169063b9209e3390602401602060405180830381865afa1580156106a2573d5f5f3e3d5ffd5b505050506040513d601f19601f820116820180604052508101906106c69190611ba9565b6107045760405162461bcd60e51b815260206004820152600f60248201526e4b5943206e6f206170726f6261646f60881b6044820152606401610649565b600b546040516372331c7360e11b81525f60048201526001600160a01b038481166024830152604482018490529091169063e46638e690606401602060405180830381865afa158015610759573d5f5f3e3d5ffd5b505050506040513d601f19601f8201168201806040525081019061077d9190611ba9565b6107bf5760405162461bcd60e51b8152602060048201526013602482015272436f6d706c69616e636520696e76616c69646f60681b6044820152606401610649565b6107c982826110e0565b5050565b6001600160a01b0382165f908152600560205260408120819081906107f39085906111a8565b9150915081610819576001600160a01b0385165f9081526020819052604090205461081b565b805b95945050505050565b335f908152600e602052604090205460ff166108825760405162461bcd60e51b815260206004820152601b60248201527f4e6f206175746f72697a61646f2070617261207265636f7665727900000000006044820152606401610649565b600f805460ff191660011790556108998282610d83565b600f805460ff19169055604080516001600160a01b0384168152602081018390527f36bc4af31446add1a5548a0d9a923613fec78c19bde6343a41450a27b574584d910161059d565b6108ea610cdc565b6108f35f611298565b565b6108fd610cdc565b6001600160a01b0381166109425760405162461bcd60e51b815260206004820152600c60248201526b5a65726f206164647265737360a01b6044820152606401610649565b600c80546001600160a01b0319166001600160a01b0392909216919091179055565b61096c610cdc565b600f805460ff19166001179055610984858585610f33565b600f805460ff191690556040516001600160a01b0380861691908716907f2eaee783069d2f4cc557477a5af4ed6420985b57c0f64b600e0601415b580ba0906109d290879087908790611bc4565b60405180910390a35050505050565b60606004805461043090611b4a565b5f5f5f6109fe8460066111a8565b9150915081610a0f57600254610a11565b805b949350505050565b5f3381610a268286610b15565b905083811015610a865760405162461bcd60e51b815260206004820152602560248201527f45524332303a2064656372656173656420616c6c6f77616e63652062656c6f77604482015264207a65726f60d81b6064820152608401610649565b6105c18286868403610bb8565b5f336104be818585610f33565b5f610aa9610cdc565b610ab16112e9565b905090565b610abe610cdc565b6001600160a01b0382165f818152600d6020908152604091829020805460ff191685151590811790915591519182527fa33e6b076d391e96626483b30e365719f79f1d6594aff6587649ffd6c82ed7fa9101610525565b6001600160a01b039182165f90815260016020908152604080832093909416825291909152205490565b610b47610cdc565b6001600160a01b038116610bac5760405162461bcd60e51b815260206004820152602660248201527f4f776e61626c653a206e6577206f776e657220697320746865207a65726f206160448201526564647265737360d01b6064820152608401610649565b610bb581611298565b50565b6001600160a01b038316610c1a5760405162461bcd60e51b8152602060048201526024808201527f45524332303a20617070726f76652066726f6d20746865207a65726f206164646044820152637265737360e01b6064820152608401610649565b6001600160a01b038216610c7b5760405162461bcd60e51b815260206004820152602260248201527f45524332303a20617070726f766520746f20746865207a65726f206164647265604482015261737360f01b6064820152608401610649565b6001600160a01b038381165f8181526001602090815260408083209487168084529482529182902085905590518481527f8c5be1e5ebec7d5bd14f71427d1e84f3dd0314c0f7b2291e5b200ac8c7c3b92591015b60405180910390a3505050565b6009546001600160a01b031633146108f35760405162461bcd60e51b815260206004820181905260248201527f4f776e61626c653a2063616c6c6572206973206e6f7420746865206f776e65726044820152606401610649565b600954600160a01b900460ff16156108f35760405162461bcd60e51b815260206004820152601060248201526f14185d5cd8589b194e881c185d5cd95960821b6044820152606401610649565b6001600160a01b038216610de35760405162461bcd60e51b815260206004820152602160248201527f45524332303a206275726e2066726f6d20746865207a65726f206164647265736044820152607360f81b6064820152608401610649565b610dee825f83611341565b6001600160a01b0382165f9081526020819052604090205481811015610e615760405162461bcd60e51b815260206004820152602260248201527f45524332303a206275726e20616d6f756e7420657863656564732062616c616e604482015261636560f01b6064820152608401610649565b6001600160a01b0383165f818152602081815260408083208686039055600280548790039055518581529192917fddf252ad1be2c89b69c2b068fc378daa952ba7f163c4a11628f55a4df523b3ef9101610ccf565b505050565b5f610ec68484610b15565b90505f198114610f2d5781811015610f205760405162461bcd60e51b815260206004820152601d60248201527f45524332303a20696e73756666696369656e7420616c6c6f77616e63650000006044820152606401610649565b610f2d8484848403610bb8565b50505050565b6001600160a01b038316610f975760405162461bcd60e51b815260206004820152602560248201527f45524332303a207472616e736665722066726f6d20746865207a65726f206164604482015264647265737360d81b6064820152608401610649565b6001600160a01b038216610ff95760405162461bcd60e51b815260206004820152602360248201527f45524332303a207472616e7366657220746f20746865207a65726f206164647260448201526265737360e81b6064820152608401610649565b611004838383611341565b6001600160a01b0383165f908152602081905260409020548181101561107b5760405162461bcd60e51b815260206004820152602660248201527f45524332303a207472616e7366657220616d6f756e7420657863656564732062604482015265616c616e636560d01b6064820152608401610649565b6001600160a01b038481165f81815260208181526040808320878703905593871680835291849020805487019055925185815290927fddf252ad1be2c89b69c2b068fc378daa952ba7f163c4a11628f55a4df523b3ef910160405180910390a3610f2d565b6001600160a01b0382166111365760405162461bcd60e51b815260206004820152601f60248201527f45524332303a206d696e7420746f20746865207a65726f2061646472657373006044820152606401610649565b6111415f8383611341565b8060025f8282546111529190611b96565b90915550506001600160a01b0382165f81815260208181526040808320805486019055518481527fddf252ad1be2c89b69c2b068fc378daa952ba7f163c4a11628f55a4df523b3ef910160405180910390a35050565b5f5f5f84116111f25760405162461bcd60e51b815260206004820152601660248201527504552433230536e617073686f743a20696420697320360541b6044820152606401610649565b6111fa61177f565b8411156112495760405162461bcd60e51b815260206004820152601d60248201527f4552433230536e617073686f743a206e6f6e6578697374656e742069640000006044820152606401610649565b5f6112548486611789565b8454909150810361126b575f5f9250925050611291565b600184600101828154811061128257611282611bf9565b905f5260205f20015492509250505b9250929050565b600980546001600160a01b038381166001600160a01b0319831681179093556040519116919082907f8be0079c531659141344cd1fd0a4f28419497f9722a3daafe3b4186f6b6457e0905f90a35050565b5f6112f8600880546001019055565b5f61130161177f565b90507f8030e83b04d87bef53480e26263266d6ca66863aa8506aca6f2559d18aa1cb678160405161133491815260200190565b60405180910390a1919050565b600954600160a01b900460ff161561138f5760405162461bcd60e51b8152602060048201526011602482015270436f6e747261746f20656e20706175736160781b6044820152606401610649565b61139a83838361182f565b6001600160a01b03831615806113b757506001600160a01b038216155b156113c157505050565b600f5460ff16156113d157505050565b6009546001600160a01b03848116911614806113fb5750335f908152600e602052604090205460ff165b8061141357506009546001600160a01b038381169116145b8061142c5750335f908152600e602052604090205460ff165b6114955760405162461bcd60e51b815260206004820152603460248201527f5472616e73666572656e6369617320646972656374617320656e747265207573604482015273756172696f73206e6f207065726d69746964617360601b6064820152608401610649565b6001600160a01b0383165f908152600d602052604090205460ff16156114fd5760405162461bcd60e51b815260206004820152601760248201527f4375656e7461206f726967656e20636f6e67656c6164610000000000000000006044820152606401610649565b600a5460405163b9209e3360e01b81526001600160a01b0385811660048301529091169063b9209e3390602401602060405180830381865afa158015611545573d5f5f3e3d5ffd5b505050506040513d601f19601f820116820180604052508101906115699190611ba9565b6115a65760405162461bcd60e51b815260206004820152600e60248201526d4f726967656e2073696e204b594360901b6044820152606401610649565b6001600160a01b0382165f908152600d602052604090205460ff161561160e5760405162461bcd60e51b815260206004820152601860248201527f4375656e74612064657374696e6f20636f6e67656c61646100000000000000006044820152606401610649565b600a5460405163b9209e3360e01b81526001600160a01b0384811660048301529091169063b9209e3390602401602060405180830381865afa158015611656573d5f5f3e3d5ffd5b505050506040513d601f19601f8201168201806040525081019061167a9190611ba9565b6116b85760405162461bcd60e51b815260206004820152600f60248201526e44657374696e6f2073696e204b594360881b6044820152606401610649565b600b546040516372331c7360e11b81526001600160a01b0385811660048301528481166024830152604482018490529091169063e46638e690606401602060405180830381865afa15801561170f573d5f5f3e3d5ffd5b505050506040513d601f19601f820116820180604052508101906117339190611ba9565b610eb65760405162461bcd60e51b815260206004820181905260248201527f436f6d706c69616e636520626c6f7175656f207472616e73666572656e6369616044820152606401610649565b5f610ab160085490565b81545f90810361179a57505f6104c4565b82545f905b808210156117e4575f6117b28383611877565b5f87815260209020909150859082015411156117d0578091506117de565b6117db816001611b96565b92505b5061179f565b5f8211801561180e57508361180b866117fe600186611c0d565b5f91825260209091200190565b54145b156118275761181e600183611c0d565b925050506104c4565b5090506104c4565b6001600160a01b03831661184e5761184682611898565b610eb66118c9565b6001600160a01b0382166118655761184683611898565b61186e83611898565b610eb682611898565b5f6118856002848418611c20565b61189190848416611b96565b9392505050565b6001600160a01b0381165f9081526005602090815260408083209183905290912054610bb591906118d7565b6118d7565b6108f360066118c460025490565b5f6118e061177f565b9050806118ec8461191f565b1015610eb6578254600180820185555f858152602080822090930193909355938401805494850181558252902090910155565b80545f90810361193057505f919050565b8154829061194090600190611c0d565b8154811061195057611950611bf9565b905f5260205f2001549050919050565b919050565b602081525f82518060208401528060208501604085015e5f604082850101526040601f19601f83011684010191505092915050565b80356001600160a01b0381168114611960575f5ffd5b5f5f604083850312156119c1575f5ffd5b6119ca8361199a565b946020939093013593505050565b8015158114610bb5575f5ffd5b5f5f604083850312156119f6575f5ffd5b6119ff8361199a565b91506020830135611a0f816119d8565b809150509250929050565b5f5f5f60608486031215611a2c575f5ffd5b611a358461199a565b9250611a436020850161199a565b929592945050506040919091013590565b5f60208284031215611a64575f5ffd5b6118918261199a565b5f5f5f5f5f60808688031215611a81575f5ffd5b611a8a8661199a565b9450611a986020870161199a565b935060408601359250606086013567ffffffffffffffff811115611aba575f5ffd5b8601601f81018813611aca575f5ffd5b803567ffffffffffffffff811115611ae0575f5ffd5b886020828401011115611af1575f5ffd5b959894975092955050506020019190565b5f60208284031215611b12575f5ffd5b5035919050565b5f5f60408385031215611b2a575f5ffd5b611b338361199a565b9150611b416020840161199a565b90509250929050565b600181811c90821680611b5e57607f821691505b602082108103611b7c57634e487b7160e01b5f52602260045260245ffd5b50919050565b634e487b7160e01b5f52601160045260245ffd5b808201808211156104c4576104c4611b82565b5f60208284031215611bb9575f5ffd5b8151611891816119d8565b83815260406020820152816040820152818360608301375f818301606090810191909152601f909201601f1916010192915050565b634e487b7160e01b5f52603260045260245ffd5b818103818111156104c4576104c4611b82565b5f82611c3a57634e487b7160e01b5f52601260045260245ffd5b50049056fea264697066735822122038d2b24718d5e1fda1beb9bdd3b2f8242738439814e425377787d597b18aba6064736f6c634300081b0033",
  "linkReferences": {},
  "deployedLinkReferences": {}
}