{
  "_format": "hh-sol-artifact-1",
  "contractName": "FiduciaryManager",
  "sourceName": "contracts/global/FiduciaryManager.sol",
  "abi": [
    {
      "anonymous": false,
      "inputs": [
        {
          "indexed": true,
          "internalType": "address",
          "name": "fiduciario",
          "type": "address"
        },
        {
          "indexed": false,
          "internalType": "bool",
          "name": "status",
          "type": "bool"
        }
      ],
      "name": "FiduciarioUpdated",
      "type": "event"
    },
    {
      "anonymous": false,
      "inputs": [
        {
          "indexed": false,
          "internalType": "uint8",
          "name": "version",
          "type": "uint8"
        }
      ],
      "name": "Initialized",
      "type": "event"
    },
    {
      "anonymous": false,
      "inputs": [
        {
          "indexed": true,
          "internalType": "address",
          "name": "previousOwner",
          "type": "address"
        },
        {
          "indexed": true,
          "internalType": "address",
          "name": "newOwner",
          "type": "address"
        }
      ],
      "name": "OwnershipTransferred",
      "type": "event"
    },
    {
      "inputs": [
        {
          "internalType": "address",
          "name": "",
          "type": "address"
        }
      ],
      "name": "fiduciarios",
      "outputs": [
        {
          "internalType": "bool",
          "name": "",
          "type": "bool"
        }
      ],
      "stateMutability": "view",
      "type": "function"
    },
    {
      "inputs": [],
      "name": "initialize",
      "outputs": [],
      "stateMutability": "nonpayable",
      "type": "function"
    },
    {
      "inputs": [
        {
          "internalType": "address",
          "name": "fiduciario",
          "type": "address"
        }
      ],
      "name": "isFiduciario",
      "outputs": [
        {
          "internalType": "bool",
          "name": "",
          "type": "bool"
        }
      ],
      "stateMutability": "view",
      "type": "function"
    },
    {
      "inputs": [],
      "name": "owner",
      "outputs": [
        {
          "internalType": "address",
          "name": "",
          "type": "address"
        }
      ],
      "stateMutability": "view",
      "type": "function"
    },
    {
      "inputs": [],
      "name": "renounceOwnership",
      "outputs": [],
      "stateMutability": "nonpayable",
      "type": "function"
    },
    {
      "inputs": [
        {
          "internalType": "address",
          "name": "fiduciario",
          "type": "address"
        },
        {
          "internalType": "bool",
          "name": "status",
          "type": "bool"
        }
      ],
      "name": "setFiduciario",
      "outputs": [],
      "stateMutability": "nonpayable",
      "type": "function"
    },
    {
      "inputs": [
        {
          "internalType": "address",
          "name": "newOwner",
          "type": "address"
        }
      ],
      "name": "transferOwnership",
      "outputs": [],
      "stateMutability": "nonpayable",
      "type": "function"
    }
  ],
  "bytecode": "0x6080604052348015600e575f5ffd5b5061052a8061001c5f395ff3fe608060405234801561000f575f5ffd5b506004361061007a575f3560e01c80638129fc1c116100585780638129fc1c146100d25780638da5cb5b146100da578063f2fde38b146100f5578063fe39ae9d14610108575f5ffd5b8063471f16e61461007e57806354c31a48146100b5578063715018a6146100ca575b5f5ffd5b6100a061008c366004610450565b60656020525f908152604090205460ff1681565b60405190151581526020015b60405180910390f35b6100c86100c3366004610470565b610133565b005b6100c8610199565b6100c86101ac565b6033546040516001600160a01b0390911681526020016100ac565b6100c8610103366004610450565b6102bc565b6100a0610116366004610450565b6001600160a01b03165f9081526065602052604090205460ff1690565b61013b610332565b6001600160a01b0382165f81815260656020908152604091829020805460ff191685151590811790915591519182527f6dd59b56e4bf008449a0546fe2c73cab5476dea94d0196a37f27464262d91f7e910160405180910390a25050565b6101a1610332565b6101aa5f61038c565b565b5f54610100900460ff16158080156101ca57505f54600160ff909116105b806101e35750303b1580156101e357505f5460ff166001145b61024b5760405162461bcd60e51b815260206004820152602e60248201527f496e697469616c697a61626c653a20636f6e747261637420697320616c72656160448201526d191e481a5b9a5d1a585b1a5e995960921b60648201526084015b60405180910390fd5b5f805460ff19166001179055801561026c575f805461ff0019166101001790555b6102746103dd565b80156102b9575f805461ff0019169055604051600181527f7f26b83ff96e1f2b6a682f133852f6798a09c465da95921460cefb38474024989060200160405180910390a15b50565b6102c4610332565b6001600160a01b0381166103295760405162461bcd60e51b815260206004820152602660248201527f4f776e61626c653a206e6577206f776e657220697320746865207a65726f206160448201526564647265737360d01b6064820152608401610242565b6102b98161038c565b6033546001600160a01b031633146101aa5760405162461bcd60e51b815260206004820181905260248201527f4f776e61626c653a2063616c6c6572206973206e6f7420746865206f776e65726044820152606401610242565b603380546001600160a01b038381166001600160a01b0319831681179093556040519116919082907f8be0079c531659141344cd1fd0a4f28419497f9722a3daafe3b4186f6b6457e0905f90a35050565b5f54610100900460ff166104035760405162461bcd60e51b8152600401610242906104a9565b6101aa5f54610100900460ff1661042c5760405162461bcd60e51b8152600401610242906104a9565b6101aa3361038c565b80356001600160a01b038116811461044b575f5ffd5b919050565b5f60208284031215610460575f5ffd5b61046982610435565b9392505050565b5f5f60408385031215610481575f5ffd5b61048a83610435565b91506020830135801515811461049e575f5ffd5b809150509250929050565b6020808252602b908201527f496e697469616c697a61626c653a20636f6e7472616374206973206e6f74206960408201526a6e697469616c697a696e6760a81b60608201526080019056fea2646970667358221220a710facfe99eb4fd29b7ecb6d4185aa79a458aad44656c7284d5c05bb3ab248c64736f6c634300081b0033",
  "linkReferences": {},
  "deployedLinkReferences": {}
}