{
  "_format": "hh-sol-artifact-1",
  "contractName": "YieldDistributor",
  "sourceName": "contracts/local/YieldDistributor.sol",
  "abi": [
    {
      "inputs": [
        {
          "internalType": "address",
          "name": "_fideiToken",
          "type": "address"
        },
        {
          "internalType": "address",
          "name": "_owner",
          "type": "address"
        },
        {
          "internalType": "address",
          "name": "_rewardToken",
          "type": "address"
        },
        {
          "internalType": "address",
          "name": "_core",
          "type": "address"
        },
        {
          "internalType": "address",
          "name": "_identityRegistry",
          "type": "address"
        }
      ],
      "stateMutability": "nonpayable",
      "type": "constructor"
    },
    {
      "anonymous": false,
      "inputs": [
        {
          "indexed": true,
          "internalType": "uint256",
          "name": "distId",
          "type": "uint256"
        },
        {
          "indexed": true,
          "internalType": "uint256",
          "name": "campaignId",
          "type": "uint256"
        },
        {
          "indexed": false,
          "internalType": "uint256",
          "name": "snapshotId",
          "type": "uint256"
        },
        {
          "indexed": false,
          "internalType": "uint256",
          "name": "totalAmount",
          "type": "uint256"
        }
      ],
      "name": "DistributionCreated",
      "type": "event"
    },
    {
      "anonymous": false,
      "inputs": [
        {
          "indexed": true,
          "internalType": "address",
          "name": "previousOwner",
          "type": "address"
        },
        {
          "indexed": true,
          "internalType": "address",
          "name": "newOwner",
          "type": "address"
        }
      ],
      "name": "OwnershipTransferred",
      "type": "event"
    },
    {
      "inputs": [
        {
          "internalType": "uint256",
          "name": "distId",
          "type": "uint256"
        }
      ],
      "name": "claim",
      "outputs": [],
      "stateMutability": "nonpayable",
      "type": "function"
    },
    {
      "inputs": [],
      "name": "core",
      "outputs": [
        {
          "internalType": "contract ICore",
          "name": "",
          "type": "address"
        }
      ],
      "stateMutability": "view",
      "type": "function"
    },
    {
      "inputs": [
        {
          "internalType": "uint256",
          "name": "_campaignId",
          "type": "uint256"
        },
        {
          "internalType": "uint256",
          "name": "snapshotId",
          "type": "uint256"
        },
        {
          "internalType": "uint256",
          "name": "totalAmount",
          "type": "uint256"
        }
      ],
      "name": "createDistribution",
      "outputs": [
        {
          "internalType": "uint256",
          "name": "",
          "type": "uint256"
        }
      ],
      "stateMutability": "nonpayable",
      "type": "function"
    },
    {
      "inputs": [
        {
          "internalType": "uint256",
          "name": "",
          "type": "uint256"
        }
      ],
      "name": "distributions",
      "outputs": [
        {
          "internalType": "uint256",
          "name": "id",
          "type": "uint256"
        },
        {
          "internalType": "uint256",
          "name": "snapshotId",
          "type": "uint256"
        },
        {
          "internalType": "uint256",
          "name": "totalAmount",
          "type": "uint256"
        },
        {
          "internalType": "uint256",
          "name": "claimedAmount",
          "type": "uint256"
        },
        {
          "internalType": "bool",
          "name": "active",
          "type": "bool"
        },
        {
          "internalType": "uint256",
          "name": "certificateId",
          "type": "uint256"
        }
      ],
      "stateMutability": "view",
      "type": "function"
    },
    {
      "inputs": [],
      "name": "fideiToken",
      "outputs": [
        {
          "internalType": "contract FideiToken",
          "name": "",
          "type": "address"
        }
      ],
      "stateMutability": "view",
      "type": "function"
    },
    {
      "inputs": [],
      "name": "identityRegistry",
      "outputs": [
        {
          "internalType": "contract IIdentityRegistry",
          "name": "",
          "type": "address"
        }
      ],
      "stateMutability": "view",
      "type": "function"
    },
    {
      "inputs": [],
      "name": "owner",
      "outputs": [
        {
          "internalType": "address",
          "name": "",
          "type": "address"
        }
      ],
      "stateMutability": "view",
      "type": "function"
    },
    {
      "inputs": [],
      "name": "renounceOwnership",
      "outputs": [],
      "stateMutability": "nonpayable",
      "type": "function"
    },
    {
      "inputs": [],
      "name": "rewardToken",
      "outputs": [
        {
          "internalType": "contract IERC20",
          "name": "",
          "type": "address"
        }
      ],
      "stateMutability": "view",
      "type": "function"
    },
    {
      "inputs": [
        {
          "internalType": "uint256",
          "name": "distId",
          "type": "uint256"
        },
        {
          "internalType": "address",
          "name": "to",
          "type": "address"
        }
      ],
      "name": "sweep",
      "outputs": [],
      "stateMutability": "nonpayable",
      "type": "function"
    },
    {
      "inputs": [
        {
          "internalType": "address",
          "name": "newOwner",
          "type": "address"
        }
      ],
      "name": "transferOwnership",
      "outputs": [],
      "stateMutability": "nonpayable",
      "type": "function"
    }
  ],
  "bytecode": "0x608060405234801561000f575f5ffd5b506040516114b03803806114b083398101604081905261002e916101ee565b610037336100ab565b60018055600480546001600160a01b038088166001600160a01b031992831617909255600580548684169083161790556003805492851692909116919091179055610081846100fa565b600280546001600160a01b0319166001600160a01b03929092169190911790555061024f92505050565b5f80546001600160a01b038381166001600160a01b0319831681178455604051919092169283917f8be0079c531659141344cd1fd0a4f28419497f9722a3daafe3b4186f6b6457e09190a35050565b610102610178565b6001600160a01b03811661016c5760405162461bcd60e51b815260206004820152602660248201527f4f776e61626c653a206e6577206f776e657220697320746865207a65726f206160448201526564647265737360d01b60648201526084015b60405180910390fd5b610175816100ab565b50565b5f546001600160a01b031633146101d15760405162461bcd60e51b815260206004820181905260248201527f4f776e61626c653a2063616c6c6572206973206e6f7420746865206f776e65726044820152606401610163565b565b80516001600160a01b03811681146101e9575f5ffd5b919050565b5f5f5f5f5f60a08688031215610202575f5ffd5b61020b866101d3565b9450610219602087016101d3565b9350610227604087016101d3565b9250610235606087016101d3565b9150610243608087016101d3565b90509295509295909350565b6112548061025c5f395ff3fe608060405234801561000f575f5ffd5b50600436106100a6575f3560e01c80638da5cb5b1161006e5780638da5cb5b1461015a578063b217b3321461016a578063cbf9b84b1461017d578063f2f4eb2614610190578063f2fde38b146101a3578063f7c618c1146101b6575f5ffd5b8063134e18f4146100aa578063379607f5146100da5780634487d3df146100ef578063715018a6146101315780637570606314610139575b5f5ffd5b6002546100bd906001600160a01b031681565b6040516001600160a01b0390911681526020015b60405180910390f35b6100ed6100e8366004610f25565b6101c9565b005b6101026100fd366004610f25565b6105d8565b6040805196875260208701959095529385019290925260608401521515608083015260a082015260c0016100d1565b6100ed610622565b61014c610147366004610f3c565b610635565b6040519081526020016100d1565b5f546001600160a01b03166100bd565b6004546100bd906001600160a01b031681565b6100ed61018b366004610f79565b610948565b6003546100bd906001600160a01b031681565b6100ed6101b1366004610fa7565b610aab565b6005546100bd906001600160a01b031681565b6101d1610b21565b60025460405163b9209e3360e01b81523360048201526001600160a01b039091169063b9209e3390602401602060405180830381865afa158015610217573d5f5f3e3d5ffd5b505050506040513d601f19601f8201168201806040525081019061023b9190610fc9565b61027e5760405162461bcd60e51b815260206004820152600f60248201526e2737ba1030b71034b73b32b9ba37b960891b60448201526064015b60405180910390fd5b60065481106102c95760405162461bcd60e51b8152602060048201526017602482015276125b9d985b1a5908191a5cdd1c9a589d5d1a5bdb881251604a1b6044820152606401610275565b5f600682815481106102dd576102dd610fe8565b5f9182526020909120600790910201600481015490915060ff166103435760405162461bcd60e51b815260206004820152601a60248201527f446973747269627574696f6e206973206e6f74206163746976650000000000006044820152606401610275565b335f90815260068201602052604090205460ff16156103965760405162461bcd60e51b815260206004820152600f60248201526e105b1c9958591e4818db185a5b5959608a1b6044820152606401610275565b60048054600183015460405163277166bf60e11b8152339381019390935260248301525f916001600160a01b0390911690634ee2cd7e90604401602060405180830381865afa1580156103eb573d5f5f3e3d5ffd5b505050506040513d601f19601f8201168201806040525081019061040f9190610ffc565b90505f81116104585760405162461bcd60e51b8152602060048201526015602482015274139bc81d1bdad95b9cc8185d081cdb985c1cda1bdd605a1b6044820152606401610275565b600480546001840154604051630981b24d60e41b8152928301525f916001600160a01b039091169063981b24d090602401602060405180830381865afa1580156104a4573d5f5f3e3d5ffd5b505050506040513d601f19601f820116820180604052508101906104c89190610ffc565b90505f81116105195760405162461bcd60e51b815260206004820181905260248201527f546f74616c20737570706c7920617420736e617073686f74206973207a65726f6044820152606401610275565b5f8184600201548461052b9190611027565b6105359190611044565b90505f811161057d5760405162461bcd60e51b8152602060048201526014602482015273436c61696d20616d6f756e74206973207a65726f60601b6044820152606401610275565b335f9081526006850160205260408120805460ff191660011790556003850180548392906105ac908490611063565b90915550506005546105c8906001600160a01b03163383610b7a565b505050506105d560018055565b50565b600681815481106105e7575f80fd5b5f9182526020909120600790910201805460018201546002830154600384015460048501546005909501549395509193909260ff9091169086565b61062a610be2565b6106335f610c3b565b565b5f61063e610be2565b5f84116106835760405162461bcd60e51b8152602060048201526013602482015272125b9d985b1a590818d85b5c185a59db881251606a1b6044820152606401610275565b5f82116106de5760405162461bcd60e51b815260206004820152602360248201527f546f74616c20616d6f756e74206d75737420626520677265617465722074686160448201526206e20360ec1b6064820152608401610275565b6005546106f6906001600160a01b0316333085610c8a565b60068054600180820183555f928352600782027ff652222313e28459528d920b65115c16c04f3efc82aaedc97be59f3f377c0d3f81018381557ff652222313e28459528d920b65115c16c04f3efc82aaedc97be59f3f377c0d4082018890557ff652222313e28459528d920b65115c16c04f3efc82aaedc97be59f3f377c0d4182018790557ff652222313e28459528d920b65115c16c04f3efc82aaedc97be59f3f377c0d4282018590557ff652222313e28459528d920b65115c16c04f3efc82aaedc97be59f3f377c0d43909101805460ff19169092179091556003546040516370399a3360e11b815260048101899052929391926001600160a01b039091169063e07334669060240161016060405180830381865afa15801561081d573d5f5f3e3d5ffd5b505050506040513d601f19601f8201168201806040525081019061084191906110ca565b805190915087146108945760405162461bcd60e51b815260206004820152601760248201527f43616d706169676e20646f6573206e6f742065786973740000000000000000006044820152606401610275565b600354610100820151610120830151604051634452ac3960e01b81526001600160a01b0390931692634452ac39926108d3928c92600590600401611177565b5f604051808303815f87803b1580156108ea575f5ffd5b505af11580156108fc573d5f5f3e3d5ffd5b505060408051898152602081018990528a93508692507f030cc28c5178dde1c0af5e41877502b965d3c466c9e80aca0b05556daa0c9f64910160405180910390a3509395945050505050565b610950610be2565b610958610b21565b60065482106109a35760405162461bcd60e51b8152602060048201526017602482015276125b9d985b1a5908191a5cdd1c9a589d5d1a5bdb881251604a1b6044820152606401610275565b5f600683815481106109b7576109b7610fe8565b5f9182526020909120600790910201600481015490915060ff16610a1d5760405162461bcd60e51b815260206004820152601a60248201527f446973747269627574696f6e206973206e6f74206163746976650000000000006044820152606401610275565b5f81600301548260020154610a3291906111c0565b90505f8111610a795760405162461bcd60e51b81526020600482015260136024820152724e6f20756e636c61696d656420746f6b656e7360681b6044820152606401610275565b60048201805460ff19169055600554610a9c906001600160a01b03168483610b7a565b5050610aa760018055565b5050565b610ab3610be2565b6001600160a01b038116610b185760405162461bcd60e51b815260206004820152602660248201527f4f776e61626c653a206e6577206f776e657220697320746865207a65726f206160448201526564647265737360d01b6064820152608401610275565b6105d581610c3b565b600260015403610b735760405162461bcd60e51b815260206004820152601f60248201527f5265656e7472616e637947756172643a207265656e7472616e742063616c6c006044820152606401610275565b6002600155565b6040516001600160a01b038316602482015260448101829052610bdd90849063a9059cbb60e01b906064015b60408051601f198184030181529190526020810180516001600160e01b03166001600160e01b031990931692909217909152610cc8565b505050565b5f546001600160a01b031633146106335760405162461bcd60e51b815260206004820181905260248201527f4f776e61626c653a2063616c6c6572206973206e6f7420746865206f776e65726044820152606401610275565b5f80546001600160a01b038381166001600160a01b0319831681178455604051919092169283917f8be0079c531659141344cd1fd0a4f28419497f9722a3daafe3b4186f6b6457e09190a35050565b6040516001600160a01b0380851660248301528316604482015260648101829052610cc29085906323b872dd60e01b90608401610ba6565b50505050565b5f610d1c826040518060400160405280602081526020017f5361666545524332303a206c6f772d6c6576656c2063616c6c206661696c6564815250856001600160a01b0316610d9b9092919063ffffffff16565b905080515f1480610d3c575080806020019051810190610d3c9190610fc9565b610bdd5760405162461bcd60e51b815260206004820152602a60248201527f5361666545524332303a204552433230206f7065726174696f6e20646964206e6044820152691bdd081cdd58d8d9595960b21b6064820152608401610275565b6060610da984845f85610db1565b949350505050565b606082471015610e125760405162461bcd60e51b815260206004820152602660248201527f416464726573733a20696e73756666696369656e742062616c616e636520666f6044820152651c8818d85b1b60d21b6064820152608401610275565b5f5f866001600160a01b03168587604051610e2d91906111d3565b5f6040518083038185875af1925050503d805f8114610e67576040519150601f19603f3d011682016040523d82523d5f602084013e610e6c565b606091505b5091509150610e7d87838387610e88565b979650505050505050565b60608315610ef65782515f03610eef576001600160a01b0385163b610eef5760405162461bcd60e51b815260206004820152601d60248201527f416464726573733a2063616c6c20746f206e6f6e2d636f6e74726163740000006044820152606401610275565b5081610da9565b610da98383815115610f0b5781518083602001fd5b8060405162461bcd60e51b815260040161027591906111e9565b5f60208284031215610f35575f5ffd5b5035919050565b5f5f5f60608486031215610f4e575f5ffd5b505081359360208301359350604090920135919050565b6001600160a01b03811681146105d5575f5ffd5b5f5f60408385031215610f8a575f5ffd5b823591506020830135610f9c81610f65565b809150509250929050565b5f60208284031215610fb7575f5ffd5b8135610fc281610f65565b9392505050565b5f60208284031215610fd9575f5ffd5b81518015158114610fc2575f5ffd5b634e487b7160e01b5f52603260045260245ffd5b5f6020828403121561100c575f5ffd5b5051919050565b634e487b7160e01b5f52601160045260245ffd5b808202811582820484141761103e5761103e611013565b92915050565b5f8261105e57634e487b7160e01b5f52601260045260245ffd5b500490565b8082018082111561103e5761103e611013565b604051610160810167ffffffffffffffff811182821017156110a657634e487b7160e01b5f52604160045260245ffd5b60405290565b80516110b781610f65565b919050565b8051600981106110b7575f5ffd5b5f6101608284031280156110dc575f5ffd5b506110e5611076565b825181526110f5602084016110ac565b602082015260408381015190820152606080840151908201526080808401519082015260a0808401519082015261112e60c084016110bc565b60c082015260e0838101519082015261114a61010084016110ac565b61010082015261115d61012084016110ac565b610120820152610140928301519281019290925250919050565b8481526001600160a01b0384811660208301528316604082015260808101600983106111b157634e487b7160e01b5f52602160045260245ffd5b82606083015295945050505050565b8181038181111561103e5761103e611013565b5f82518060208501845e5f920191825250919050565b602081525f82518060208401528060208501604085015e5f604082850101526040601f19601f8301168401019150509291505056fea26469706673582212204c8d7d37b51f1785a0ceab0b90be095caa8dd330a9f0288c92f3ea50623e712f64736f6c634300081b0033",
  "linkReferences": {},
  "deployedLinkReferences": {}
}