{
  "_format": "hh-sol-artifact-1",
  "contractName": "CertificateRegistry",
  "sourceName": "contracts/global/CertificateRegistry.sol",
  "abi": [
    {
      "anonymous": false,
      "inputs": [
        {
          "indexed": true,
          "internalType": "uint256",
          "name": "id",
          "type": "uint256"
        },
        {
          "indexed": true,
          "internalType": "uint256",
          "name": "campaignId",
          "type": "uint256"
        },
        {
          "indexed": false,
          "internalType": "uint256",
          "name": "totalCertificates",
          "type": "uint256"
        },
        {
          "indexed": true,
          "internalType": "address",
          "name": "fiduciary",
          "type": "address"
        }
      ],
      "name": "CertificateCreated",
      "type": "event"
    },
    {
      "anonymous": false,
      "inputs": [
        {
          "indexed": true,
          "internalType": "uint256",
          "name": "id",
          "type": "uint256"
        },
        {
          "indexed": false,
          "internalType": "uint256",
          "name": "issuedTokens",
          "type": "uint256"
        },
        {
          "indexed": false,
          "internalType": "bool",
          "name": "active",
          "type": "bool"
        }
      ],
      "name": "CertificateUpdated",
      "type": "event"
    },
    {
      "anonymous": false,
      "inputs": [
        {
          "indexed": false,
          "internalType": "uint8",
          "name": "version",
          "type": "uint8"
        }
      ],
      "name": "Initialized",
      "type": "event"
    },
    {
      "anonymous": false,
      "inputs": [
        {
          "indexed": true,
          "internalType": "address",
          "name": "previousOwner",
          "type": "address"
        },
        {
          "indexed": true,
          "internalType": "address",
          "name": "newOwner",
          "type": "address"
        }
      ],
      "name": "OwnershipTransferred",
      "type": "event"
    },
    {
      "inputs": [
        {
          "internalType": "address",
          "name": "",
          "type": "address"
        }
      ],
      "name": "authorizedContracts",
      "outputs": [
        {
          "internalType": "bool",
          "name": "",
          "type": "bool"
        }
      ],
      "stateMutability": "view",
      "type": "function"
    },
    {
      "inputs": [
        {
          "internalType": "uint256",
          "name": "",
          "type": "uint256"
        }
      ],
      "name": "certificates",
      "outputs": [
        {
          "internalType": "uint256",
          "name": "id",
          "type": "uint256"
        },
        {
          "internalType": "uint256",
          "name": "campaignId",
          "type": "uint256"
        },
        {
          "internalType": "uint256",
          "name": "nominalValue",
          "type": "uint256"
        },
        {
          "internalType": "uint256",
          "name": "maxCertificates",
          "type": "uint256"
        },
        {
          "internalType": "uint256",
          "name": "issuedCertificates",
          "type": "uint256"
        },
        {
          "internalType": "address",
          "name": "fiduciary",
          "type": "address"
        },
        {
          "internalType": "bool",
          "name": "active",
          "type": "bool"
        }
      ],
      "stateMutability": "view",
      "type": "function"
    },
    {
      "inputs": [
        {
          "internalType": "uint256",
          "name": "campaignId",
          "type": "uint256"
        },
        {
          "internalType": "uint256",
          "name": "maxCertificates",
          "type": "uint256"
        },
        {
          "internalType": "uint256",
          "name": "nominalValue",
          "type": "uint256"
        },
        {
          "internalType": "address",
          "name": "fiduciary",
          "type": "address"
        }
      ],
      "name": "createCertificate",
      "outputs": [],
      "stateMutability": "nonpayable",
      "type": "function"
    },
    {
      "inputs": [
        {
          "internalType": "uint256",
          "name": "certId",
          "type": "uint256"
        }
      ],
      "name": "deactivateCertificate",
      "outputs": [],
      "stateMutability": "nonpayable",
      "type": "function"
    },
    {
      "inputs": [],
      "name": "fiduciaryManager",
      "outputs": [
        {
          "internalType": "contract IFiduciaryManager",
          "name": "",
          "type": "address"
        }
      ],
      "stateMutability": "view",
      "type": "function"
    },
    {
      "inputs": [
        {
          "internalType": "uint256",
          "name": "id",
          "type": "uint256"
        }
      ],
      "name": "getCertificate",
      "outputs": [
        {
          "internalType": "uint256",
          "name": "",
          "type": "uint256"
        },
        {
          "internalType": "uint256",
          "name": "",
          "type": "uint256"
        },
        {
          "internalType": "uint256",
          "name": "",
          "type": "uint256"
        },
        {
          "internalType": "uint256",
          "name": "",
          "type": "uint256"
        },
        {
          "internalType": "uint256",
          "name": "",
          "type": "uint256"
        },
        {
          "internalType": "address",
          "name": "",
          "type": "address"
        },
        {
          "internalType": "bool",
          "name": "",
          "type": "bool"
        }
      ],
      "stateMutability": "view",
      "type": "function"
    },
    {
      "inputs": [
        {
          "internalType": "address",
          "name": "_fiduciaryManager",
          "type": "address"
        }
      ],
      "name": "initialize",
      "outputs": [],
      "stateMutability": "nonpayable",
      "type": "function"
    },
    {
      "inputs": [],
      "name": "nextCertificateId",
      "outputs": [
        {
          "internalType": "uint256",
          "name": "",
          "type": "uint256"
        }
      ],
      "stateMutability": "view",
      "type": "function"
    },
    {
      "inputs": [],
      "name": "owner",
      "outputs": [
        {
          "internalType": "address",
          "name": "",
          "type": "address"
        }
      ],
      "stateMutability": "view",
      "type": "function"
    },
    {
      "inputs": [],
      "name": "renounceOwnership",
      "outputs": [],
      "stateMutability": "nonpayable",
      "type": "function"
    },
    {
      "inputs": [
        {
          "internalType": "address",
          "name": "_contract",
          "type": "address"
        },
        {
          "internalType": "bool",
          "name": "status",
          "type": "bool"
        }
      ],
      "name": "setAuthorizedContract",
      "outputs": [],
      "stateMutability": "nonpayable",
      "type": "function"
    },
    {
      "inputs": [
        {
          "internalType": "address",
          "name": "newOwner",
          "type": "address"
        }
      ],
      "name": "transferOwnership",
      "outputs": [],
      "stateMutability": "nonpayable",
      "type": "function"
    },
    {
      "inputs": [
        {
          "internalType": "uint256",
          "name": "certId",
          "type": "uint256"
        },
        {
          "internalType": "uint256",
          "name": "newIssuedTokens",
          "type": "uint256"
        }
      ],
      "name": "updateIssuedTokens",
      "outputs": [],
      "stateMutability": "nonpayable",
      "type": "function"
    }
  ],
  "bytecode": "0x6080604052348015600e575f5ffd5b50610c038061001c5f395ff3fe608060405234801561000f575f5ffd5b50600436106100cb575f3560e01c80638da5cb5b11610088578063c4d66de811610063578063c4d66de814610254578063d5b9221b14610267578063f2fa739214610299578063f2fde38b146102ac575f5ffd5b80638da5cb5b14610205578063a0bdb0031461022a578063bae3a7de14610241575f5ffd5b806320d52cef146100cf57806336ba7e01146100e457806351640fee146100f75780635b4b9d3f14610193578063663b3e22146101a6578063715018a6146101fd575b5f5ffd5b6100e26100dd366004610a27565b6102bf565b005b6100e26100f2366004610a63565b610462565b61014e610105366004610a63565b5f9081526067602052604090208054600182015460028301546003840154600485015460059095015493959294919390926001600160a01b03821691600160a01b900460ff1690565b60408051978852602088019690965294860193909352606085019190915260808401526001600160a01b031660a0830152151560c082015260e0015b60405180910390f35b6100e26101a1366004610a7a565b61057b565b61014e6101b4366004610a63565b60676020525f908152604090208054600182015460028301546003840154600485015460059095015493949293919290916001600160a01b03811690600160a01b900460ff1687565b6100e2610724565b6033546001600160a01b03165b6040516001600160a01b03909116815260200161018a565b61023360685481565b60405190815260200161018a565b606554610212906001600160a01b031681565b6100e2610262366004610a9a565b610737565b610289610275366004610a9a565b60666020525f908152604090205460ff1681565b604051901515815260200161018a565b6100e26102a7366004610ac7565b61085e565b6100e26102ba366004610a9a565b610890565b60655460405163fe39ae9d60e01b81523360048201526001600160a01b039091169063fe39ae9d90602401602060405180830381865afa158015610305573d5f5f3e3d5ffd5b505050506040513d601f19601f820116820180604052508101906103299190610afc565b806103425750335f9081526066602052604090205460ff165b6103675760405162461bcd60e51b815260040161035e90610b17565b60405180910390fd5b6040805160e081018252606880548083526020808401898152848601888152606086018a81525f608088018181526001600160a01b03808c1660a08b01818152600160c08d018181529a86526067909952938c90209a518b559551968a0196909655925160028901559051600388015590516004870155516005909501805493511515600160a01b026001600160a81b03199094169590921694909417919091179055549151909186917f23651dc489caf46a5acfe66053c0acd2f59fc981483f78440a4b66cc1bfd07a7906104409088815260200190565b60405180910390a460688054905f61045783610b5e565b919050555050505050565b60655460405163fe39ae9d60e01b81523360048201526001600160a01b039091169063fe39ae9d90602401602060405180830381865afa1580156104a8573d5f5f3e3d5ffd5b505050506040513d601f19601f820116820180604052508101906104cc9190610afc565b806104e55750335f9081526066602052604090205460ff165b6105015760405162461bcd60e51b815260040161035e90610b17565b5f818152606760205260409081902060058101805460ff60a01b19169081905560048201549251919284927f9eb29ad1e5b944d3837f2e7c7b7fbf8db05373e8638b4472c505294ebf0cd1e39261056f9291600160a01b90910460ff16909182521515602082015260400190565b60405180910390a25050565b60655460405163fe39ae9d60e01b81523360048201526001600160a01b039091169063fe39ae9d90602401602060405180830381865afa1580156105c1573d5f5f3e3d5ffd5b505050506040513d601f19601f820116820180604052508101906105e59190610afc565b806105fe5750335f9081526066602052604090205460ff165b61061a5760405162461bcd60e51b815260040161035e90610b17565b5f8281526067602052604090206005810154600160a01b900460ff166106795760405162461bcd60e51b8152602060048201526014602482015273496e61637469766520636572746966696361746560601b604482015260640161035e565b80600301548211156106cd5760405162461bcd60e51b815260206004820152601a60248201527f4578636565647320746f74616c20636572746966696361746573000000000000604482015260640161035e565b60048101829055600581015460408051848152600160a01b90920460ff161515602083015284917f9eb29ad1e5b944d3837f2e7c7b7fbf8db05373e8638b4472c505294ebf0cd1e3910160405180910390a2505050565b61072c610909565b6107355f610963565b565b5f54610100900460ff161580801561075557505f54600160ff909116105b8061076e5750303b15801561076e57505f5460ff166001145b6107d15760405162461bcd60e51b815260206004820152602e60248201527f496e697469616c697a61626c653a20636f6e747261637420697320616c72656160448201526d191e481a5b9a5d1a585b1a5e995960921b606482015260840161035e565b5f805460ff1916600117905580156107f2575f805461ff0019166101001790555b6107fa6109b4565b606580546001600160a01b0319166001600160a01b038416179055801561085a575f805461ff0019169055604051600181527f7f26b83ff96e1f2b6a682f133852f6798a09c465da95921460cefb38474024989060200160405180910390a15b5050565b610866610909565b6001600160a01b03919091165f908152606660205260409020805460ff1916911515919091179055565b610898610909565b6001600160a01b0381166108fd5760405162461bcd60e51b815260206004820152602660248201527f4f776e61626c653a206e6577206f776e657220697320746865207a65726f206160448201526564647265737360d01b606482015260840161035e565b61090681610963565b50565b6033546001600160a01b031633146107355760405162461bcd60e51b815260206004820181905260248201527f4f776e61626c653a2063616c6c6572206973206e6f7420746865206f776e6572604482015260640161035e565b603380546001600160a01b038381166001600160a01b0319831681179093556040519116919082907f8be0079c531659141344cd1fd0a4f28419497f9722a3daafe3b4186f6b6457e0905f90a35050565b5f54610100900460ff166109da5760405162461bcd60e51b815260040161035e90610b82565b6107355f54610100900460ff16610a035760405162461bcd60e51b815260040161035e90610b82565b61073533610963565b80356001600160a01b0381168114610a22575f5ffd5b919050565b5f5f5f5f60808587031215610a3a575f5ffd5b843593506020850135925060408501359150610a5860608601610a0c565b905092959194509250565b5f60208284031215610a73575f5ffd5b5035919050565b5f5f60408385031215610a8b575f5ffd5b50508035926020909101359150565b5f60208284031215610aaa575f5ffd5b610ab382610a0c565b9392505050565b8015158114610906575f5ffd5b5f5f60408385031215610ad8575f5ffd5b610ae183610a0c565b91506020830135610af181610aba565b809150509250929050565b5f60208284031215610b0c575f5ffd5b8151610ab381610aba565b60208082526027908201527f4e6f7420616e20617574686f72697a656420666964756369617279206f7220636040820152661bdb9d1c9858dd60ca1b606082015260800190565b5f60018201610b7b57634e487b7160e01b5f52601160045260245ffd5b5060010190565b6020808252602b908201527f496e697469616c697a61626c653a20636f6e7472616374206973206e6f74206960408201526a6e697469616c697a696e6760a81b60608201526080019056fea2646970667358221220825e2c15cf33e34727f8f44ad2e71bea54e1f701935e82a654e83ca3840f2f9864736f6c634300081b0033",
  "linkReferences": {},
  "deployedLinkReferences": {}
}