{
  "_format": "hh-sol-artifact-1",
  "contractName": "Core",
  "sourceName": "contracts/global/Core.sol",
  "abi": [
    {
      "anonymous": false,
      "inputs": [
        {
          "indexed": true,
          "internalType": "uint256",
          "name": "campaignId",
          "type": "uint256"
        },
        {
          "indexed": false,
          "internalType": "address",
          "name": "approvedBy",
          "type": "address"
        }
      ],
      "name": "CampaignApproved",
      "type": "event"
    },
    {
      "anonymous": false,
      "inputs": [
        {
          "indexed": true,
          "internalType": "uint256",
          "name": "campaignId",
          "type": "uint256"
        },
        {
          "indexed": false,
          "internalType": "uint256",
          "name": "totalContributions",
          "type": "uint256"
        },
        {
          "indexed": false,
          "internalType": "uint256",
          "name": "timestamp",
          "type": "uint256"
        }
      ],
      "name": "CampaignCompleted",
      "type": "event"
    },
    {
      "anonymous": false,
      "inputs": [
        {
          "indexed": true,
          "internalType": "uint256",
          "name": "campaignId",
          "type": "uint256"
        },
        {
          "indexed": false,
          "internalType": "address",
          "name": "campaignCreator",
          "type": "address"
        },
        {
          "indexed": false,
          "internalType": "bytes32",
          "name": "ipfsHash",
          "type": "bytes32"
        },
        {
          "indexed": false,
          "internalType": "enum Core.STATUS",
          "name": "status",
          "type": "uint8"
        }
      ],
      "name": "CampaignCreated",
      "type": "event"
    },
    {
      "anonymous": false,
      "inputs": [
        {
          "indexed": true,
          "internalType": "uint256",
          "name": "campaignId",
          "type": "uint256"
        },
        {
          "indexed": false,
          "internalType": "address",
          "name": "rejectedBy",
          "type": "address"
        },
        {
          "indexed": false,
          "internalType": "bytes32",
          "name": "reason",
          "type": "bytes32"
        }
      ],
      "name": "CampaignRejected",
      "type": "event"
    },
    {
      "anonymous": false,
      "inputs": [
        {
          "indexed": true,
          "internalType": "uint256",
          "name": "campaignId",
          "type": "uint256"
        },
        {
          "indexed": false,
          "internalType": "address",
          "name": "startedBy",
          "type": "address"
        }
      ],
      "name": "CollectingStarted",
      "type": "event"
    },
    {
      "anonymous": false,
      "inputs": [
        {
          "indexed": true,
          "internalType": "uint256",
          "name": "campaignId",
          "type": "uint256"
        },
        {
          "indexed": false,
          "internalType": "address",
          "name": "contributor",
          "type": "address"
        },
        {
          "indexed": false,
          "internalType": "uint256",
          "name": "amount",
          "type": "uint256"
        }
      ],
      "name": "ContributionMade",
      "type": "event"
    },
    {
      "anonymous": false,
      "inputs": [
        {
          "indexed": true,
          "internalType": "uint256",
          "name": "campaignId",
          "type": "uint256"
        },
        {
          "indexed": false,
          "internalType": "address",
          "name": "startedBy",
          "type": "address"
        },
        {
          "indexed": false,
          "internalType": "uint256",
          "name": "timestamp",
          "type": "uint256"
        }
      ],
      "name": "DistributionStarted",
      "type": "event"
    },
    {
      "anonymous": false,
      "inputs": [
        {
          "indexed": true,
          "internalType": "uint256",
          "name": "campaignId",
          "type": "uint256"
        },
        {
          "indexed": false,
          "internalType": "address",
          "name": "campaignCreator",
          "type": "address"
        },
        {
          "indexed": false,
          "internalType": "bytes32",
          "name": "ipfsHash",
          "type": "bytes32"
        },
        {
          "indexed": false,
          "internalType": "enum Core.STATUS",
          "name": "status",
          "type": "uint8"
        }
      ],
      "name": "FinalizeCampaign",
      "type": "event"
    },
    {
      "anonymous": false,
      "inputs": [
        {
          "indexed": false,
          "internalType": "uint8",
          "name": "version",
          "type": "uint8"
        }
      ],
      "name": "Initialized",
      "type": "event"
    },
    {
      "anonymous": false,
      "inputs": [
        {
          "indexed": true,
          "internalType": "address",
          "name": "previousOwner",
          "type": "address"
        },
        {
          "indexed": true,
          "internalType": "address",
          "name": "newOwner",
          "type": "address"
        }
      ],
      "name": "OwnershipTransferred",
      "type": "event"
    },
    {
      "anonymous": false,
      "inputs": [
        {
          "indexed": true,
          "internalType": "uint256",
          "name": "campaignId",
          "type": "uint256"
        },
        {
          "indexed": false,
          "internalType": "address",
          "name": "contributor",
          "type": "address"
        },
        {
          "indexed": false,
          "internalType": "uint256",
          "name": "amount",
          "type": "uint256"
        }
      ],
      "name": "RefundMade",
      "type": "event"
    },
    {
      "inputs": [
        {
          "internalType": "uint256",
          "name": "_campaignId",
          "type": "uint256"
        }
      ],
      "name": "approveCampaign",
      "outputs": [],
      "stateMutability": "nonpayable",
      "type": "function"
    },
    {
      "inputs": [
        {
          "internalType": "address",
          "name": "",
          "type": "address"
        }
      ],
      "name": "authorizedContracts",
      "outputs": [
        {
          "internalType": "bool",
          "name": "",
          "type": "bool"
        }
      ],
      "stateMutability": "view",
      "type": "function"
    },
    {
      "inputs": [
        {
          "internalType": "uint256",
          "name": "",
          "type": "uint256"
        }
      ],
      "name": "campaignIds",
      "outputs": [
        {
          "internalType": "uint256",
          "name": "",
          "type": "uint256"
        }
      ],
      "stateMutability": "view",
      "type": "function"
    },
    {
      "inputs": [],
      "name": "certificateRegistry",
      "outputs": [
        {
          "internalType": "contract ICertificateRegistry",
          "name": "",
          "type": "address"
        }
      ],
      "stateMutability": "view",
      "type": "function"
    },
    {
      "inputs": [
        {
          "internalType": "uint256",
          "name": "_campaignId",
          "type": "uint256"
        }
      ],
      "name": "claimRefund",
      "outputs": [],
      "stateMutability": "nonpayable",
      "type": "function"
    },
    {
      "inputs": [
        {
          "internalType": "uint256",
          "name": "_campaignId",
          "type": "uint256"
        }
      ],
      "name": "completeCampaign",
      "outputs": [],
      "stateMutability": "nonpayable",
      "type": "function"
    },
    {
      "inputs": [
        {
          "internalType": "uint256",
          "name": "_campaignId",
          "type": "uint256"
        },
        {
          "internalType": "address",
          "name": "_custody",
          "type": "address"
        },
        {
          "internalType": "address",
          "name": "_tokenMinter",
          "type": "address"
        },
        {
          "internalType": "enum Core.STATUS",
          "name": "_status",
          "type": "uint8"
        }
      ],
      "name": "configureCampaign",
      "outputs": [],
      "stateMutability": "nonpayable",
      "type": "function"
    },
    {
      "inputs": [
        {
          "internalType": "uint256",
          "name": "_campaignId",
          "type": "uint256"
        },
        {
          "internalType": "uint256",
          "name": "_certificateId",
          "type": "uint256"
        },
        {
          "internalType": "uint256",
          "name": "_amount",
          "type": "uint256"
        }
      ],
      "name": "contribute",
      "outputs": [],
      "stateMutability": "nonpayable",
      "type": "function"
    },
    {
      "inputs": [
        {
          "internalType": "bytes32",
          "name": "_ipfsHash",
          "type": "bytes32"
        },
        {
          "internalType": "uint256",
          "name": "_goal",
          "type": "uint256"
        },
        {
          "internalType": "uint256",
          "name": "_startsAt",
          "type": "uint256"
        },
        {
          "internalType": "uint256",
          "name": "_endsAt",
          "type": "uint256"
        },
        {
          "internalType": "uint256",
          "name": "_certificates",
          "type": "uint256"
        },
        {
          "internalType": "bytes32",
          "name": "_certificateProof",
          "type": "bytes32"
        }
      ],
      "name": "createCampaign",
      "outputs": [],
      "stateMutability": "nonpayable",
      "type": "function"
    },
    {
      "inputs": [],
      "name": "custody",
      "outputs": [
        {
          "internalType": "contract ICustody",
          "name": "",
          "type": "address"
        }
      ],
      "stateMutability": "view",
      "type": "function"
    },
    {
      "inputs": [],
      "name": "fiduciaryManager",
      "outputs": [
        {
          "internalType": "contract IFiduciaryManager",
          "name": "",
          "type": "address"
        }
      ],
      "stateMutability": "view",
      "type": "function"
    },
    {
      "inputs": [
        {
          "internalType": "uint256",
          "name": "_campaignId",
          "type": "uint256"
        }
      ],
      "name": "finalizeCampaign",
      "outputs": [],
      "stateMutability": "nonpayable",
      "type": "function"
    },
    {
      "inputs": [],
      "name": "identityRegistry",
      "outputs": [
        {
          "internalType": "contract IIdentityRegistry",
          "name": "",
          "type": "address"
        }
      ],
      "stateMutability": "view",
      "type": "function"
    },
    {
      "inputs": [
        {
          "internalType": "address",
          "name": "_usdtAddress",
          "type": "address"
        },
        {
          "internalType": "address",
          "name": "_fiduciaryManager",
          "type": "address"
        },
        {
          "internalType": "address",
          "name": "_identityRegistry",
          "type": "address"
        },
        {
          "internalType": "address",
          "name": "_smartDeployer",
          "type": "address"
        },
        {
          "internalType": "address",
          "name": "_certificateRegistry",
          "type": "address"
        }
      ],
      "name": "initialize",
      "outputs": [],
      "stateMutability": "nonpayable",
      "type": "function"
    },
    {
      "inputs": [],
      "name": "owner",
      "outputs": [
        {
          "internalType": "address",
          "name": "",
          "type": "address"
        }
      ],
      "stateMutability": "view",
      "type": "function"
    },
    {
      "inputs": [
        {
          "internalType": "uint256",
          "name": "_campaignId",
          "type": "uint256"
        },
        {
          "internalType": "bytes32",
          "name": "reason",
          "type": "bytes32"
        }
      ],
      "name": "rejectCampaign",
      "outputs": [],
      "stateMutability": "nonpayable",
      "type": "function"
    },
    {
      "inputs": [],
      "name": "renounceOwnership",
      "outputs": [],
      "stateMutability": "nonpayable",
      "type": "function"
    },
    {
      "inputs": [
        {
          "internalType": "address",
          "name": "_contract",
          "type": "address"
        },
        {
          "internalType": "bool",
          "name": "status",
          "type": "bool"
        }
      ],
      "name": "setAuthorizedContract",
      "outputs": [],
      "stateMutability": "nonpayable",
      "type": "function"
    },
    {
      "inputs": [
        {
          "internalType": "uint256",
          "name": "_campaignId",
          "type": "uint256"
        }
      ],
      "name": "startCollecting",
      "outputs": [],
      "stateMutability": "nonpayable",
      "type": "function"
    },
    {
      "inputs": [
        {
          "internalType": "uint256",
          "name": "_campaignId",
          "type": "uint256"
        }
      ],
      "name": "startDistribution",
      "outputs": [],
      "stateMutability": "nonpayable",
      "type": "function"
    },
    {
      "inputs": [
        {
          "internalType": "address",
          "name": "newOwner",
          "type": "address"
        }
      ],
      "name": "transferOwnership",
      "outputs": [],
      "stateMutability": "nonpayable",
      "type": "function"
    },
    {
      "inputs": [],
      "name": "usdtToken",
      "outputs": [
        {
          "internalType": "contract IERC20Upgradeable",
          "name": "",
          "type": "address"
        }
      ],
      "stateMutability": "view",
      "type": "function"
    },
    {
      "inputs": [
        {
          "internalType": "uint256",
          "name": "_campaignId",
          "type": "uint256"
        }
      ],
      "name": "viewCampaign",
      "outputs": [
        {
          "components": [
            {
              "internalType": "uint256",
              "name": "id",
              "type": "uint256"
            },
            {
              "internalType": "address",
              "name": "campaignCreator",
              "type": "address"
            },
            {
              "internalType": "bytes32",
              "name": "ipfsHash",
              "type": "bytes32"
            },
            {
              "internalType": "uint256",
              "name": "goal",
              "type": "uint256"
            },
            {
              "internalType": "uint256",
              "name": "startsAt",
              "type": "uint256"
            },
            {
              "internalType": "uint256",
              "name": "endsAt",
              "type": "uint256"
            },
            {
              "internalType": "enum Core.STATUS",
              "name": "status",
              "type": "uint8"
            },
            {
              "internalType": "uint256",
              "name": "totalContributions",
              "type": "uint256"
            },
            {
              "internalType": "address",
              "name": "custody",
              "type": "address"
            },
            {
              "internalType": "address",
              "name": "tokenMinter",
              "type": "address"
            },
            {
              "internalType": "uint256",
              "name": "certificates",
              "type": "uint256"
            },
            {
              "internalType": "bytes32",
              "name": "certificateProof",
              "type": "bytes32"
            }
          ],
          "internalType": "struct Core.Campaign",
          "name": "",
          "type": "tuple"
        }
      ],
      "stateMutability": "view",
      "type": "function"
    }
  ],
  "bytecode": "0x6080604052348015600e575f5ffd5b5061246c8061001c5f395ff3fe608060405234801561000f575f5ffd5b5060043610610148575f3560e01c8063b369359d116100bf578063e073346611610079578063e0733466146102ce578063e0bd4011146102ee578063e797968914610301578063ee4e1b5314610314578063f2fa739214610327578063f2fde38b1461033a575f5ffd5b8063b369359d1461022f578063b437d9cb14610250578063bae3a7de14610263578063ced7f44914610276578063d5b9221b14610289578063dda79b75146102bb575f5ffd5b80636b5ca27d116101105780636b5ca27d146101ca578063715018a6146101dd5780637d98adaf146101e55780638da5cb5b146101f85780639553f18014610209578063a98ad46c1461021c575f5ffd5b8063134e18f41461014c5780631459457a1461017c5780633feaec0a146101915780634452ac39146101a45780635b7baf64146101b7575b5f5ffd5b60985461015f906001600160a01b031681565b6040516001600160a01b0390911681526020015b60405180910390f35b61018f61018a366004611f9e565b61034d565b005b61018f61019f36600461200b565b6104c5565b61018f6101b236600461202b565b6105fe565b61018f6101c536600461207e565b610728565b61018f6101d836600461207e565b61086c565b61018f610a89565b61018f6101f3366004612095565b610a9c565b6033546001600160a01b031661015f565b61018f61021736600461207e565b610f54565b60975461015f906001600160a01b031681565b61024261023d36600461207e565b6110d8565b604051908152602001610173565b61018f61025e36600461207e565b6110f7565b60995461015f906001600160a01b031681565b609a5461015f906001600160a01b031681565b6102ab6102973660046120be565b609f6020525f908152604090205460ff1681565b6040519015158152602001610173565b609b5461015f906001600160a01b031681565b6102e16102dc36600461207e565b611345565b6040516101739190612114565b61018f6102fc3660046121d6565b61148d565b61018f61030f36600461207e565b61178f565b61018f61032236600461207e565b61190e565b61018f610335366004612222565b6119e3565b61018f6103483660046120be565b611a15565b5f54610100900460ff161580801561036b57505f54600160ff909116105b806103845750303b15801561038457505f5460ff166001145b6103ec5760405162461bcd60e51b815260206004820152602e60248201527f496e697469616c697a61626c653a20636f6e747261637420697320616c72656160448201526d191e481a5b9a5d1a585b1a5e995960921b60648201526084015b60405180910390fd5b5f805460ff19166001179055801561040d575f805461ff0019166101001790555b610415611a8b565b61041d611ab9565b609780546001600160a01b03199081166001600160a01b0389811691909117909255609980548216888416179055609880548216878416179055609a80548216858416179055609c80549091169185169190911790556001609d5580156104bd575f805461ff0019169055604051600181527f7f26b83ff96e1f2b6a682f133852f6798a09c465da95921460cefb38474024989060200160405180910390a15b505050505050565b6104cd611ae7565b5f82815260a06020526040812080549091036104fb5760405162461bcd60e51b81526004016103e390612259565b6005600682015460ff166008811115610516576105166120e0565b1415801561053d57506004600682015460ff16600881111561053a5761053a6120e0565b14155b801561056257506008600682015460ff16600881111561055f5761055f6120e0565b14155b6105ae5760405162461bcd60e51b815260206004820152601b60248201527f43616e6e6f742063616e63656c20746869732063616d706169676e000000000060448201526064016103e3565b6006818101805460ff19169091179055604080513381526020810184905284917fa1407d639c249ccbafde9ab8a2fecc1d9a2852357738cd0d6ee2c04db1cbaae8910160405180910390a2505050565b609c546001600160a01b03163314806106255750335f908152609f602052604090205460ff165b6106715760405162461bcd60e51b815260206004820152601760248201527f4e6f7420617574686f72697a6564206465706c6f79657200000000000000000060448201526064016103e3565b5f84815260a06020526040812080549091036106c45760405162461bcd60e51b815260206004820152601260248201527110d85b5c185a59db881b9bdd08195e1a5cdd60721b60448201526064016103e3565b600880820180546001600160a01b038088166001600160a01b03199283161790925560098401805492871692909116919091179055600682018054849260ff1990911690600190849081111561071c5761071c6120e0565b02179055505050505050565b610730611b41565b5f81815260a06020526040902060068082015460ff166008811115610757576107576120e0565b1461079d5760405162461bcd60e51b815260206004820152601660248201527510d85b5c185a59db881b9bdd0818d85b98d95b1b195960521b60448201526064016103e3565b5f82815260a16020908152604080832033808552925280832080549390556008840154905163e796a6eb60e01b8152600481018690526024810192909252604482018390526001600160a01b03169063e796a6eb906064015f604051808303815f87803b15801561080c575f5ffd5b505af115801561081e573d5f5f3e3d5ffd5b505060408051338152602081018590528693507fd8e3c6fa99e763470c20c330c3264b60d68113ff301d4bde289d32ae0b08a30392500160405180910390a250506108696001606555565b50565b60995460405163fe39ae9d60e01b81523360048201526001600160a01b039091169063fe39ae9d90602401602060405180830381865afa1580156108b2573d5f5f3e3d5ffd5b505050506040513d601f19601f820116820180604052508101906108d69190612290565b806108eb57506033546001600160a01b031633145b6109075760405162461bcd60e51b81526004016103e3906122ab565b61090f611b41565b5f81815260a060205260408120805490910361093d5760405162461bcd60e51b81526004016103e390612259565b806005015442116109905760405162461bcd60e51b815260206004820152601a60248201527f43616d706169676e20686173206e6f7420656e6465642079657400000000000060448201526064016103e3565b6003600682015460ff1660088111156109ab576109ab6120e0565b146109f15760405162461bcd60e51b815260206004820152601660248201527543616d706169676e206973206e6f742061637469766560501b60448201526064016103e3565b8060030154816007015410610a145760068101805460ff19166004179055610a25565b6006818101805460ff191690911790555b60018101546002820154600683015460405185937f7a1acbb18fd316cbab80a9704536b60ce79d7e755ee444ed8684c94e12ee59a793610a76936001600160a01b0390921692909160ff16906122d5565b60405180910390a2506108696001606555565b610a91611ae7565b610a9a5f611ba1565b565b60985460405163b9209e3360e01b81523360048201526001600160a01b039091169063b9209e3390602401602060405180830381865afa158015610ae2573d5f5f3e3d5ffd5b505050506040513d601f19601f82011682018060405250810190610b069190612290565b610b435760405162461bcd60e51b815260206004820152600e60248201526d2737ba10309034b73b32b9ba37b960911b60448201526064016103e3565b5f83815260a0602052604081208054909103610b945760405162461bcd60e51b815260206004820152601060248201526f24b73b30b634b21031b0b6b830b4b3b760811b60448201526064016103e3565b6003600682015460ff166008811115610baf57610baf6120e0565b14610bf25760405162461bcd60e51b815260206004820152601360248201527243616d706169676e206e6f742061637469766560681b60448201526064016103e3565b80600401544210158015610c0a575080600501544211155b610c4c5760405162461bcd60e51b815260206004820152601360248201527243616d706169676e206e6f742061637469766560681b60448201526064016103e3565b5f8211610c9b5760405162461bcd60e51b815260206004820152601860248201527f436f6e747269627574696f6e206d757374206265203e2030000000000000000060448201526064016103e3565b60098101546001600160a01b031680610cec5760405162461bcd60e51b8152602060048201526013602482015272151bdad95b935a5b9d195c881b9bdd081cd95d606a1b60448201526064016103e3565b609a546040516328b207f760e11b8152600481018690525f9182916001600160a01b03909116906351640fee9060240160e060405180830381865afa158015610d37573d5f5f3e3d5ffd5b505050506040513d601f19601f82011682018060405250810190610d5b91906122f9565b96505050505092505080610da85760405162461bcd60e51b8152602060048201526014602482015273436572746966696361746520696e61637469766560601b60448201526064016103e3565b868214610e025760405162461bcd60e51b815260206004820152602260248201527f4365727469666963617465206e6f74206c696e6b656420746f2063616d70616960448201526133b760f11b60648201526084016103e3565b80610e465760405162461bcd60e51b8152602060048201526014602482015273436572746966696361746520696e61637469766560601b60448201526064016103e3565b6008840154609754610e67916001600160a01b039182169133911688611bf2565b5f87815260a16020908152604080832033845290915281208054879290610e8f908490612375565b9250508190555084846007015f828254610ea99190612375565b9091555050604051630686803560e11b815260048101879052336024820152604481018690526001600160a01b03841690630d0d006a906064015f604051808303815f87803b158015610efa575f5ffd5b505af1158015610f0c573d5f5f3e3d5ffd5b505060408051338152602081018990528a93507f0a4a91237423e0a1766a761c7cb029311d8b95d6b1b81db1b949a70c98b4e08e92500160405180910390a250505050505050565b60995460405163fe39ae9d60e01b81523360048201526001600160a01b039091169063fe39ae9d90602401602060405180830381865afa158015610f9a573d5f5f3e3d5ffd5b505050506040513d601f19601f82011682018060405250810190610fbe9190612290565b80610fd357506033546001600160a01b031633145b610fef5760405162461bcd60e51b81526004016103e3906122ab565b610ff7611b41565b5f81815260a06020526040812080549091036110255760405162461bcd60e51b81526004016103e390612259565b6005600682015460ff166008811115611040576110406120e0565b1461108d5760405162461bcd60e51b815260206004820152601c60248201527f43616d706169676e206e6f7420696e20646973747269627574696f6e0000000060448201526064016103e3565b60068101805460ff1916600817905560078101546040805191825242602083015283917f94e2f58e481106e499927da81e4a3596dbde3767d95990a9928a5df2fcb27c959101610a76565b609e81815481106110e7575f80fd5b5f91825260209091200154905081565b609c546001600160a01b0316331480611175575060995460405163fe39ae9d60e01b81523360048201526001600160a01b039091169063fe39ae9d90602401602060405180830381865afa158015611151573d5f5f3e3d5ffd5b505050506040513d601f19601f820116820180604052508101906111759190612290565b8061118a57506033546001600160a01b031633145b6111c75760405162461bcd60e51b815260206004820152600e60248201526d139bdd08185d5d1a1bdc9a5e995960921b60448201526064016103e3565b5f81815260a06020526040812080549091036111f55760405162461bcd60e51b81526004016103e390612259565b6002600682015460ff166008811115611210576112106120e0565b146112555760405162461bcd60e51b815260206004820152601560248201527410d85b5c185a59db881b9bdd0819195c1b1bde5959605a1b60448201526064016103e3565b60088101546001600160a01b03166112a85760405162461bcd60e51b815260206004820152601660248201527510dd5cdd1bd91e481b9bdd0818dbdb999a59dd5c995960521b60448201526064016103e3565b80600401544210156112fc5760405162461bcd60e51b815260206004820152601860248201527f43616d706169676e206e6f74207374617274656420796574000000000000000060448201526064016103e3565b60068101805460ff1916600317905560405133815282907f1c96c5c9776d5e7a3c00644916e16d80ecd3fb6dc116e6339e380ec9c187c4b1906020015b60405180910390a25050565b61134d611f09565b5f82116113925760405162461bcd60e51b8152602060048201526013602482015272125b9d985b1a590818d85b5c185a59db881251606a1b60448201526064016103e3565b5f82815260a0602081815260408084208151610180810183528154815260018201546001600160a01b0316938101939093526002810154918301919091526003810154606083015260048101546080830152600581015492820192909252600682015490919060c083019060ff166008811115611411576114116120e0565b6008811115611422576114226120e0565b81526007820154602082015260088201546001600160a01b0390811660408301526009830154166060820152600a8201546080820152600b9091015460a09091015280519091505f036114875760405162461bcd60e51b81526004016103e390612259565b92915050565b60995460405163fe39ae9d60e01b81523360048201526001600160a01b039091169063fe39ae9d90602401602060405180830381865afa1580156114d3573d5f5f3e3d5ffd5b505050506040513d601f19601f820116820180604052508101906114f79190612290565b8061150c57506033546001600160a01b031633145b6115285760405162461bcd60e51b81526004016103e3906122ab565b5f851161156a5760405162461bcd60e51b815260206004820152601060248201526f0476f616c206d757374206265203e20360841b60448201526064016103e3565b8383116115a95760405162461bcd60e51b815260206004820152600d60248201526c496e76616c696420646174657360981b60448201526064016103e3565b428410156115f95760405162461bcd60e51b815260206004820152601b60248201527f5374617274206d75737420626520696e2074686520667574757265000000000060448201526064016103e3565b611601611f09565b609d5480825233602080840191825260408085018b8152606086018b8152608087018b815260a08089018c81525f60c08b0181815260e08c018290526101008c018290526101208c018290526101408c018e90526101608c018d90529981529190965293909320875181559451600180870180546001600160a01b0319166001600160a01b03909316929092179091559151600286015551600385015590516004840155905160058301559151600682018054859460ff1991909116908360088111156116d0576116d06120e0565b021790555060e082015160078201556101008201516008820180546001600160a01b039283166001600160a01b031991821617909155610120840151600984018054919093169116179055610140820151600a82015561016090910151600b90910155609d546040517fc4d8e2507e740f9b2b87df5601babc76e0a2b6ef522344d53c01d1e5c68557769061176a9033908b905f906122d5565b60405180910390a2609d8054905f61178183612388565b919050555050505050505050565b60995460405163fe39ae9d60e01b81523360048201526001600160a01b039091169063fe39ae9d90602401602060405180830381865afa1580156117d5573d5f5f3e3d5ffd5b505050506040513d601f19601f820116820180604052508101906117f99190612290565b8061180e57506033546001600160a01b031633145b61182a5760405162461bcd60e51b81526004016103e3906122ab565b611832611b41565b5f81815260a06020526040812080549091036118605760405162461bcd60e51b81526004016103e390612259565b6004600682015460ff16600881111561187b5761187b6120e0565b146118c85760405162461bcd60e51b815260206004820152601960248201527f43616d706169676e206e6f7420696e20657865637574696f6e0000000000000060448201526064016103e3565b60068101805460ff191660051790556040805133815242602082015283917fcffa58035ff912e8c49cc11ff9238afae7f38e408573cd21e462f0fcf3615f129101610a76565b611916611ae7565b5f81815260a06020526040812080549091036119445760405162461bcd60e51b81526004016103e390612259565b5f600682015460ff16600881111561195e5761195e6120e0565b146119a25760405162461bcd60e51b815260206004820152601460248201527343616d706169676e206e6f742070656e64696e6760601b60448201526064016103e3565b60068101805460ff1916600117905560405133815282907f7e557e854a32c7c52283fd31db4981ae1b56041564d935953060da478429d5fa90602001611339565b6119eb611ae7565b6001600160a01b03919091165f908152609f60205260409020805460ff1916911515919091179055565b611a1d611ae7565b6001600160a01b038116611a825760405162461bcd60e51b815260206004820152602660248201527f4f776e61626c653a206e6577206f776e657220697320746865207a65726f206160448201526564647265737360d01b60648201526084016103e3565b61086981611ba1565b5f54610100900460ff16611ab15760405162461bcd60e51b81526004016103e3906123a0565b610a9a611c52565b5f54610100900460ff16611adf5760405162461bcd60e51b81526004016103e3906123a0565b610a9a611c81565b6033546001600160a01b03163314610a9a5760405162461bcd60e51b815260206004820181905260248201527f4f776e61626c653a2063616c6c6572206973206e6f7420746865206f776e657260448201526064016103e3565b600260655403611b935760405162461bcd60e51b815260206004820152601f60248201527f5265656e7472616e637947756172643a207265656e7472616e742063616c6c0060448201526064016103e3565b6002606555565b6001606555565b603380546001600160a01b038381166001600160a01b0319831681179093556040519116919082907f8be0079c531659141344cd1fd0a4f28419497f9722a3daafe3b4186f6b6457e0905f90a35050565b604080516001600160a01b0385811660248301528416604482015260648082018490528251808303909101815260849091019091526020810180516001600160e01b03166323b872dd60e01b179052611c4c908590611ca7565b50505050565b5f54610100900460ff16611c785760405162461bcd60e51b81526004016103e3906123a0565b610a9a33611ba1565b5f54610100900460ff16611b9a5760405162461bcd60e51b81526004016103e3906123a0565b5f611cfb826040518060400160405280602081526020017f5361666545524332303a206c6f772d6c6576656c2063616c6c206661696c6564815250856001600160a01b0316611d7f9092919063ffffffff16565b905080515f1480611d1b575080806020019051810190611d1b9190612290565b611d7a5760405162461bcd60e51b815260206004820152602a60248201527f5361666545524332303a204552433230206f7065726174696f6e20646964206e6044820152691bdd081cdd58d8d9595960b21b60648201526084016103e3565b505050565b6060611d8d84845f85611d95565b949350505050565b606082471015611df65760405162461bcd60e51b815260206004820152602660248201527f416464726573733a20696e73756666696369656e742062616c616e636520666f6044820152651c8818d85b1b60d21b60648201526084016103e3565b5f5f866001600160a01b03168587604051611e1191906123eb565b5f6040518083038185875af1925050503d805f8114611e4b576040519150601f19603f3d011682016040523d82523d5f602084013e611e50565b606091505b5091509150611e6187838387611e6c565b979650505050505050565b60608315611eda5782515f03611ed3576001600160a01b0385163b611ed35760405162461bcd60e51b815260206004820152601d60248201527f416464726573733a2063616c6c20746f206e6f6e2d636f6e747261637400000060448201526064016103e3565b5081611d8d565b611d8d8383815115611eef5781518083602001fd5b8060405162461bcd60e51b81526004016103e39190612401565b6040518061018001604052805f81526020015f6001600160a01b031681526020015f81526020015f81526020015f81526020015f81526020015f6008811115611f5457611f546120e0565b81526020015f81526020015f6001600160a01b031681526020015f6001600160a01b031681526020015f81526020015f81525090565b6001600160a01b0381168114610869575f5ffd5b5f5f5f5f5f60a08688031215611fb2575f5ffd5b8535611fbd81611f8a565b94506020860135611fcd81611f8a565b93506040860135611fdd81611f8a565b92506060860135611fed81611f8a565b91506080860135611ffd81611f8a565b809150509295509295909350565b5f5f6040838503121561201c575f5ffd5b50508035926020909101359150565b5f5f5f5f6080858703121561203e575f5ffd5b84359350602085013561205081611f8a565b9250604085013561206081611f8a565b9150606085013560098110612073575f5ffd5b939692955090935050565b5f6020828403121561208e575f5ffd5b5035919050565b5f5f5f606084860312156120a7575f5ffd5b505081359360208301359350604090920135919050565b5f602082840312156120ce575f5ffd5b81356120d981611f8a565b9392505050565b634e487b7160e01b5f52602160045260245ffd5b6009811061211057634e487b7160e01b5f52602160045260245ffd5b9052565b81518152602080830151610180830191612138908401826001600160a01b03169052565b5060408301516040830152606083015160608301526080830151608083015260a083015160a083015260c083015161217360c08401826120f4565b5060e083015160e083015261010083015161219a6101008401826001600160a01b03169052565b506101208301516121b76101208401826001600160a01b03169052565b5061014083015161014083015261016083015161016083015292915050565b5f5f5f5f5f5f60c087890312156121eb575f5ffd5b505084359660208601359650604086013595606081013595506080810135945060a0013592509050565b8015158114610869575f5ffd5b5f5f60408385031215612233575f5ffd5b823561223e81611f8a565b9150602083013561224e81612215565b809150509250929050565b60208082526017908201527f43616d706169676e20646f6573206e6f74206578697374000000000000000000604082015260600190565b5f602082840312156122a0575f5ffd5b81516120d981612215565b60208082526010908201526f4e6f742061206669647563696172696f60801b604082015260600190565b6001600160a01b03841681526020810183905260608101611d8d60408301846120f4565b5f5f5f5f5f5f5f60e0888a03121561230f575f5ffd5b8751602089015160408a015160608b015160808c015160a08d0151949b509299509097509550935061234081611f8a565b60c089015190925061235181612215565b8091505092959891949750929550565b634e487b7160e01b5f52601160045260245ffd5b8082018082111561148757611487612361565b5f6001820161239957612399612361565b5060010190565b6020808252602b908201527f496e697469616c697a61626c653a20636f6e7472616374206973206e6f74206960408201526a6e697469616c697a696e6760a81b606082015260800190565b5f82518060208501845e5f920191825250919050565b602081525f82518060208401528060208501604085015e5f604082850101526040601f19601f8301168401019150509291505056fea26469706673582212203ed60df2520b773a3986343381e63de7a1f3c133b220cbedc9164390465e74b764736f6c634300081b0033",
  "linkReferences": {},
  "deployedLinkReferences": {}
}