{
  "_format": "hh-sol-artifact-1",
  "contractName": "IdentityRegistry",
  "sourceName": "contracts/global/IdentityRegistry.sol",
  "abi": [
    {
      "anonymous": false,
      "inputs": [
        {
          "indexed": false,
          "internalType": "uint8",
          "name": "version",
          "type": "uint8"
        }
      ],
      "name": "Initialized",
      "type": "event"
    },
    {
      "anonymous": false,
      "inputs": [
        {
          "indexed": true,
          "internalType": "address",
          "name": "previousOwner",
          "type": "address"
        },
        {
          "indexed": true,
          "internalType": "address",
          "name": "newOwner",
          "type": "address"
        }
      ],
      "name": "OwnershipTransferred",
      "type": "event"
    },
    {
      "anonymous": false,
      "inputs": [
        {
          "indexed": true,
          "internalType": "address",
          "name": "user",
          "type": "address"
        },
        {
          "indexed": false,
          "internalType": "bool",
          "name": "status",
          "type": "bool"
        },
        {
          "indexed": false,
          "internalType": "bytes32",
          "name": "identityId",
          "type": "bytes32"
        }
      ],
      "name": "SetVerifiedEvent",
      "type": "event"
    },
    {
      "inputs": [
        {
          "internalType": "address",
          "name": "",
          "type": "address"
        }
      ],
      "name": "identityId",
      "outputs": [
        {
          "internalType": "bytes32",
          "name": "",
          "type": "bytes32"
        }
      ],
      "stateMutability": "view",
      "type": "function"
    },
    {
      "inputs": [
        {
          "internalType": "address",
          "name": "user",
          "type": "address"
        }
      ],
      "name": "identityOf",
      "outputs": [
        {
          "internalType": "bytes32",
          "name": "",
          "type": "bytes32"
        }
      ],
      "stateMutability": "view",
      "type": "function"
    },
    {
      "inputs": [],
      "name": "initialize",
      "outputs": [],
      "stateMutability": "nonpayable",
      "type": "function"
    },
    {
      "inputs": [
        {
          "internalType": "address",
          "name": "user",
          "type": "address"
        }
      ],
      "name": "isVerified",
      "outputs": [
        {
          "internalType": "bool",
          "name": "",
          "type": "bool"
        }
      ],
      "stateMutability": "view",
      "type": "function"
    },
    {
      "inputs": [],
      "name": "owner",
      "outputs": [
        {
          "internalType": "address",
          "name": "",
          "type": "address"
        }
      ],
      "stateMutability": "view",
      "type": "function"
    },
    {
      "inputs": [],
      "name": "renounceOwnership",
      "outputs": [],
      "stateMutability": "nonpayable",
      "type": "function"
    },
    {
      "inputs": [
        {
          "internalType": "address",
          "name": "user",
          "type": "address"
        },
        {
          "internalType": "bool",
          "name": "status",
          "type": "bool"
        },
        {
          "internalType": "bytes32",
          "name": "id",
          "type": "bytes32"
        }
      ],
      "name": "setVerified",
      "outputs": [],
      "stateMutability": "nonpayable",
      "type": "function"
    },
    {
      "inputs": [
        {
          "internalType": "address[]",
          "name": "users",
          "type": "address[]"
        },
        {
          "internalType": "bool",
          "name": "status",
          "type": "bool"
        },
        {
          "internalType": "bytes32[]",
          "name": "ids",
          "type": "bytes32[]"
        }
      ],
      "name": "setVerifiedBatch",
      "outputs": [],
      "stateMutability": "nonpayable",
      "type": "function"
    },
    {
      "inputs": [
        {
          "internalType": "address",
          "name": "newOwner",
          "type": "address"
        }
      ],
      "name": "transferOwnership",
      "outputs": [],
      "stateMutability": "nonpayable",
      "type": "function"
    },
    {
      "inputs": [
        {
          "internalType": "address",
          "name": "",
          "type": "address"
        }
      ],
      "name": "verified",
      "outputs": [
        {
          "internalType": "bool",
          "name": "",
          "type": "bool"
        }
      ],
      "stateMutability": "view",
      "type": "function"
    }
  ],
  "bytecode": "0x6080604052348015600e575f5ffd5b506109218061001c5f395ff3fe608060405234801561000f575f5ffd5b506004361061009b575f3560e01c80638da5cb5b116100635780638da5cb5b1461010e578063b9209e3314610129578063c634562614610154578063d1000cf41461018a578063f2fde38b146101a9575f5ffd5b80630db065f41461009f5780633c191cbb146100d6578063715018a6146100eb5780638129fc1c146100f3578063858fd07a146100fb575b5f5ffd5b6100c16100ad36600461075b565b60656020525f908152604090205460ff1681565b60405190151581526020015b60405180910390f35b6100e96100e436600461078a565b6101bc565b005b6100e961027f565b6100e9610292565b6100e961010936600461080b565b6103a2565b6033546040516001600160a01b0390911681526020016100cd565b6100c161013736600461075b565b6001600160a01b03165f9081526065602052604090205460ff1690565b61017c61016236600461075b565b6001600160a01b03165f9081526066602052604090205490565b6040519081526020016100cd565b61017c61019836600461075b565b60666020525f908152604090205481565b6100e96101b736600461075b565b6105c7565b6101c461063d565b6001600160a01b0383165f908152606560205260409020805460ff1916831580159190911790915561020f576001600160a01b0383165f908152606660205260409020819055610228565b6001600160a01b0383165f908152606660205260408120555b6001600160a01b0383165f818152606660209081526040918290205482518615158152918201527fcccb2136352857e9b4dfacd3e7efb1bb7b6fc9f9cdb66731bb9c45ab38c7c75b910160405180910390a2505050565b61028761063d565b6102905f610697565b565b5f54610100900460ff16158080156102b057505f54600160ff909116105b806102c95750303b1580156102c957505f5460ff166001145b6103315760405162461bcd60e51b815260206004820152602e60248201527f496e697469616c697a61626c653a20636f6e747261637420697320616c72656160448201526d191e481a5b9a5d1a585b1a5e995960921b60648201526084015b60405180910390fd5b5f805460ff191660011790558015610352575f805461ff0019166101001790555b61035a6106e8565b801561039f575f805461ff0019169055604051600181527f7f26b83ff96e1f2b6a682f133852f6798a09c465da95921460cefb38474024989060200160405180910390a15b50565b6103aa61063d565b8381146103f25760405162461bcd60e51b8152602060048201526016602482015275082e4e4c2f2e640d8cadccee8d040dad2e6dac2e8c6d60531b6044820152606401610328565b5f5b848110156105bf578360655f8888858181106104125761041261088c565b9050602002016020810190610427919061075b565b6001600160a01b0316815260208101919091526040015f20805460ff191691151591909117905583156104b5578282828181106104665761046661088c565b9050602002013560665f8888858181106104825761048261088c565b9050602002016020810190610497919061075b565b6001600160a01b0316815260208101919091526040015f20556104fa565b5f6066818888858181106104cb576104cb61088c565b90506020020160208101906104e0919061075b565b6001600160a01b0316815260208101919091526040015f20555b85858281811061050c5761050c61088c565b9050602002016020810190610521919061075b565b6001600160a01b03167fcccb2136352857e9b4dfacd3e7efb1bb7b6fc9f9cdb66731bb9c45ab38c7c75b8560665f8a8a878181106105615761056161088c565b9050602002016020810190610576919061075b565b6001600160a01b03166001600160a01b031681526020019081526020015f20546040516105af9291909115158252602082015260400190565b60405180910390a26001016103f4565b505050505050565b6105cf61063d565b6001600160a01b0381166106345760405162461bcd60e51b815260206004820152602660248201527f4f776e61626c653a206e6577206f776e657220697320746865207a65726f206160448201526564647265737360d01b6064820152608401610328565b61039f81610697565b6033546001600160a01b031633146102905760405162461bcd60e51b815260206004820181905260248201527f4f776e61626c653a2063616c6c6572206973206e6f7420746865206f776e65726044820152606401610328565b603380546001600160a01b038381166001600160a01b0319831681179093556040519116919082907f8be0079c531659141344cd1fd0a4f28419497f9722a3daafe3b4186f6b6457e0905f90a35050565b5f54610100900460ff1661070e5760405162461bcd60e51b8152600401610328906108a0565b6102905f54610100900460ff166107375760405162461bcd60e51b8152600401610328906108a0565b61029033610697565b80356001600160a01b0381168114610756575f5ffd5b919050565b5f6020828403121561076b575f5ffd5b61077482610740565b9392505050565b80358015158114610756575f5ffd5b5f5f5f6060848603121561079c575f5ffd5b6107a584610740565b92506107b36020850161077b565b9150604084013590509250925092565b5f5f83601f8401126107d3575f5ffd5b50813567ffffffffffffffff8111156107ea575f5ffd5b6020830191508360208260051b8501011115610804575f5ffd5b9250929050565b5f5f5f5f5f6060868803121561081f575f5ffd5b853567ffffffffffffffff811115610835575f5ffd5b610841888289016107c3565b909650945061085490506020870161077b565b9250604086013567ffffffffffffffff81111561086f575f5ffd5b61087b888289016107c3565b969995985093965092949392505050565b634e487b7160e01b5f52603260045260245ffd5b6020808252602b908201527f496e697469616c697a61626c653a20636f6e7472616374206973206e6f74206960408201526a6e697469616c697a696e6760a81b60608201526080019056fea2646970667358221220129171f17ff53c82425cb2b8eaa958a9de67be32bbfb4bff6d5e936edf7a2bf964736f6c634300081b0033",
  "linkReferences": {},
  "deployedLinkReferences": {}
}